{"contracts/PrivacyCrowdfunding.sol":{"PrivacyCrowdfunding":{"abi":[{"anonymous":false,"inputs":[{"indexed":true,"internalType":"uint256","name":"campaignId","type":"uint256"},{"indexed":true,"internalType":"address","name":"creator","type":"address"},{"indexed":false,"internalType":"string","name":"title","type":"string"},{"indexed":false,"internalType":"uint256","name":"goal","type":"uint256"},{"indexed":false,"internalType":"uint256","name":"deadline","type":"uint256"}],"name":"CampaignCreated","type":"event"},{"anonymous":false,"inputs":[{"indexed":true,"internalType":"uint256","name":"campaignId","type":"uint256"},{"indexed":true,"internalType":"address","name":"donor","type":"address"},{"indexed":false,"internalType":"uint256","name":"amount","type":"uint256"},{"indexed":false,"internalType":"bool","name":"isAnonymous","type":"bool"}],"name":"DonationMade","type":"event"},{"anonymous":false,"inputs":[{"indexed":true,"internalType":"uint256","name":"campaignId","type":"uint256"},{"indexed":true,"internalType":"address","name":"creator","type":"address"},{"indexed":false,"internalType":"uint256","name":"amount","type":"uint256"}],"name":"FundsWithdrawn","type":"event"},{"anonymous":false,"inputs":[{"indexed":true,"internalType":"uint256","name":"campaignId","type":"uint256"},{"indexed":true,"internalType":"address","name":"donor","type":"address"},{"indexed":false,"internalType":"uint256","name":"amount","type":"uint256"}],"name":"RefundIssued","type":"event"},{"stateMutability":"payable","type":"fallback"},{"inputs":[],"name":"campaignCounter","outputs":[{"internalType":"uint256","name":"","type":"uint256"}],"stateMutability":"view","type":"function"},{"inputs":[{"internalType":"uint256","name":"","type":"uint256"},{"internalType":"uint256","name":"","type":"uint256"}],"name":"campaignDonations","outputs":[{"internalType":"uint256","name":"campaignId","type":"uint256"},{"internalType":"address","name":"donor","type":"address"},{"internalType":"uint256","name":"amount","type":"uint256"},{"internalType":"uint256","name":"timestamp","type":"uint256"},{"internalType":"bool","name":"isAnonymous","type":"bool"}],"stateMutability":"view","type":"function"},{"inputs":[{"internalType":"uint256","name":"","type":"uint256"}],"name":"campaigns","outputs":[{"internalType":"uint256","name":"id","type":"uint256"},{"internalType":"address","name":"creator","type":"address"},{"internalType":"string","name":"title","type":"string"},{"internalType":"string","name":"description","type":"string"},{"internalType":"string","name":"category","type":"string"},{"internalType":"uint256","name":"goal","type":"uint256"},{"internalType":"uint256","name":"raised","type":"uint256"},{"internalType":"uint256","name":"deadline","type":"uint256"},{"internalType":"bool","name":"isActive","type":"bool"},{"internalType":"bool","name":"goalReached","type":"bool"},{"internalType":"bool","name":"fundsWithdrawn","type":"bool"}],"stateMutability":"view","type":"function"},{"inputs":[{"internalType":"string","name":"_title","type":"string"},{"internalType":"string","name":"_description","type":"string"},{"internalType":"string","name":"_category","type":"string"},{"internalType":"uint256","name":"_goal","type":"uint256"},{"internalType":"uint256","name":"_durationDays","type":"uint256"}],"name":"createCampaign","outputs":[{"internalType":"uint256","name":"","type":"uint256"}],"stateMutability":"nonpayable","type":"function"},{"inputs":[{"internalType":"uint256","name":"_campaignId","type":"uint256"},{"internalType":"bool","name":"_isAnonymous","type":"bool"}],"name":"donate","outputs":[],"stateMutability":"payable","type":"function"},{"inputs":[{"internalType":"uint256","name":"_campaignId","type":"uint256"}],"name":"emergencyPause","outputs":[],"stateMutability":"nonpayable","type":"function"},{"inputs":[],"name":"getAllActiveCampaigns","outputs":[{"components":[{"internalType":"uint256","name":"id","type":"uint256"},{"internalType":"address","name":"creator","type":"address"},{"internalType":"string","name":"title","type":"string"},{"internalType":"string","name":"description","type":"string"},{"internalType":"string","name":"category","type":"string"},{"internalType":"uint256","name":"goal","type":"uint256"},{"internalType":"uint256","name":"raised","type":"uint256"},{"internalType":"uint256","name":"deadline","type":"uint256"},{"internalType":"bool","name":"isActive","type":"bool"},{"internalType":"bool","name":"goalReached","type":"bool"},{"internalType":"bool","name":"fundsWithdrawn","type":"bool"}],"internalType":"struct PrivacyCrowdfunding.Campaign[]","name":"","type":"tuple[]"}],"stateMutability":"view","type":"function"},{"inputs":[{"internalType":"uint256","name":"_campaignId","type":"uint256"}],"name":"getCampaign","outputs":[{"components":[{"internalType":"uint256","name":"id","type":"uint256"},{"internalType":"address","name":"creator","type":"address"},{"internalType":"string","name":"title","type":"string"},{"internalType":"string","name":"description","type":"string"},{"internalType":"string","name":"category","type":"string"},{"internalType":"uint256","name":"goal","type":"uint256"},{"internalType":"uint256","name":"raised","type":"uint256"},{"internalType":"uint256","name":"deadline","type":"uint256"},{"internalType":"bool","name":"isActive","type":"bool"},{"internalType":"bool","name":"goalReached","type":"bool"},{"internalType":"bool","name":"fundsWithdrawn","type":"bool"}],"internalType":"struct PrivacyCrowdfunding.Campaign","name":"","type":"tuple"}],"stateMutability":"view","type":"function"},{"inputs":[{"internalType":"uint256","name":"_campaignId","type":"uint256"}],"name":"getCampaignDonations","outputs":[{"components":[{"internalType":"uint256","name":"campaignId","type":"uint256"},{"internalType":"address","name":"donor","type":"address"},{"internalType":"uint256","name":"amount","type":"uint256"},{"internalType":"uint256","name":"timestamp","type":"uint256"},{"internalType":"bool","name":"isAnonymous","type":"bool"}],"internalType":"struct PrivacyCrowdfunding.Donation[]","name":"","type":"tuple[]"}],"stateMutability":"view","type":"function"},{"inputs":[{"internalType":"string","name":"_category","type":"string"}],"name":"getCampaignsByCategory","outputs":[{"components":[{"internalType":"uint256","name":"id","type":"uint256"},{"internalType":"address","name":"creator","type":"address"},{"internalType":"string","name":"title","type":"string"},{"internalType":"string","name":"description","type":"string"},{"internalType":"string","name":"category","type":"string"},{"internalType":"uint256","name":"goal","type":"uint256"},{"internalType":"uint256","name":"raised","type":"uint256"},{"internalType":"uint256","name":"deadline","type":"uint256"},{"internalType":"bool","name":"isActive","type":"bool"},{"internalType":"bool","name":"goalReached","type":"bool"},{"internalType":"bool","name":"fundsWithdrawn","type":"bool"}],"internalType":"struct PrivacyCrowdfunding.Campaign[]","name":"","type":"tuple[]"}],"stateMutability":"view","type":"function"},{"inputs":[],"name":"getContractStats","outputs":[{"internalType":"uint256","name":"_totalCampaigns","type":"uint256"},{"internalType":"uint256","name":"_totalDonations","type":"uint256"},{"internalType":"uint256","name":"_platformFee","type":"uint256"}],"stateMutability":"view","type":"function"},{"inputs":[{"internalType":"address","name":"_user","type":"address"}],"name":"getUserCampaigns","outputs":[{"internalType":"uint256[]","name":"","type":"uint256[]"}],"stateMutability":"view","type":"function"},{"inputs":[{"internalType":"address","name":"_user","type":"address"}],"name":"getUserDonations","outputs":[{"internalType":"uint256[]","name":"","type":"uint256[]"}],"stateMutability":"view","type":"function"},{"inputs":[],"name":"platformFee","outputs":[{"internalType":"uint256","name":"","type":"uint256"}],"stateMutability":"view","type":"function"},{"inputs":[{"internalType":"uint256","name":"_campaignId","type":"uint256"}],"name":"refund","outputs":[],"stateMutability":"nonpayable","type":"function"},{"inputs":[],"name":"totalCampaigns","outputs":[{"internalType":"uint256","name":"","type":"uint256"}],"stateMutability":"view","type":"function"},{"inputs":[],"name":"totalDonations","outputs":[{"internalType":"uint256","name":"","type":"uint256"}],"stateMutability":"view","type":"function"},{"inputs":[{"internalType":"address","name":"","type":"address"},{"internalType":"uint256","name":"","type":"uint256"}],"name":"userCampaigns","outputs":[{"internalType":"uint256","name":"","type":"uint256"}],"stateMutability":"view","type":"function"},{"inputs":[{"internalType":"address","name":"","type":"address"},{"internalType":"uint256","name":"","type":"uint256"}],"name":"userDonations","outputs":[{"internalType":"uint256","name":"","type":"uint256"}],"stateMutability":"view","type":"function"},{"inputs":[{"internalType":"uint256","name":"_campaignId","type":"uint256"}],"name":"withdrawFunds","outputs":[],"stateMutability":"nonpayable","type":"function"},{"stateMutability":"payable","type":"receive"}],"evm":{"bytecode":{"linkReferences":{},"object":"6080806040523461001b57600a600755611f1190816100208239f35b5f80fdfe608080604052600436101561001a575b50361561001857005b005b60e05f35811c91826302932f561461194e57508163141961bc14611864578163155dd5ee146116e757816319ac74bd1461169357816326232a2e14611676578163278ecde11461147857816345f5b7371461113d5781634933e631146110e85781635167642f14610fb55781635598f8cc14610eca5781635cc3224e14610d3857816370879ff714610cbd578163732435b214610c47578163980f2e661461053857508063a1e5084c146104b2578063ad3fbe3014610456578063ca6a04a514610170578063de2ed89314610153578063dfe6b5d6146101255763fca604d714610104575f61000f565b34610121575f366003190112610121576020600454604051908152f35b5f80fd5b34610121575f3660031901126101215760606005546006546007549060405192835260208301526040820152f35b34610121575f366003190112610121576020600654604051908152f35b60403660031901126101215760248035801591600435918315908181036101215761019e6004548510611ccb565b835f526020945f865260ff600860405f200154161561041357845f525f8652600760405f2001544210156103d057341561038d57845f525f865260405f20600681016101eb348254611db9565b809155600582015411158061037b575b610365575b50811561035e575f935b604051610216816119bd565b8681528781016001600160a01b03809716815260408201348152606083019142835260808401938885528a5f5260018c5260405f208054906801000000000000000082101561034b579061026f91600182018155611c77565b96909661033a5750936102f2937f665ae3d7b1878285ba5b24aad2297e9585ab3110185e2d75a78f33772084e9b59a98969360049360409b99975186558a6001870191511673ffffffffffffffffffffffffffffffffffffffff1982541617905551600285015551600384015551151591019060ff801983541691151516179055565b610322575b610302600654611dc6565b6006551561031b575f905b8351963488528701521693a3005b339061030d565b335f526003875261033586855f20611ea2565b6102f7565b634e487b7160e01b5f525f6004525ffd5b87634e487b7160e01b5f5260416004525ffd5b339361020a565b600801805461ff00191661010017905586610200565b5060ff600882015460081c16156101fb565b606486601f866040519262461bcd60e51b845260048401528201527f446f6e6174696f6e206d7573742062652067726561746572207468616e2030006044820152fd5b606486600e866040519262461bcd60e51b845260048401528201527f43616d706169676e20656e6465640000000000000000000000000000000000006044820152fd5b6064866013866040519262461bcd60e51b845260048401528201527f43616d706169676e206e6f7420616374697665000000000000000000000000006044820152fd5b34610121576020366003190112610121576004356104776004548210611ccb565b805f525f6020526104996001600160a01b03600160405f200154163314611d16565b5f525f602052600860405f200160ff1981541690555f80f35b3461012157602080600319360112610121576001600160a01b036104d4611adb565b165f52600260205260405f20906040519081602084549182815201935f5260205f20915f905b8282106105215761051d85610511818903826119d9565b60405191829182611c90565b0390f35b8354865294850194600193840193909101906104fa565b346101215760a03660031901126101215760043567ffffffffffffffff811161012157610569903690600401611b1a565b9060243567ffffffffffffffff81116101215761058a903690600401611b1a565b9060443567ffffffffffffffff8111610121576105ab903690600401611b1a565b9060843592845115610c0357805115610bbf5760643515610b7b57831593841580610b6f575b15610b2b57600454946105e386611dc6565b60045562015180808302928304141715610b17576106019042611db9565b926040519161060f836119a0565b8583523360208401528660408401526060830152608082015260643560a08201525f60c0820152828282015260016101008201525f6101208201525f610140820152835f525f60205260405f2081518155600181016001600160a01b0360208401511673ffffffffffffffffffffffffffffffffffffffff19825416179055604082015180519067ffffffffffffffff82116109715781906106b46002850154611968565b601f8111610ac7575b50602090601f8311600114610a59575f92610a4e575b50508160011b915f199060031b1c19161760028201555b606082015180519067ffffffffffffffff82116109715781906107106003850154611968565b601f81116109fe575b50602090601f8311600114610990575f92610985575b50508160011b915f199060031b1c19161760038201555b608082015180519067ffffffffffffffff82116109715761076a6004840154611968565b601f811161092d575b5091869391602098938990601f83116001146108975791807fdc26653af5b99b2da33e2ad69ee6600d9aeccc82b034501db4338309615ca238979892600895945f9261088c575b50508160011b915f199060031b1c19161760048301555b60a0840151600583015560c084015160068301558301516007820155019061080c6101008201511515839060ff801983541691151516179055565b61012081015115159061ff0062ff00006101408554930151151560101b169260081b169062ffff00191617179055335f526002865261084e8360405f20611ea2565b610859600554611dc6565b60055561087160405191606083526060830190611a9d565b936064358783015260408201528033940390a3604051908152f35b015190508c806107ba565b60048498939298015f528a5f20905f5b601f19841681106109135750916001917fdc26653af5b99b2da33e2ad69ee6600d9aeccc82b034501db4338309615ca2389899600896959483601f198116106108fb575b505050811b0160048301556107d1565b01515f1960f88460031b161c191690558c80806108eb565b818a01518355988c01988b98506001909201918c016108a7565b600484015f5260205f20601f840160051c81016020851061096a575b601f830160051c8201811061095f575050610773565b5f8155600101610949565b5080610949565b634e487b7160e01b5f52604160045260245ffd5b01519050888061072f565b9250600384015f5260205f20905f935b601f19841685106109e3576001945083601f198116106109cb575b505050811b016003820155610746565b01515f1960f88460031b161c191690558880806109bb565b818101518355602094850194600190930192909101906109a0565b909150600384015f5260205f20601f840160051c810160208510610a47575b90849392915b601f830160051c82018110610a39575050610719565b5f8155859450600101610a23565b5080610a1d565b0151905088806106d3565b9250600284015f5260205f20905f935b601f1984168510610aac576001945083601f19811610610a94575b505050811b0160028201556106ea565b01515f1960f88460031b161c19169055888080610a84565b81810151835560209485019460019093019290910190610a69565b909150600284015f5260205f20601f840160051c810160208510610b10575b90849392915b601f830160051c82018110610b025750506106bd565b5f8155859450600101610aec565b5080610ae6565b634e487b7160e01b5f52601160045260245ffd5b606460405162461bcd60e51b815260206004820152601060248201527f496e76616c6964206475726174696f6e000000000000000000000000000000006044820152fd5b5061016d8111156105d1565b606460405162461bcd60e51b815260206004820152601b60248201527f476f616c206d7573742062652067726561746572207468616e203000000000006044820152fd5b606460405162461bcd60e51b815260206004820152601b60248201527f4465736372697074696f6e2063616e6e6f7420626520656d70747900000000006044820152fd5b606460405162461bcd60e51b815260206004820152601560248201527f5469746c652063616e6e6f7420626520656d70747900000000000000000000006044820152fd5b3461012157602080600319360112610121576001600160a01b03610c69611adb565b165f52600360205260405f20906040519081602084549182815201935f5260205f20915f905b828210610ca65761051d85610511818903826119d9565b835486529485019460019384019390910190610c8f565b34610121576040366003190112610121576024356004355f52600160205260405f2080548210156101215760a091610cf491611c77565b508054906001600160a01b0360018201541690600281015460ff60046003840154930154169260405194855260208501526040840152606083015215156080820152f35b34610121575f366003190112610121576004545f805b828110610e805750610d5f90611e3f565b915f905f5b838110610d79576040518061051d8782611c14565b805f5260205f815260405f206008808201549060ff9283831690818092610e73575b610dae575b505050505050600101610d64565b93838193610e67979593600760019a9c9860405198610dcc8a6119a0565b81548a526001600160a01b038d83015416908a0152610ded600282016119fb565b60408a0152610dfe600382016119fb565b60608a0152610e0f600482016119fb565b60808a0152600581015460a08a0152600681015460c08a015201548b88015215156101008701521c16151561012084015260101c161515610140820152610e568289611e8e565b52610e618188611e8e565b50611dc6565b92908680808080610da0565b5060078101544210610d9b565b805f525f60205260405f2060ff6008820154169081610ebc575b50610ea8575b600101610d4e565b90610eb4600191611dc6565b919050610ea0565b600791500154421085610e9a565b346101215760203660031901126101215761051d90600435610eea611dec565b50610ef86004548210611ccb565b5f525f60205260ff600860405f2060405193610f13856119a0565b815485526001600160a01b036001830154166020860152610f36600283016119fb565b6040860152610f47600383016119fb565b6060860152610f58600483016119fb565b6080860152600582015460a0860152600682015460c086015260078201549085015201548181161515610100840152818160081c16151561012084015260101c161515610140820152604051918291602083526020830190611b70565b346101215760208060031936011261012157600435610fd76004548210611ccb565b5f526001906001815260405f2091825491610ff183611dd4565b92610fff60405194856119d9565b80845281840180955f52825f205f915b83831061108657505050506040519281840190828552518091526040840194915f5b82811061103e5785870386f35b835180518852828101516001600160a01b031683890152604080820151908901526060808201519089015260809081015115159088015260a090960195928101928401611031565b9460058582999760409997995161109c816119bd565b855481526001600160a01b03858701541683820152600286015460408201526003860154606082015260ff6004870154161515608082015281520192019201919096949695939561100f565b3461012157604036600319011261012157611101611adb565b6001600160a01b0360243591165f52600360205260405f2080548210156101215760209161112e91611af1565b90549060031b1c604051908152f35b34610121576020806003193601126101215760043567ffffffffffffffff81116101215761116f903690600401611b1a565b5f905f9360045492848301955b84811061136e575061118d90611e3f565b935f915f5b8581106111a7576040518061051d8982611c14565b805f525f8352600460405f2001604051905f91815492816111c785611968565b91828252888201946001968a88821691825f14611350575050600114611310575b506111f5925003826119d9565b51902086518a2014806112f9575b806112e3575b611217575b50600101611192565b81946112dc916001935f525f865260405f206001600160a01b036040519261123e846119a0565b825484528201541687830152611256600282016119fb565b6040830152611267600382016119fb565b6060830152611278600482016119fb565b6080830152600581015460a0830152600681015460c083015260078101548683015260089081015460ff80821615156101008501529181901c8216151561012084015260101c1615156101408201526112d1828b611e8e565b52610e61818a611e8e565b939061120e565b50815f525f8452600760405f2001544210611209565b50815f525f845260ff600860405f20015416611203565b9150505f528187805f2092865f945b828610611336575050506111f5928201018e6111e8565b809192945054838688010152019201918391868a9261131f565b915092506111f594915060ff19168652151560051b8201018e6111e8565b805f525f8652600460405f20016040515f8183549161138c83611968565b8083528b8301956001948d86821691825f1461145957505060011461141c575b50506113ba925003826119d9565b519020845188201480611405575b806113ef575b6113db575b60010161117c565b906113e7600191611dc6565b9190506113d3565b50805f525f8652600760405f20015442106113ce565b50805f525f865260ff600860405f200154166113c8565b8c92505f52815f20935f945b828610611440575050506113ba928201018c806113ac565b805486880185015292909401938593508c928101611428565b92509350506113ba945060ff19168652151560051b8201018c806113ac565b34610121576020806003193601126101215760043561149a6004548210611ccb565b805f525f825260405f20916007830154421061163257600883015460ff8160081c166115ee5760ff6114d09160101c1615611d61565b5f92825f5260018083528060405f205f915b611589575b5050508315611545576006016114fe848254611dac565b90555f808080863382f11561153a577f7a482fdeb6bc9a1376f597068a214a7a39472bb2eff1b8cad21ba04f49ddca1b906040519384523393a3005b6040513d5f823e3d90fd5b6064826040519062461bcd60e51b82526004820152601660248201527f4e6f20646f6e6174696f6e7320746f20726566756e64000000000000000000006044820152fd5b80548210156115e957828261159f829484611c77565b508201546001600160a01b031633146115ba575b01916114e2565b5f6115d66115c88386611c77565b509a6002809c015490611db9565b996115e18386611c77565b5001556115b3565b6114e7565b6064826040519062461bcd60e51b82526004820152601060248201527f476f616c207761732072656163686564000000000000000000000000000000006044820152fd5b6064906040519062461bcd60e51b82526004820152601560248201527f43616d706169676e207374696c6c2061637469766500000000000000000000006044820152fd5b34610121575f366003190112610121576020600754604051908152f35b34610121576040366003190112610121576116ac611adb565b6001600160a01b0360243591165f52600260205260405f208054821015610121576020916116d991611af1565b90546040519160031b1c8152f35b3461012157602080600319360112610121576004356117096004548210611ccb565b805f525f825261172a6001600160a01b03600160405f200154163314611d16565b805f525f825260405f206008810180549160ff8360081c16156118205760069061175a60ff8560101c1615611d61565b01549182156117dc5762ff00ff191662010000179055600754818102919081830403610b17576103e861178e920490611dac565b91825f81156117d3575b5f80809381933390f11561153a577ff440aec6b52895984d061d622e6edeba6210f7c3e059be920663140c084560d7906040519384523393a3005b506108fc611798565b6064856040519062461bcd60e51b82526004820152601460248201527f4e6f2066756e647320746f2077697468647261770000000000000000000000006044820152fd5b6064856040519062461bcd60e51b82526004820152601060248201527f476f616c206e6f742072656163686564000000000000000000000000000000006044820152fd5b34610121576020366003190112610121576004355f525f6020526040805f209160ff8354936001600160a01b03600182015416906118a4600282016119fb565b936118b1600383016119fb565b946119176118c1600485016119fb565b6119096005860154986118fb600688015495600860078a0154990154998d519e8f9e8f6101609384938252602082015201528d0190611a9d565b908b820360608d0152611a9d565b9089820360808b0152611a9d565b9560a088015260c08701528501528181161515610100850152818160081c16151561012085015260101c1615156101408301520390f35b34610121575f366003190112610121576020906005548152f35b90600182811c92168015611996575b602083101461198257565b634e487b7160e01b5f52602260045260245ffd5b91607f1691611977565b610160810190811067ffffffffffffffff82111761097157604052565b60a0810190811067ffffffffffffffff82111761097157604052565b90601f8019910116810190811067ffffffffffffffff82111761097157604052565b9060405191825f8254611a0d81611968565b908184526020946001916001811690815f14611a7b5750600114611a3d575b505050611a3b925003836119d9565b565b5f90815285812095935091905b818310611a63575050611a3b93508201015f8080611a2c565b85548884018501529485019487945091830191611a4a565b92505050611a3b94925060ff191682840152151560051b8201015f8080611a2c565b91908251928382525f5b848110611ac7575050825f602080949584010152601f8019910116010190565b602081830181015184830182015201611aa7565b600435906001600160a01b038216820361012157565b8054821015611b06575f5260205f2001905f90565b634e487b7160e01b5f52603260045260245ffd5b81601f820112156101215780359067ffffffffffffffff82116109715760405192611b4f601f8401601f1916602001856119d9565b8284526020838301011161012157815f926020809301838601378301015290565b90611bcc611bba611ba8610160855185526001600160a01b036020870151166020860152604086015190806040870152850190611a9d565b60608501518482036060860152611a9d565b60808401518382036080850152611a9d565b9160a081015160a083015260c081015160c083015260e081015160e0830152610100808201511515908301526101208082015115159083015261014080910151151591015290565b6020808201906020835283518092526040830192602060408460051b8301019501935f915b848310611c495750505050505090565b9091929394958480611c67600193603f198682030187528a51611b70565b9801930193019194939290611c39565b8054821015611b06575f52600560205f20910201905f90565b60209060206040818301928281528551809452019301915f5b828110611cb7575050505090565b835185529381019392810192600101611ca9565b15611cd257565b606460405162461bcd60e51b815260206004820152601760248201527f43616d706169676e20646f6573206e6f742065786973740000000000000000006044820152fd5b15611d1d57565b606460405162461bcd60e51b815260206004820152601460248201527f4e6f742063616d706169676e2063726561746f720000000000000000000000006044820152fd5b15611d6857565b606460405162461bcd60e51b815260206004820152601760248201527f46756e647320616c72656164792077697468647261776e0000000000000000006044820152fd5b91908203918211610b1757565b91908201809211610b1757565b5f198114610b175760010190565b67ffffffffffffffff81116109715760051b60200190565b60405190611df9826119a0565b5f6101408382815282602082015260606040820152606080820152606060808201528260a08201528260c08201528260e082015282610100820152826101208201520152565b90611e4982611dd4565b611e5660405191826119d9565b8281528092611e67601f1991611dd4565b01905f5b828110611e7757505050565b602090611e82611dec565b82828501015201611e6b565b8051821015611b065760209160051b010190565b80546801000000000000000081101561097157611ec491600182018155611af1565b819291549060031b91821b915f19901b191617905556fea2646970667358221220f320d1a6e1adaf34bf8d068080dc227dfff477b0ac7773329de5cf455c46353364736f6c63430008180033","opcodes":"PUSH1 0x80 DUP1 PUSH1 0x40 MSTORE CALLVALUE PUSH2 0x1B JUMPI PUSH1 0xA PUSH1 0x7 SSTORE PUSH2 0x1F11 SWAP1 DUP2 PUSH2 0x20 DUP3 CODECOPY RETURN JUMPDEST PUSH0 DUP1 REVERT INVALID PUSH1 0x80 DUP1 PUSH1 0x40 MSTORE PUSH1 0x4 CALLDATASIZE LT ISZERO PUSH2 0x1A JUMPI JUMPDEST POP CALLDATASIZE ISZERO PUSH2 0x18 JUMPI STOP JUMPDEST STOP JUMPDEST PUSH1 0xE0 PUSH0 CALLDATALOAD DUP2 SHR SWAP2 DUP3 PUSH4 0x2932F56 EQ PUSH2 0x194E JUMPI POP DUP2 PUSH4 0x141961BC EQ PUSH2 0x1864 JUMPI DUP2 PUSH4 0x155DD5EE EQ PUSH2 0x16E7 JUMPI DUP2 PUSH4 0x19AC74BD EQ PUSH2 0x1693 JUMPI DUP2 PUSH4 0x26232A2E EQ PUSH2 0x1676 JUMPI DUP2 PUSH4 0x278ECDE1 EQ PUSH2 0x1478 JUMPI DUP2 PUSH4 0x45F5B737 EQ PUSH2 0x113D JUMPI DUP2 PUSH4 0x4933E631 EQ PUSH2 0x10E8 JUMPI DUP2 PUSH4 0x5167642F EQ PUSH2 0xFB5 JUMPI DUP2 PUSH4 0x5598F8CC EQ PUSH2 0xECA JUMPI DUP2 PUSH4 0x5CC3224E EQ PUSH2 0xD38 JUMPI DUP2 PUSH4 0x70879FF7 EQ PUSH2 0xCBD JUMPI DUP2 PUSH4 0x732435B2 EQ PUSH2 0xC47 JUMPI DUP2 PUSH4 0x980F2E66 EQ PUSH2 0x538 JUMPI POP DUP1 PUSH4 0xA1E5084C EQ PUSH2 0x4B2 JUMPI DUP1 PUSH4 0xAD3FBE30 EQ PUSH2 0x456 JUMPI DUP1 PUSH4 0xCA6A04A5 EQ PUSH2 0x170 JUMPI DUP1 PUSH4 0xDE2ED893 EQ PUSH2 0x153 JUMPI DUP1 PUSH4 0xDFE6B5D6 EQ PUSH2 0x125 JUMPI PUSH4 0xFCA604D7 EQ PUSH2 0x104 JUMPI PUSH0 PUSH2 0xF JUMP JUMPDEST CALLVALUE PUSH2 0x121 JUMPI PUSH0 CALLDATASIZE PUSH1 0x3 NOT ADD SLT PUSH2 0x121 JUMPI PUSH1 0x20 PUSH1 0x4 SLOAD PUSH1 0x40 MLOAD SWAP1 DUP2 MSTORE RETURN JUMPDEST PUSH0 DUP1 REVERT JUMPDEST CALLVALUE PUSH2 0x121 JUMPI PUSH0 CALLDATASIZE PUSH1 0x3 NOT ADD SLT PUSH2 0x121 JUMPI PUSH1 0x60 PUSH1 0x5 SLOAD PUSH1 0x6 SLOAD PUSH1 0x7 SLOAD SWAP1 PUSH1 0x40 MLOAD SWAP3 DUP4 MSTORE PUSH1 0x20 DUP4 ADD MSTORE PUSH1 0x40 DUP3 ADD MSTORE RETURN JUMPDEST CALLVALUE PUSH2 0x121 JUMPI PUSH0 CALLDATASIZE PUSH1 0x3 NOT ADD SLT PUSH2 0x121 JUMPI PUSH1 0x20 PUSH1 0x6 SLOAD PUSH1 0x40 MLOAD SWAP1 DUP2 MSTORE RETURN JUMPDEST PUSH1 0x40 CALLDATASIZE PUSH1 0x3 NOT ADD SLT PUSH2 0x121 JUMPI PUSH1 0x24 DUP1 CALLDATALOAD DUP1 ISZERO SWAP2 PUSH1 0x4 CALLDATALOAD SWAP2 DUP4 ISZERO SWAP1 DUP2 DUP2 SUB PUSH2 0x121 JUMPI PUSH2 0x19E PUSH1 0x4 SLOAD DUP6 LT PUSH2 0x1CCB JUMP JUMPDEST DUP4 PUSH0 MSTORE PUSH1 0x20 SWAP5 PUSH0 DUP7 MSTORE PUSH1 0xFF PUSH1 0x8 PUSH1 0x40 PUSH0 KECCAK256 ADD SLOAD AND ISZERO PUSH2 0x413 JUMPI DUP5 PUSH0 MSTORE PUSH0 DUP7 MSTORE PUSH1 0x7 PUSH1 0x40 PUSH0 KECCAK256 ADD SLOAD TIMESTAMP LT ISZERO PUSH2 0x3D0 JUMPI CALLVALUE ISZERO PUSH2 0x38D JUMPI DUP5 PUSH0 MSTORE PUSH0 DUP7 MSTORE PUSH1 0x40 PUSH0 KECCAK256 PUSH1 0x6 DUP2 ADD PUSH2 0x1EB CALLVALUE DUP3 SLOAD PUSH2 0x1DB9 JUMP JUMPDEST DUP1 SWAP2 SSTORE PUSH1 0x5 DUP3 ADD SLOAD GT ISZERO DUP1 PUSH2 0x37B JUMPI JUMPDEST PUSH2 0x365 JUMPI JUMPDEST POP DUP2 ISZERO PUSH2 0x35E JUMPI PUSH0 SWAP4 JUMPDEST PUSH1 0x40 MLOAD PUSH2 0x216 DUP2 PUSH2 0x19BD JUMP JUMPDEST DUP7 DUP2 MSTORE DUP8 DUP2 ADD PUSH1 0x1 PUSH1 0x1 PUSH1 0xA0 SHL SUB DUP1 SWAP8 AND DUP2 MSTORE PUSH1 0x40 DUP3 ADD CALLVALUE DUP2 MSTORE PUSH1 0x60 DUP4 ADD SWAP2 TIMESTAMP DUP4 MSTORE PUSH1 0x80 DUP5 ADD SWAP4 DUP9 DUP6 MSTORE DUP11 PUSH0 MSTORE PUSH1 0x1 DUP13 MSTORE PUSH1 0x40 PUSH0 KECCAK256 DUP1 SLOAD SWAP1 PUSH9 0x10000000000000000 DUP3 LT ISZERO PUSH2 0x34B JUMPI SWAP1 PUSH2 0x26F SWAP2 PUSH1 0x1 DUP3 ADD DUP2 SSTORE PUSH2 0x1C77 JUMP JUMPDEST SWAP7 SWAP1 SWAP7 PUSH2 0x33A JUMPI POP SWAP4 PUSH2 0x2F2 SWAP4 PUSH32 0x665AE3D7B1878285BA5B24AAD2297E9585AB3110185E2D75A78F33772084E9B5 SWAP11 SWAP9 SWAP7 SWAP4 PUSH1 0x4 SWAP4 PUSH1 0x40 SWAP12 SWAP10 SWAP8 MLOAD DUP7 SSTORE DUP11 PUSH1 0x1 DUP8 ADD SWAP2 MLOAD AND PUSH20 0xFFFFFFFFFFFFFFFFFFFFFFFFFFFFFFFFFFFFFFFF NOT DUP3 SLOAD AND OR SWAP1 SSTORE MLOAD PUSH1 0x2 DUP6 ADD SSTORE MLOAD PUSH1 0x3 DUP5 ADD SSTORE MLOAD ISZERO ISZERO SWAP2 ADD SWAP1 PUSH1 0xFF DUP1 NOT DUP4 SLOAD AND SWAP2 ISZERO ISZERO AND OR SWAP1 SSTORE JUMP JUMPDEST PUSH2 0x322 JUMPI JUMPDEST PUSH2 0x302 PUSH1 0x6 SLOAD PUSH2 0x1DC6 JUMP JUMPDEST PUSH1 0x6 SSTORE ISZERO PUSH2 0x31B JUMPI PUSH0 SWAP1 JUMPDEST DUP4 MLOAD SWAP7 CALLVALUE DUP9 MSTORE DUP8 ADD MSTORE AND SWAP4 LOG3 STOP JUMPDEST CALLER SWAP1 PUSH2 0x30D JUMP JUMPDEST CALLER PUSH0 MSTORE PUSH1 0x3 DUP8 MSTORE PUSH2 0x335 DUP7 DUP6 PUSH0 KECCAK256 PUSH2 0x1EA2 JUMP JUMPDEST PUSH2 0x2F7 JUMP JUMPDEST PUSH4 0x4E487B71 PUSH1 0xE0 SHL PUSH0 MSTORE PUSH0 PUSH1 0x4 MSTORE PUSH0 REVERT JUMPDEST DUP8 PUSH4 0x4E487B71 PUSH1 0xE0 SHL PUSH0 MSTORE PUSH1 0x41 PUSH1 0x4 MSTORE PUSH0 REVERT JUMPDEST CALLER SWAP4 PUSH2 0x20A JUMP JUMPDEST PUSH1 0x8 ADD DUP1 SLOAD PUSH2 0xFF00 NOT AND PUSH2 0x100 OR SWAP1 SSTORE DUP7 PUSH2 0x200 JUMP JUMPDEST POP PUSH1 0xFF PUSH1 0x8 DUP3 ADD SLOAD PUSH1 0x8 SHR AND ISZERO PUSH2 0x1FB JUMP JUMPDEST PUSH1 0x64 DUP7 PUSH1 0x1F DUP7 PUSH1 0x40 MLOAD SWAP3 PUSH3 0x461BCD PUSH1 0xE5 SHL DUP5 MSTORE PUSH1 0x4 DUP5 ADD MSTORE DUP3 ADD MSTORE PUSH32 0x446F6E6174696F6E206D7573742062652067726561746572207468616E203000 PUSH1 0x44 DUP3 ADD MSTORE REVERT JUMPDEST PUSH1 0x64 DUP7 PUSH1 0xE DUP7 PUSH1 0x40 MLOAD SWAP3 PUSH3 0x461BCD PUSH1 0xE5 SHL DUP5 MSTORE PUSH1 0x4 DUP5 ADD MSTORE DUP3 ADD MSTORE PUSH32 0x43616D706169676E20656E646564000000000000000000000000000000000000 PUSH1 0x44 DUP3 ADD MSTORE REVERT JUMPDEST PUSH1 0x64 DUP7 PUSH1 0x13 DUP7 PUSH1 0x40 MLOAD SWAP3 PUSH3 0x461BCD PUSH1 0xE5 SHL DUP5 MSTORE PUSH1 0x4 DUP5 ADD MSTORE DUP3 ADD MSTORE PUSH32 0x43616D706169676E206E6F742061637469766500000000000000000000000000 PUSH1 0x44 DUP3 ADD MSTORE REVERT JUMPDEST CALLVALUE PUSH2 0x121 JUMPI PUSH1 0x20 CALLDATASIZE PUSH1 0x3 NOT ADD SLT PUSH2 0x121 JUMPI PUSH1 0x4 CALLDATALOAD PUSH2 0x477 PUSH1 0x4 SLOAD DUP3 LT PUSH2 0x1CCB JUMP JUMPDEST DUP1 PUSH0 MSTORE PUSH0 PUSH1 0x20 MSTORE PUSH2 0x499 PUSH1 0x1 PUSH1 0x1 PUSH1 0xA0 SHL SUB PUSH1 0x1 PUSH1 0x40 PUSH0 KECCAK256 ADD SLOAD AND CALLER EQ PUSH2 0x1D16 JUMP JUMPDEST PUSH0 MSTORE PUSH0 PUSH1 0x20 MSTORE PUSH1 0x8 PUSH1 0x40 PUSH0 KECCAK256 ADD PUSH1 0xFF NOT DUP2 SLOAD AND SWAP1 SSTORE PUSH0 DUP1 RETURN JUMPDEST CALLVALUE PUSH2 0x121 JUMPI PUSH1 0x20 DUP1 PUSH1 0x3 NOT CALLDATASIZE ADD SLT PUSH2 0x121 JUMPI PUSH1 0x1 PUSH1 0x1 PUSH1 0xA0 SHL SUB PUSH2 0x4D4 PUSH2 0x1ADB JUMP JUMPDEST AND PUSH0 MSTORE PUSH1 0x2 PUSH1 0x20 MSTORE PUSH1 0x40 PUSH0 KECCAK256 SWAP1 PUSH1 0x40 MLOAD SWAP1 DUP2 PUSH1 0x20 DUP5 SLOAD SWAP2 DUP3 DUP2 MSTORE ADD SWAP4 PUSH0 MSTORE PUSH1 0x20 PUSH0 KECCAK256 SWAP2 PUSH0 SWAP1 JUMPDEST DUP3 DUP3 LT PUSH2 0x521 JUMPI PUSH2 0x51D DUP6 PUSH2 0x511 DUP2 DUP10 SUB DUP3 PUSH2 0x19D9 JUMP JUMPDEST PUSH1 0x40 MLOAD SWAP2 DUP3 SWAP2 DUP3 PUSH2 0x1C90 JUMP JUMPDEST SUB SWAP1 RETURN JUMPDEST DUP4 SLOAD DUP7 MSTORE SWAP5 DUP6 ADD SWAP5 PUSH1 0x1 SWAP4 DUP5 ADD SWAP4 SWAP1 SWAP2 ADD SWAP1 PUSH2 0x4FA JUMP JUMPDEST CALLVALUE PUSH2 0x121 JUMPI PUSH1 0xA0 CALLDATASIZE PUSH1 0x3 NOT ADD SLT PUSH2 0x121 JUMPI PUSH1 0x4 CALLDATALOAD PUSH8 0xFFFFFFFFFFFFFFFF DUP2 GT PUSH2 0x121 JUMPI PUSH2 0x569 SWAP1 CALLDATASIZE SWAP1 PUSH1 0x4 ADD PUSH2 0x1B1A JUMP JUMPDEST SWAP1 PUSH1 0x24 CALLDATALOAD PUSH8 0xFFFFFFFFFFFFFFFF DUP2 GT PUSH2 0x121 JUMPI PUSH2 0x58A SWAP1 CALLDATASIZE SWAP1 PUSH1 0x4 ADD PUSH2 0x1B1A JUMP JUMPDEST SWAP1 PUSH1 0x44 CALLDATALOAD PUSH8 0xFFFFFFFFFFFFFFFF DUP2 GT PUSH2 0x121 JUMPI PUSH2 0x5AB SWAP1 CALLDATASIZE SWAP1 PUSH1 0x4 ADD PUSH2 0x1B1A JUMP JUMPDEST SWAP1 PUSH1 0x84 CALLDATALOAD SWAP3 DUP5 MLOAD ISZERO PUSH2 0xC03 JUMPI DUP1 MLOAD ISZERO PUSH2 0xBBF JUMPI PUSH1 0x64 CALLDATALOAD ISZERO PUSH2 0xB7B JUMPI DUP4 ISZERO SWAP4 DUP5 ISZERO DUP1 PUSH2 0xB6F JUMPI JUMPDEST ISZERO PUSH2 0xB2B JUMPI PUSH1 0x4 SLOAD SWAP5 PUSH2 0x5E3 DUP7 PUSH2 0x1DC6 JUMP JUMPDEST PUSH1 0x4 SSTORE PUSH3 0x15180 DUP1 DUP4 MUL SWAP3 DUP4 DIV EQ OR ISZERO PUSH2 0xB17 JUMPI PUSH2 0x601 SWAP1 TIMESTAMP PUSH2 0x1DB9 JUMP JUMPDEST SWAP3 PUSH1 0x40 MLOAD SWAP2 PUSH2 0x60F DUP4 PUSH2 0x19A0 JUMP JUMPDEST DUP6 DUP4 MSTORE CALLER PUSH1 0x20 DUP5 ADD MSTORE DUP7 PUSH1 0x40 DUP5 ADD MSTORE PUSH1 0x60 DUP4 ADD MSTORE PUSH1 0x80 DUP3 ADD MSTORE PUSH1 0x64 CALLDATALOAD PUSH1 0xA0 DUP3 ADD MSTORE PUSH0 PUSH1 0xC0 DUP3 ADD MSTORE DUP3 DUP3 DUP3 ADD MSTORE PUSH1 0x1 PUSH2 0x100 DUP3 ADD MSTORE PUSH0 PUSH2 0x120 DUP3 ADD MSTORE PUSH0 PUSH2 0x140 DUP3 ADD MSTORE DUP4 PUSH0 MSTORE PUSH0 PUSH1 0x20 MSTORE PUSH1 0x40 PUSH0 KECCAK256 DUP2 MLOAD DUP2 SSTORE PUSH1 0x1 DUP2 ADD PUSH1 0x1 PUSH1 0x1 PUSH1 0xA0 SHL SUB PUSH1 0x20 DUP5 ADD MLOAD AND PUSH20 0xFFFFFFFFFFFFFFFFFFFFFFFFFFFFFFFFFFFFFFFF NOT DUP3 SLOAD AND OR SWAP1 SSTORE PUSH1 0x40 DUP3 ADD MLOAD DUP1 MLOAD SWAP1 PUSH8 0xFFFFFFFFFFFFFFFF DUP3 GT PUSH2 0x971 JUMPI DUP2 SWAP1 PUSH2 0x6B4 PUSH1 0x2 DUP6 ADD SLOAD PUSH2 0x1968 JUMP JUMPDEST PUSH1 0x1F DUP2 GT PUSH2 0xAC7 JUMPI JUMPDEST POP PUSH1 0x20 SWAP1 PUSH1 0x1F DUP4 GT PUSH1 0x1 EQ PUSH2 0xA59 JUMPI PUSH0 SWAP3 PUSH2 0xA4E JUMPI JUMPDEST POP POP DUP2 PUSH1 0x1 SHL SWAP2 PUSH0 NOT SWAP1 PUSH1 0x3 SHL SHR NOT AND OR PUSH1 0x2 DUP3 ADD SSTORE JUMPDEST PUSH1 0x60 DUP3 ADD MLOAD DUP1 MLOAD SWAP1 PUSH8 0xFFFFFFFFFFFFFFFF DUP3 GT PUSH2 0x971 JUMPI DUP2 SWAP1 PUSH2 0x710 PUSH1 0x3 DUP6 ADD SLOAD PUSH2 0x1968 JUMP JUMPDEST PUSH1 0x1F DUP2 GT PUSH2 0x9FE JUMPI JUMPDEST POP PUSH1 0x20 SWAP1 PUSH1 0x1F DUP4 GT PUSH1 0x1 EQ PUSH2 0x990 JUMPI PUSH0 SWAP3 PUSH2 0x985 JUMPI JUMPDEST POP POP DUP2 PUSH1 0x1 SHL SWAP2 PUSH0 NOT SWAP1 PUSH1 0x3 SHL SHR NOT AND OR PUSH1 0x3 DUP3 ADD SSTORE JUMPDEST PUSH1 0x80 DUP3 ADD MLOAD DUP1 MLOAD SWAP1 PUSH8 0xFFFFFFFFFFFFFFFF DUP3 GT PUSH2 0x971 JUMPI PUSH2 0x76A PUSH1 0x4 DUP5 ADD SLOAD PUSH2 0x1968 JUMP JUMPDEST PUSH1 0x1F DUP2 GT PUSH2 0x92D JUMPI JUMPDEST POP SWAP2 DUP7 SWAP4 SWAP2 PUSH1 0x20 SWAP9 SWAP4 DUP10 SWAP1 PUSH1 0x1F DUP4 GT PUSH1 0x1 EQ PUSH2 0x897 JUMPI SWAP2 DUP1 PUSH32 0xDC26653AF5B99B2DA33E2AD69EE6600D9AECCC82B034501DB4338309615CA238 SWAP8 SWAP9 SWAP3 PUSH1 0x8 SWAP6 SWAP5 PUSH0 SWAP3 PUSH2 0x88C JUMPI JUMPDEST POP POP DUP2 PUSH1 0x1 SHL SWAP2 PUSH0 NOT SWAP1 PUSH1 0x3 SHL SHR NOT AND OR PUSH1 0x4 DUP4 ADD SSTORE JUMPDEST PUSH1 0xA0 DUP5 ADD MLOAD PUSH1 0x5 DUP4 ADD SSTORE PUSH1 0xC0 DUP5 ADD MLOAD PUSH1 0x6 DUP4 ADD SSTORE DUP4 ADD MLOAD PUSH1 0x7 DUP3 ADD SSTORE ADD SWAP1 PUSH2 0x80C PUSH2 0x100 DUP3 ADD MLOAD ISZERO ISZERO DUP4 SWAP1 PUSH1 0xFF DUP1 NOT DUP4 SLOAD AND SWAP2 ISZERO ISZERO AND OR SWAP1 SSTORE JUMP JUMPDEST PUSH2 0x120 DUP2 ADD MLOAD ISZERO ISZERO SWAP1 PUSH2 0xFF00 PUSH3 0xFF0000 PUSH2 0x140 DUP6 SLOAD SWAP4 ADD MLOAD ISZERO ISZERO PUSH1 0x10 SHL AND SWAP3 PUSH1 0x8 SHL AND SWAP1 PUSH3 0xFFFF00 NOT AND OR OR SWAP1 SSTORE CALLER PUSH0 MSTORE PUSH1 0x2 DUP7 MSTORE PUSH2 0x84E DUP4 PUSH1 0x40 PUSH0 KECCAK256 PUSH2 0x1EA2 JUMP JUMPDEST PUSH2 0x859 PUSH1 0x5 SLOAD PUSH2 0x1DC6 JUMP JUMPDEST PUSH1 0x5 SSTORE PUSH2 0x871 PUSH1 0x40 MLOAD SWAP2 PUSH1 0x60 DUP4 MSTORE PUSH1 0x60 DUP4 ADD SWAP1 PUSH2 0x1A9D JUMP JUMPDEST SWAP4 PUSH1 0x64 CALLDATALOAD DUP8 DUP4 ADD MSTORE PUSH1 0x40 DUP3 ADD MSTORE DUP1 CALLER SWAP5 SUB SWAP1 LOG3 PUSH1 0x40 MLOAD SWAP1 DUP2 MSTORE RETURN JUMPDEST ADD MLOAD SWAP1 POP DUP13 DUP1 PUSH2 0x7BA JUMP JUMPDEST PUSH1 0x4 DUP5 SWAP9 SWAP4 SWAP3 SWAP9 ADD PUSH0 MSTORE DUP11 PUSH0 KECCAK256 SWAP1 PUSH0 JUMPDEST PUSH1 0x1F NOT DUP5 AND DUP2 LT PUSH2 0x913 JUMPI POP SWAP2 PUSH1 0x1 SWAP2 PUSH32 0xDC26653AF5B99B2DA33E2AD69EE6600D9AECCC82B034501DB4338309615CA238 SWAP9 SWAP10 PUSH1 0x8 SWAP7 SWAP6 SWAP5 DUP4 PUSH1 0x1F NOT DUP2 AND LT PUSH2 0x8FB JUMPI JUMPDEST POP POP POP DUP2 SHL ADD PUSH1 0x4 DUP4 ADD SSTORE PUSH2 0x7D1 JUMP JUMPDEST ADD MLOAD PUSH0 NOT PUSH1 0xF8 DUP5 PUSH1 0x3 SHL AND SHR NOT AND SWAP1 SSTORE DUP13 DUP1 DUP1 PUSH2 0x8EB JUMP JUMPDEST DUP2 DUP11 ADD MLOAD DUP4 SSTORE SWAP9 DUP13 ADD SWAP9 DUP12 SWAP9 POP PUSH1 0x1 SWAP1 SWAP3 ADD SWAP2 DUP13 ADD PUSH2 0x8A7 JUMP JUMPDEST PUSH1 0x4 DUP5 ADD PUSH0 MSTORE PUSH1 0x20 PUSH0 KECCAK256 PUSH1 0x1F DUP5 ADD PUSH1 0x5 SHR DUP2 ADD PUSH1 0x20 DUP6 LT PUSH2 0x96A JUMPI JUMPDEST PUSH1 0x1F DUP4 ADD PUSH1 0x5 SHR DUP3 ADD DUP2 LT PUSH2 0x95F JUMPI POP POP PUSH2 0x773 JUMP JUMPDEST PUSH0 DUP2 SSTORE PUSH1 0x1 ADD PUSH2 0x949 JUMP JUMPDEST POP DUP1 PUSH2 0x949 JUMP JUMPDEST PUSH4 0x4E487B71 PUSH1 0xE0 SHL PUSH0 MSTORE PUSH1 0x41 PUSH1 0x4 MSTORE PUSH1 0x24 PUSH0 REVERT JUMPDEST ADD MLOAD SWAP1 POP DUP9 DUP1 PUSH2 0x72F JUMP JUMPDEST SWAP3 POP PUSH1 0x3 DUP5 ADD PUSH0 MSTORE PUSH1 0x20 PUSH0 KECCAK256 SWAP1 PUSH0 SWAP4 JUMPDEST PUSH1 0x1F NOT DUP5 AND DUP6 LT PUSH2 0x9E3 JUMPI PUSH1 0x1 SWAP5 POP DUP4 PUSH1 0x1F NOT DUP2 AND LT PUSH2 0x9CB JUMPI JUMPDEST POP POP POP DUP2 SHL ADD PUSH1 0x3 DUP3 ADD SSTORE PUSH2 0x746 JUMP JUMPDEST ADD MLOAD PUSH0 NOT PUSH1 0xF8 DUP5 PUSH1 0x3 SHL AND SHR NOT AND SWAP1 SSTORE DUP9 DUP1 DUP1 PUSH2 0x9BB JUMP JUMPDEST DUP2 DUP2 ADD MLOAD DUP4 SSTORE PUSH1 0x20 SWAP5 DUP6 ADD SWAP5 PUSH1 0x1 SWAP1 SWAP4 ADD SWAP3 SWAP1 SWAP2 ADD SWAP1 PUSH2 0x9A0 JUMP JUMPDEST SWAP1 SWAP2 POP PUSH1 0x3 DUP5 ADD PUSH0 MSTORE PUSH1 0x20 PUSH0 KECCAK256 PUSH1 0x1F DUP5 ADD PUSH1 0x5 SHR DUP2 ADD PUSH1 0x20 DUP6 LT PUSH2 0xA47 JUMPI JUMPDEST SWAP1 DUP5 SWAP4 SWAP3 SWAP2 JUMPDEST PUSH1 0x1F DUP4 ADD PUSH1 0x5 SHR DUP3 ADD DUP2 LT PUSH2 0xA39 JUMPI POP POP PUSH2 0x719 JUMP JUMPDEST PUSH0 DUP2 SSTORE DUP6 SWAP5 POP PUSH1 0x1 ADD PUSH2 0xA23 JUMP JUMPDEST POP DUP1 PUSH2 0xA1D JUMP JUMPDEST ADD MLOAD SWAP1 POP DUP9 DUP1 PUSH2 0x6D3 JUMP JUMPDEST SWAP3 POP PUSH1 0x2 DUP5 ADD PUSH0 MSTORE PUSH1 0x20 PUSH0 KECCAK256 SWAP1 PUSH0 SWAP4 JUMPDEST PUSH1 0x1F NOT DUP5 AND DUP6 LT PUSH2 0xAAC JUMPI PUSH1 0x1 SWAP5 POP DUP4 PUSH1 0x1F NOT DUP2 AND LT PUSH2 0xA94 JUMPI JUMPDEST POP POP POP DUP2 SHL ADD PUSH1 0x2 DUP3 ADD SSTORE PUSH2 0x6EA JUMP JUMPDEST ADD MLOAD PUSH0 NOT PUSH1 0xF8 DUP5 PUSH1 0x3 SHL AND SHR NOT AND SWAP1 SSTORE DUP9 DUP1 DUP1 PUSH2 0xA84 JUMP JUMPDEST DUP2 DUP2 ADD MLOAD DUP4 SSTORE PUSH1 0x20 SWAP5 DUP6 ADD SWAP5 PUSH1 0x1 SWAP1 SWAP4 ADD SWAP3 SWAP1 SWAP2 ADD SWAP1 PUSH2 0xA69 JUMP JUMPDEST SWAP1 SWAP2 POP PUSH1 0x2 DUP5 ADD PUSH0 MSTORE PUSH1 0x20 PUSH0 KECCAK256 PUSH1 0x1F DUP5 ADD PUSH1 0x5 SHR DUP2 ADD PUSH1 0x20 DUP6 LT PUSH2 0xB10 JUMPI JUMPDEST SWAP1 DUP5 SWAP4 SWAP3 SWAP2 JUMPDEST PUSH1 0x1F DUP4 ADD PUSH1 0x5 SHR DUP3 ADD DUP2 LT PUSH2 0xB02 JUMPI POP POP PUSH2 0x6BD JUMP JUMPDEST PUSH0 DUP2 SSTORE DUP6 SWAP5 POP PUSH1 0x1 ADD PUSH2 0xAEC JUMP JUMPDEST POP DUP1 PUSH2 0xAE6 JUMP JUMPDEST PUSH4 0x4E487B71 PUSH1 0xE0 SHL PUSH0 MSTORE PUSH1 0x11 PUSH1 0x4 MSTORE PUSH1 0x24 PUSH0 REVERT JUMPDEST PUSH1 0x64 PUSH1 0x40 MLOAD PUSH3 0x461BCD PUSH1 0xE5 SHL DUP2 MSTORE PUSH1 0x20 PUSH1 0x4 DUP3 ADD MSTORE PUSH1 0x10 PUSH1 0x24 DUP3 ADD MSTORE PUSH32 0x496E76616C6964206475726174696F6E00000000000000000000000000000000 PUSH1 0x44 DUP3 ADD MSTORE REVERT JUMPDEST POP PUSH2 0x16D DUP2 GT ISZERO PUSH2 0x5D1 JUMP JUMPDEST PUSH1 0x64 PUSH1 0x40 MLOAD PUSH3 0x461BCD PUSH1 0xE5 SHL DUP2 MSTORE PUSH1 0x20 PUSH1 0x4 DUP3 ADD MSTORE PUSH1 0x1B PUSH1 0x24 DUP3 ADD MSTORE PUSH32 0x476F616C206D7573742062652067726561746572207468616E20300000000000 PUSH1 0x44 DUP3 ADD MSTORE REVERT JUMPDEST PUSH1 0x64 PUSH1 0x40 MLOAD PUSH3 0x461BCD PUSH1 0xE5 SHL DUP2 MSTORE PUSH1 0x20 PUSH1 0x4 DUP3 ADD MSTORE PUSH1 0x1B PUSH1 0x24 DUP3 ADD MSTORE PUSH32 0x4465736372697074696F6E2063616E6E6F7420626520656D7074790000000000 PUSH1 0x44 DUP3 ADD MSTORE REVERT JUMPDEST PUSH1 0x64 PUSH1 0x40 MLOAD PUSH3 0x461BCD PUSH1 0xE5 SHL DUP2 MSTORE PUSH1 0x20 PUSH1 0x4 DUP3 ADD MSTORE PUSH1 0x15 PUSH1 0x24 DUP3 ADD MSTORE PUSH32 0x5469746C652063616E6E6F7420626520656D7074790000000000000000000000 PUSH1 0x44 DUP3 ADD MSTORE REVERT JUMPDEST CALLVALUE PUSH2 0x121 JUMPI PUSH1 0x20 DUP1 PUSH1 0x3 NOT CALLDATASIZE ADD SLT PUSH2 0x121 JUMPI PUSH1 0x1 PUSH1 0x1 PUSH1 0xA0 SHL SUB PUSH2 0xC69 PUSH2 0x1ADB JUMP JUMPDEST AND PUSH0 MSTORE PUSH1 0x3 PUSH1 0x20 MSTORE PUSH1 0x40 PUSH0 KECCAK256 SWAP1 PUSH1 0x40 MLOAD SWAP1 DUP2 PUSH1 0x20 DUP5 SLOAD SWAP2 DUP3 DUP2 MSTORE ADD SWAP4 PUSH0 MSTORE PUSH1 0x20 PUSH0 KECCAK256 SWAP2 PUSH0 SWAP1 JUMPDEST DUP3 DUP3 LT PUSH2 0xCA6 JUMPI PUSH2 0x51D DUP6 PUSH2 0x511 DUP2 DUP10 SUB DUP3 PUSH2 0x19D9 JUMP JUMPDEST DUP4 SLOAD DUP7 MSTORE SWAP5 DUP6 ADD SWAP5 PUSH1 0x1 SWAP4 DUP5 ADD SWAP4 SWAP1 SWAP2 ADD SWAP1 PUSH2 0xC8F JUMP JUMPDEST CALLVALUE PUSH2 0x121 JUMPI PUSH1 0x40 CALLDATASIZE PUSH1 0x3 NOT ADD SLT PUSH2 0x121 JUMPI PUSH1 0x24 CALLDATALOAD PUSH1 0x4 CALLDATALOAD PUSH0 MSTORE PUSH1 0x1 PUSH1 0x20 MSTORE PUSH1 0x40 PUSH0 KECCAK256 DUP1 SLOAD DUP3 LT ISZERO PUSH2 0x121 JUMPI PUSH1 0xA0 SWAP2 PUSH2 0xCF4 SWAP2 PUSH2 0x1C77 JUMP JUMPDEST POP DUP1 SLOAD SWAP1 PUSH1 0x1 PUSH1 0x1 PUSH1 0xA0 SHL SUB PUSH1 0x1 DUP3 ADD SLOAD AND SWAP1 PUSH1 0x2 DUP2 ADD SLOAD PUSH1 0xFF PUSH1 0x4 PUSH1 0x3 DUP5 ADD SLOAD SWAP4 ADD SLOAD AND SWAP3 PUSH1 0x40 MLOAD SWAP5 DUP6 MSTORE PUSH1 0x20 DUP6 ADD MSTORE PUSH1 0x40 DUP5 ADD MSTORE PUSH1 0x60 DUP4 ADD MSTORE ISZERO ISZERO PUSH1 0x80 DUP3 ADD MSTORE RETURN JUMPDEST CALLVALUE PUSH2 0x121 JUMPI PUSH0 CALLDATASIZE PUSH1 0x3 NOT ADD SLT PUSH2 0x121 JUMPI PUSH1 0x4 SLOAD PUSH0 DUP1 JUMPDEST DUP3 DUP2 LT PUSH2 0xE80 JUMPI POP PUSH2 0xD5F SWAP1 PUSH2 0x1E3F JUMP JUMPDEST SWAP2 PUSH0 SWAP1 PUSH0 JUMPDEST DUP4 DUP2 LT PUSH2 0xD79 JUMPI PUSH1 0x40 MLOAD DUP1 PUSH2 0x51D DUP8 DUP3 PUSH2 0x1C14 JUMP JUMPDEST DUP1 PUSH0 MSTORE PUSH1 0x20 PUSH0 DUP2 MSTORE PUSH1 0x40 PUSH0 KECCAK256 PUSH1 0x8 DUP1 DUP3 ADD SLOAD SWAP1 PUSH1 0xFF SWAP3 DUP4 DUP4 AND SWAP1 DUP2 DUP1 SWAP3 PUSH2 0xE73 JUMPI JUMPDEST PUSH2 0xDAE JUMPI JUMPDEST POP POP POP POP POP POP PUSH1 0x1 ADD PUSH2 0xD64 JUMP JUMPDEST SWAP4 DUP4 DUP2 SWAP4 PUSH2 0xE67 SWAP8 SWAP6 SWAP4 PUSH1 0x7 PUSH1 0x1 SWAP11 SWAP13 SWAP9 PUSH1 0x40 MLOAD SWAP9 PUSH2 0xDCC DUP11 PUSH2 0x19A0 JUMP JUMPDEST DUP2 SLOAD DUP11 MSTORE PUSH1 0x1 PUSH1 0x1 PUSH1 0xA0 SHL SUB DUP14 DUP4 ADD SLOAD AND SWAP1 DUP11 ADD MSTORE PUSH2 0xDED PUSH1 0x2 DUP3 ADD PUSH2 0x19FB JUMP JUMPDEST PUSH1 0x40 DUP11 ADD MSTORE PUSH2 0xDFE PUSH1 0x3 DUP3 ADD PUSH2 0x19FB JUMP JUMPDEST PUSH1 0x60 DUP11 ADD MSTORE PUSH2 0xE0F PUSH1 0x4 DUP3 ADD PUSH2 0x19FB JUMP JUMPDEST PUSH1 0x80 DUP11 ADD MSTORE PUSH1 0x5 DUP2 ADD SLOAD PUSH1 0xA0 DUP11 ADD MSTORE PUSH1 0x6 DUP2 ADD SLOAD PUSH1 0xC0 DUP11 ADD MSTORE ADD SLOAD DUP12 DUP9 ADD MSTORE ISZERO ISZERO PUSH2 0x100 DUP8 ADD MSTORE SHR AND ISZERO ISZERO PUSH2 0x120 DUP5 ADD MSTORE PUSH1 0x10 SHR AND ISZERO ISZERO PUSH2 0x140 DUP3 ADD MSTORE PUSH2 0xE56 DUP3 DUP10 PUSH2 0x1E8E JUMP JUMPDEST MSTORE PUSH2 0xE61 DUP2 DUP9 PUSH2 0x1E8E JUMP JUMPDEST POP PUSH2 0x1DC6 JUMP JUMPDEST SWAP3 SWAP1 DUP7 DUP1 DUP1 DUP1 DUP1 PUSH2 0xDA0 JUMP JUMPDEST POP PUSH1 0x7 DUP2 ADD SLOAD TIMESTAMP LT PUSH2 0xD9B JUMP JUMPDEST DUP1 PUSH0 MSTORE PUSH0 PUSH1 0x20 MSTORE PUSH1 0x40 PUSH0 KECCAK256 PUSH1 0xFF PUSH1 0x8 DUP3 ADD SLOAD AND SWAP1 DUP2 PUSH2 0xEBC JUMPI JUMPDEST POP PUSH2 0xEA8 JUMPI JUMPDEST PUSH1 0x1 ADD PUSH2 0xD4E JUMP JUMPDEST SWAP1 PUSH2 0xEB4 PUSH1 0x1 SWAP2 PUSH2 0x1DC6 JUMP JUMPDEST SWAP2 SWAP1 POP PUSH2 0xEA0 JUMP JUMPDEST PUSH1 0x7 SWAP2 POP ADD SLOAD TIMESTAMP LT DUP6 PUSH2 0xE9A JUMP JUMPDEST CALLVALUE PUSH2 0x121 JUMPI PUSH1 0x20 CALLDATASIZE PUSH1 0x3 NOT ADD SLT PUSH2 0x121 JUMPI PUSH2 0x51D SWAP1 PUSH1 0x4 CALLDATALOAD PUSH2 0xEEA PUSH2 0x1DEC JUMP JUMPDEST POP PUSH2 0xEF8 PUSH1 0x4 SLOAD DUP3 LT PUSH2 0x1CCB JUMP JUMPDEST PUSH0 MSTORE PUSH0 PUSH1 0x20 MSTORE PUSH1 0xFF PUSH1 0x8 PUSH1 0x40 PUSH0 KECCAK256 PUSH1 0x40 MLOAD SWAP4 PUSH2 0xF13 DUP6 PUSH2 0x19A0 JUMP JUMPDEST DUP2 SLOAD DUP6 MSTORE PUSH1 0x1 PUSH1 0x1 PUSH1 0xA0 SHL SUB PUSH1 0x1 DUP4 ADD SLOAD AND PUSH1 0x20 DUP7 ADD MSTORE PUSH2 0xF36 PUSH1 0x2 DUP4 ADD PUSH2 0x19FB JUMP JUMPDEST PUSH1 0x40 DUP7 ADD MSTORE PUSH2 0xF47 PUSH1 0x3 DUP4 ADD PUSH2 0x19FB JUMP JUMPDEST PUSH1 0x60 DUP7 ADD MSTORE PUSH2 0xF58 PUSH1 0x4 DUP4 ADD PUSH2 0x19FB JUMP JUMPDEST PUSH1 0x80 DUP7 ADD MSTORE PUSH1 0x5 DUP3 ADD SLOAD PUSH1 0xA0 DUP7 ADD MSTORE PUSH1 0x6 DUP3 ADD SLOAD PUSH1 0xC0 DUP7 ADD MSTORE PUSH1 0x7 DUP3 ADD SLOAD SWAP1 DUP6 ADD MSTORE ADD SLOAD DUP2 DUP2 AND ISZERO ISZERO PUSH2 0x100 DUP5 ADD MSTORE DUP2 DUP2 PUSH1 0x8 SHR AND ISZERO ISZERO PUSH2 0x120 DUP5 ADD MSTORE PUSH1 0x10 SHR AND ISZERO ISZERO PUSH2 0x140 DUP3 ADD MSTORE PUSH1 0x40 MLOAD SWAP2 DUP3 SWAP2 PUSH1 0x20 DUP4 MSTORE PUSH1 0x20 DUP4 ADD SWAP1 PUSH2 0x1B70 JUMP JUMPDEST CALLVALUE PUSH2 0x121 JUMPI PUSH1 0x20 DUP1 PUSH1 0x3 NOT CALLDATASIZE ADD SLT PUSH2 0x121 JUMPI PUSH1 0x4 CALLDATALOAD PUSH2 0xFD7 PUSH1 0x4 SLOAD DUP3 LT PUSH2 0x1CCB JUMP JUMPDEST PUSH0 MSTORE PUSH1 0x1 SWAP1 PUSH1 0x1 DUP2 MSTORE PUSH1 0x40 PUSH0 KECCAK256 SWAP2 DUP3 SLOAD SWAP2 PUSH2 0xFF1 DUP4 PUSH2 0x1DD4 JUMP JUMPDEST SWAP3 PUSH2 0xFFF PUSH1 0x40 MLOAD SWAP5 DUP6 PUSH2 0x19D9 JUMP JUMPDEST DUP1 DUP5 MSTORE DUP2 DUP5 ADD DUP1 SWAP6 PUSH0 MSTORE DUP3 PUSH0 KECCAK256 PUSH0 SWAP2 JUMPDEST DUP4 DUP4 LT PUSH2 0x1086 JUMPI POP POP POP POP PUSH1 0x40 MLOAD SWAP3 DUP2 DUP5 ADD SWAP1 DUP3 DUP6 MSTORE MLOAD DUP1 SWAP2 MSTORE PUSH1 0x40 DUP5 ADD SWAP5 SWAP2 PUSH0 JUMPDEST DUP3 DUP2 LT PUSH2 0x103E JUMPI DUP6 DUP8 SUB DUP7 RETURN JUMPDEST DUP4 MLOAD DUP1 MLOAD DUP9 MSTORE DUP3 DUP2 ADD MLOAD PUSH1 0x1 PUSH1 0x1 PUSH1 0xA0 SHL SUB AND DUP4 DUP10 ADD MSTORE PUSH1 0x40 DUP1 DUP3 ADD MLOAD SWAP1 DUP10 ADD MSTORE PUSH1 0x60 DUP1 DUP3 ADD MLOAD SWAP1 DUP10 ADD MSTORE PUSH1 0x80 SWAP1 DUP2 ADD MLOAD ISZERO ISZERO SWAP1 DUP9 ADD MSTORE PUSH1 0xA0 SWAP1 SWAP7 ADD SWAP6 SWAP3 DUP2 ADD SWAP3 DUP5 ADD PUSH2 0x1031 JUMP JUMPDEST SWAP5 PUSH1 0x5 DUP6 DUP3 SWAP10 SWAP8 PUSH1 0x40 SWAP10 SWAP8 SWAP10 MLOAD PUSH2 0x109C DUP2 PUSH2 0x19BD JUMP JUMPDEST DUP6 SLOAD DUP2 MSTORE PUSH1 0x1 PUSH1 0x1 PUSH1 0xA0 SHL SUB DUP6 DUP8 ADD SLOAD AND DUP4 DUP3 ADD MSTORE PUSH1 0x2 DUP7 ADD SLOAD PUSH1 0x40 DUP3 ADD MSTORE PUSH1 0x3 DUP7 ADD SLOAD PUSH1 0x60 DUP3 ADD MSTORE PUSH1 0xFF PUSH1 0x4 DUP8 ADD SLOAD AND ISZERO ISZERO PUSH1 0x80 DUP3 ADD MSTORE DUP2 MSTORE ADD SWAP3 ADD SWAP3 ADD SWAP2 SWAP1 SWAP7 SWAP5 SWAP7 SWAP6 SWAP4 SWAP6 PUSH2 0x100F JUMP JUMPDEST CALLVALUE PUSH2 0x121 JUMPI PUSH1 0x40 CALLDATASIZE PUSH1 0x3 NOT ADD SLT PUSH2 0x121 JUMPI PUSH2 0x1101 PUSH2 0x1ADB JUMP JUMPDEST PUSH1 0x1 PUSH1 0x1 PUSH1 0xA0 SHL SUB PUSH1 0x24 CALLDATALOAD SWAP2 AND PUSH0 MSTORE PUSH1 0x3 PUSH1 0x20 MSTORE PUSH1 0x40 PUSH0 KECCAK256 DUP1 SLOAD DUP3 LT ISZERO PUSH2 0x121 JUMPI PUSH1 0x20 SWAP2 PUSH2 0x112E SWAP2 PUSH2 0x1AF1 JUMP JUMPDEST SWAP1 SLOAD SWAP1 PUSH1 0x3 SHL SHR PUSH1 0x40 MLOAD SWAP1 DUP2 MSTORE RETURN JUMPDEST CALLVALUE PUSH2 0x121 JUMPI PUSH1 0x20 DUP1 PUSH1 0x3 NOT CALLDATASIZE ADD SLT PUSH2 0x121 JUMPI PUSH1 0x4 CALLDATALOAD PUSH8 0xFFFFFFFFFFFFFFFF DUP2 GT PUSH2 0x121 JUMPI PUSH2 0x116F SWAP1 CALLDATASIZE SWAP1 PUSH1 0x4 ADD PUSH2 0x1B1A JUMP JUMPDEST PUSH0 SWAP1 PUSH0 SWAP4 PUSH1 0x4 SLOAD SWAP3 DUP5 DUP4 ADD SWAP6 JUMPDEST DUP5 DUP2 LT PUSH2 0x136E JUMPI POP PUSH2 0x118D SWAP1 PUSH2 0x1E3F JUMP JUMPDEST SWAP4 PUSH0 SWAP2 PUSH0 JUMPDEST DUP6 DUP2 LT PUSH2 0x11A7 JUMPI PUSH1 0x40 MLOAD DUP1 PUSH2 0x51D DUP10 DUP3 PUSH2 0x1C14 JUMP JUMPDEST DUP1 PUSH0 MSTORE PUSH0 DUP4 MSTORE PUSH1 0x4 PUSH1 0x40 PUSH0 KECCAK256 ADD PUSH1 0x40 MLOAD SWAP1 PUSH0 SWAP2 DUP2 SLOAD SWAP3 DUP2 PUSH2 0x11C7 DUP6 PUSH2 0x1968 JUMP JUMPDEST SWAP2 DUP3 DUP3 MSTORE DUP9 DUP3 ADD SWAP5 PUSH1 0x1 SWAP7 DUP11 DUP9 DUP3 AND SWAP2 DUP3 PUSH0 EQ PUSH2 0x1350 JUMPI POP POP PUSH1 0x1 EQ PUSH2 0x1310 JUMPI JUMPDEST POP PUSH2 0x11F5 SWAP3 POP SUB DUP3 PUSH2 0x19D9 JUMP JUMPDEST MLOAD SWAP1 KECCAK256 DUP7 MLOAD DUP11 KECCAK256 EQ DUP1 PUSH2 0x12F9 JUMPI JUMPDEST DUP1 PUSH2 0x12E3 JUMPI JUMPDEST PUSH2 0x1217 JUMPI JUMPDEST POP PUSH1 0x1 ADD PUSH2 0x1192 JUMP JUMPDEST DUP2 SWAP5 PUSH2 0x12DC SWAP2 PUSH1 0x1 SWAP4 PUSH0 MSTORE PUSH0 DUP7 MSTORE PUSH1 0x40 PUSH0 KECCAK256 PUSH1 0x1 PUSH1 0x1 PUSH1 0xA0 SHL SUB PUSH1 0x40 MLOAD SWAP3 PUSH2 0x123E DUP5 PUSH2 0x19A0 JUMP JUMPDEST DUP3 SLOAD DUP5 MSTORE DUP3 ADD SLOAD AND DUP8 DUP4 ADD MSTORE PUSH2 0x1256 PUSH1 0x2 DUP3 ADD PUSH2 0x19FB JUMP JUMPDEST PUSH1 0x40 DUP4 ADD MSTORE PUSH2 0x1267 PUSH1 0x3 DUP3 ADD PUSH2 0x19FB JUMP JUMPDEST PUSH1 0x60 DUP4 ADD MSTORE PUSH2 0x1278 PUSH1 0x4 DUP3 ADD PUSH2 0x19FB JUMP JUMPDEST PUSH1 0x80 DUP4 ADD MSTORE PUSH1 0x5 DUP2 ADD SLOAD PUSH1 0xA0 DUP4 ADD MSTORE PUSH1 0x6 DUP2 ADD SLOAD PUSH1 0xC0 DUP4 ADD MSTORE PUSH1 0x7 DUP2 ADD SLOAD DUP7 DUP4 ADD MSTORE PUSH1 0x8 SWAP1 DUP2 ADD SLOAD PUSH1 0xFF DUP1 DUP3 AND ISZERO ISZERO PUSH2 0x100 DUP6 ADD MSTORE SWAP2 DUP2 SWAP1 SHR DUP3 AND ISZERO ISZERO PUSH2 0x120 DUP5 ADD MSTORE PUSH1 0x10 SHR AND ISZERO ISZERO PUSH2 0x140 DUP3 ADD MSTORE PUSH2 0x12D1 DUP3 DUP12 PUSH2 0x1E8E JUMP JUMPDEST MSTORE PUSH2 0xE61 DUP2 DUP11 PUSH2 0x1E8E JUMP JUMPDEST SWAP4 SWAP1 PUSH2 0x120E JUMP JUMPDEST POP DUP2 PUSH0 MSTORE PUSH0 DUP5 MSTORE PUSH1 0x7 PUSH1 0x40 PUSH0 KECCAK256 ADD SLOAD TIMESTAMP LT PUSH2 0x1209 JUMP JUMPDEST POP DUP2 PUSH0 MSTORE PUSH0 DUP5 MSTORE PUSH1 0xFF PUSH1 0x8 PUSH1 0x40 PUSH0 KECCAK256 ADD SLOAD AND PUSH2 0x1203 JUMP JUMPDEST SWAP2 POP POP PUSH0 MSTORE DUP2 DUP8 DUP1 PUSH0 KECCAK256 SWAP3 DUP7 PUSH0 SWAP5 JUMPDEST DUP3 DUP7 LT PUSH2 0x1336 JUMPI POP POP POP PUSH2 0x11F5 SWAP3 DUP3 ADD ADD DUP15 PUSH2 0x11E8 JUMP JUMPDEST DUP1 SWAP2 SWAP3 SWAP5 POP SLOAD DUP4 DUP7 DUP9 ADD ADD MSTORE ADD SWAP3 ADD SWAP2 DUP4 SWAP2 DUP7 DUP11 SWAP3 PUSH2 0x131F JUMP JUMPDEST SWAP2 POP SWAP3 POP PUSH2 0x11F5 SWAP5 SWAP2 POP PUSH1 0xFF NOT AND DUP7 MSTORE ISZERO ISZERO PUSH1 0x5 SHL DUP3 ADD ADD DUP15 PUSH2 0x11E8 JUMP JUMPDEST DUP1 PUSH0 MSTORE PUSH0 DUP7 MSTORE PUSH1 0x4 PUSH1 0x40 PUSH0 KECCAK256 ADD PUSH1 0x40 MLOAD PUSH0 DUP2 DUP4 SLOAD SWAP2 PUSH2 0x138C DUP4 PUSH2 0x1968 JUMP JUMPDEST DUP1 DUP4 MSTORE DUP12 DUP4 ADD SWAP6 PUSH1 0x1 SWAP5 DUP14 DUP7 DUP3 AND SWAP2 DUP3 PUSH0 EQ PUSH2 0x1459 JUMPI POP POP PUSH1 0x1 EQ PUSH2 0x141C JUMPI JUMPDEST POP POP PUSH2 0x13BA SWAP3 POP SUB DUP3 PUSH2 0x19D9 JUMP JUMPDEST MLOAD SWAP1 KECCAK256 DUP5 MLOAD DUP9 KECCAK256 EQ DUP1 PUSH2 0x1405 JUMPI JUMPDEST DUP1 PUSH2 0x13EF JUMPI JUMPDEST PUSH2 0x13DB JUMPI JUMPDEST PUSH1 0x1 ADD PUSH2 0x117C JUMP JUMPDEST SWAP1 PUSH2 0x13E7 PUSH1 0x1 SWAP2 PUSH2 0x1DC6 JUMP JUMPDEST SWAP2 SWAP1 POP PUSH2 0x13D3 JUMP JUMPDEST POP DUP1 PUSH0 MSTORE PUSH0 DUP7 MSTORE PUSH1 0x7 PUSH1 0x40 PUSH0 KECCAK256 ADD SLOAD TIMESTAMP LT PUSH2 0x13CE JUMP JUMPDEST POP DUP1 PUSH0 MSTORE PUSH0 DUP7 MSTORE PUSH1 0xFF PUSH1 0x8 PUSH1 0x40 PUSH0 KECCAK256 ADD SLOAD AND PUSH2 0x13C8 JUMP JUMPDEST DUP13 SWAP3 POP PUSH0 MSTORE DUP2 PUSH0 KECCAK256 SWAP4 PUSH0 SWAP5 JUMPDEST DUP3 DUP7 LT PUSH2 0x1440 JUMPI POP POP POP PUSH2 0x13BA SWAP3 DUP3 ADD ADD DUP13 DUP1 PUSH2 0x13AC JUMP JUMPDEST DUP1 SLOAD DUP7 DUP9 ADD DUP6 ADD MSTORE SWAP3 SWAP1 SWAP5 ADD SWAP4 DUP6 SWAP4 POP DUP13 SWAP3 DUP2 ADD PUSH2 0x1428 JUMP JUMPDEST SWAP3 POP SWAP4 POP POP PUSH2 0x13BA SWAP5 POP PUSH1 0xFF NOT AND DUP7 MSTORE ISZERO ISZERO PUSH1 0x5 SHL DUP3 ADD ADD DUP13 DUP1 PUSH2 0x13AC JUMP JUMPDEST CALLVALUE PUSH2 0x121 JUMPI PUSH1 0x20 DUP1 PUSH1 0x3 NOT CALLDATASIZE ADD SLT PUSH2 0x121 JUMPI PUSH1 0x4 CALLDATALOAD PUSH2 0x149A PUSH1 0x4 SLOAD DUP3 LT PUSH2 0x1CCB JUMP JUMPDEST DUP1 PUSH0 MSTORE PUSH0 DUP3 MSTORE PUSH1 0x40 PUSH0 KECCAK256 SWAP2 PUSH1 0x7 DUP4 ADD SLOAD TIMESTAMP LT PUSH2 0x1632 JUMPI PUSH1 0x8 DUP4 ADD SLOAD PUSH1 0xFF DUP2 PUSH1 0x8 SHR AND PUSH2 0x15EE JUMPI PUSH1 0xFF PUSH2 0x14D0 SWAP2 PUSH1 0x10 SHR AND ISZERO PUSH2 0x1D61 JUMP JUMPDEST PUSH0 SWAP3 DUP3 PUSH0 MSTORE PUSH1 0x1 DUP1 DUP4 MSTORE DUP1 PUSH1 0x40 PUSH0 KECCAK256 PUSH0 SWAP2 JUMPDEST PUSH2 0x1589 JUMPI JUMPDEST POP POP POP DUP4 ISZERO PUSH2 0x1545 JUMPI PUSH1 0x6 ADD PUSH2 0x14FE DUP5 DUP3 SLOAD PUSH2 0x1DAC JUMP JUMPDEST SWAP1 SSTORE PUSH0 DUP1 DUP1 DUP1 DUP7 CALLER DUP3 CALL ISZERO PUSH2 0x153A JUMPI PUSH32 0x7A482FDEB6BC9A1376F597068A214A7A39472BB2EFF1B8CAD21BA04F49DDCA1B SWAP1 PUSH1 0x40 MLOAD SWAP4 DUP5 MSTORE CALLER SWAP4 LOG3 STOP JUMPDEST PUSH1 0x40 MLOAD RETURNDATASIZE PUSH0 DUP3 RETURNDATACOPY RETURNDATASIZE SWAP1 REVERT JUMPDEST PUSH1 0x64 DUP3 PUSH1 0x40 MLOAD SWAP1 PUSH3 0x461BCD PUSH1 0xE5 SHL DUP3 MSTORE PUSH1 0x4 DUP3 ADD MSTORE PUSH1 0x16 PUSH1 0x24 DUP3 ADD MSTORE PUSH32 0x4E6F20646F6E6174696F6E7320746F20726566756E6400000000000000000000 PUSH1 0x44 DUP3 ADD MSTORE REVERT JUMPDEST DUP1 SLOAD DUP3 LT ISZERO PUSH2 0x15E9 JUMPI DUP3 DUP3 PUSH2 0x159F DUP3 SWAP5 DUP5 PUSH2 0x1C77 JUMP JUMPDEST POP DUP3 ADD SLOAD PUSH1 0x1 PUSH1 0x1 PUSH1 0xA0 SHL SUB AND CALLER EQ PUSH2 0x15BA JUMPI JUMPDEST ADD SWAP2 PUSH2 0x14E2 JUMP JUMPDEST PUSH0 PUSH2 0x15D6 PUSH2 0x15C8 DUP4 DUP7 PUSH2 0x1C77 JUMP JUMPDEST POP SWAP11 PUSH1 0x2 DUP1 SWAP13 ADD SLOAD SWAP1 PUSH2 0x1DB9 JUMP JUMPDEST SWAP10 PUSH2 0x15E1 DUP4 DUP7 PUSH2 0x1C77 JUMP JUMPDEST POP ADD SSTORE PUSH2 0x15B3 JUMP JUMPDEST PUSH2 0x14E7 JUMP JUMPDEST PUSH1 0x64 DUP3 PUSH1 0x40 MLOAD SWAP1 PUSH3 0x461BCD PUSH1 0xE5 SHL DUP3 MSTORE PUSH1 0x4 DUP3 ADD MSTORE PUSH1 0x10 PUSH1 0x24 DUP3 ADD MSTORE PUSH32 0x476F616C20776173207265616368656400000000000000000000000000000000 PUSH1 0x44 DUP3 ADD MSTORE REVERT JUMPDEST PUSH1 0x64 SWAP1 PUSH1 0x40 MLOAD SWAP1 PUSH3 0x461BCD PUSH1 0xE5 SHL DUP3 MSTORE PUSH1 0x4 DUP3 ADD MSTORE PUSH1 0x15 PUSH1 0x24 DUP3 ADD MSTORE PUSH32 0x43616D706169676E207374696C6C206163746976650000000000000000000000 PUSH1 0x44 DUP3 ADD MSTORE REVERT JUMPDEST CALLVALUE PUSH2 0x121 JUMPI PUSH0 CALLDATASIZE PUSH1 0x3 NOT ADD SLT PUSH2 0x121 JUMPI PUSH1 0x20 PUSH1 0x7 SLOAD PUSH1 0x40 MLOAD SWAP1 DUP2 MSTORE RETURN JUMPDEST CALLVALUE PUSH2 0x121 JUMPI PUSH1 0x40 CALLDATASIZE PUSH1 0x3 NOT ADD SLT PUSH2 0x121 JUMPI PUSH2 0x16AC PUSH2 0x1ADB JUMP JUMPDEST PUSH1 0x1 PUSH1 0x1 PUSH1 0xA0 SHL SUB PUSH1 0x24 CALLDATALOAD SWAP2 AND PUSH0 MSTORE PUSH1 0x2 PUSH1 0x20 MSTORE PUSH1 0x40 PUSH0 KECCAK256 DUP1 SLOAD DUP3 LT ISZERO PUSH2 0x121 JUMPI PUSH1 0x20 SWAP2 PUSH2 0x16D9 SWAP2 PUSH2 0x1AF1 JUMP JUMPDEST SWAP1 SLOAD PUSH1 0x40 MLOAD SWAP2 PUSH1 0x3 SHL SHR DUP2 MSTORE RETURN JUMPDEST CALLVALUE PUSH2 0x121 JUMPI PUSH1 0x20 DUP1 PUSH1 0x3 NOT CALLDATASIZE ADD SLT PUSH2 0x121 JUMPI PUSH1 0x4 CALLDATALOAD PUSH2 0x1709 PUSH1 0x4 SLOAD DUP3 LT PUSH2 0x1CCB JUMP JUMPDEST DUP1 PUSH0 MSTORE PUSH0 DUP3 MSTORE PUSH2 0x172A PUSH1 0x1 PUSH1 0x1 PUSH1 0xA0 SHL SUB PUSH1 0x1 PUSH1 0x40 PUSH0 KECCAK256 ADD SLOAD AND CALLER EQ PUSH2 0x1D16 JUMP JUMPDEST DUP1 PUSH0 MSTORE PUSH0 DUP3 MSTORE PUSH1 0x40 PUSH0 KECCAK256 PUSH1 0x8 DUP2 ADD DUP1 SLOAD SWAP2 PUSH1 0xFF DUP4 PUSH1 0x8 SHR AND ISZERO PUSH2 0x1820 JUMPI PUSH1 0x6 SWAP1 PUSH2 0x175A PUSH1 0xFF DUP6 PUSH1 0x10 SHR AND ISZERO PUSH2 0x1D61 JUMP JUMPDEST ADD SLOAD SWAP2 DUP3 ISZERO PUSH2 0x17DC JUMPI PUSH3 0xFF00FF NOT AND PUSH3 0x10000 OR SWAP1 SSTORE PUSH1 0x7 SLOAD DUP2 DUP2 MUL SWAP2 SWAP1 DUP2 DUP4 DIV SUB PUSH2 0xB17 JUMPI PUSH2 0x3E8 PUSH2 0x178E SWAP3 DIV SWAP1 PUSH2 0x1DAC JUMP JUMPDEST SWAP2 DUP3 PUSH0 DUP2 ISZERO PUSH2 0x17D3 JUMPI JUMPDEST PUSH0 DUP1 DUP1 SWAP4 DUP2 SWAP4 CALLER SWAP1 CALL ISZERO PUSH2 0x153A JUMPI PUSH32 0xF440AEC6B52895984D061D622E6EDEBA6210F7C3E059BE920663140C084560D7 SWAP1 PUSH1 0x40 MLOAD SWAP4 DUP5 MSTORE CALLER SWAP4 LOG3 STOP JUMPDEST POP PUSH2 0x8FC PUSH2 0x1798 JUMP JUMPDEST PUSH1 0x64 DUP6 PUSH1 0x40 MLOAD SWAP1 PUSH3 0x461BCD PUSH1 0xE5 SHL DUP3 MSTORE PUSH1 0x4 DUP3 ADD MSTORE PUSH1 0x14 PUSH1 0x24 DUP3 ADD MSTORE PUSH32 0x4E6F2066756E647320746F207769746864726177000000000000000000000000 PUSH1 0x44 DUP3 ADD MSTORE REVERT JUMPDEST PUSH1 0x64 DUP6 PUSH1 0x40 MLOAD SWAP1 PUSH3 0x461BCD PUSH1 0xE5 SHL DUP3 MSTORE PUSH1 0x4 DUP3 ADD MSTORE PUSH1 0x10 PUSH1 0x24 DUP3 ADD MSTORE PUSH32 0x476F616C206E6F74207265616368656400000000000000000000000000000000 PUSH1 0x44 DUP3 ADD MSTORE REVERT JUMPDEST CALLVALUE PUSH2 0x121 JUMPI PUSH1 0x20 CALLDATASIZE PUSH1 0x3 NOT ADD SLT PUSH2 0x121 JUMPI PUSH1 0x4 CALLDATALOAD PUSH0 MSTORE PUSH0 PUSH1 0x20 MSTORE PUSH1 0x40 DUP1 PUSH0 KECCAK256 SWAP2 PUSH1 0xFF DUP4 SLOAD SWAP4 PUSH1 0x1 PUSH1 0x1 PUSH1 0xA0 SHL SUB PUSH1 0x1 DUP3 ADD SLOAD AND SWAP1 PUSH2 0x18A4 PUSH1 0x2 DUP3 ADD PUSH2 0x19FB JUMP JUMPDEST SWAP4 PUSH2 0x18B1 PUSH1 0x3 DUP4 ADD PUSH2 0x19FB JUMP JUMPDEST SWAP5 PUSH2 0x1917 PUSH2 0x18C1 PUSH1 0x4 DUP6 ADD PUSH2 0x19FB JUMP JUMPDEST PUSH2 0x1909 PUSH1 0x5 DUP7 ADD SLOAD SWAP9 PUSH2 0x18FB PUSH1 0x6 DUP9 ADD SLOAD SWAP6 PUSH1 0x8 PUSH1 0x7 DUP11 ADD SLOAD SWAP10 ADD SLOAD SWAP10 DUP14 MLOAD SWAP15 DUP16 SWAP15 DUP16 PUSH2 0x160 SWAP4 DUP5 SWAP4 DUP3 MSTORE PUSH1 0x20 DUP3 ADD MSTORE ADD MSTORE DUP14 ADD SWAP1 PUSH2 0x1A9D JUMP JUMPDEST SWAP1 DUP12 DUP3 SUB PUSH1 0x60 DUP14 ADD MSTORE PUSH2 0x1A9D JUMP JUMPDEST SWAP1 DUP10 DUP3 SUB PUSH1 0x80 DUP12 ADD MSTORE PUSH2 0x1A9D JUMP JUMPDEST SWAP6 PUSH1 0xA0 DUP9 ADD MSTORE PUSH1 0xC0 DUP8 ADD MSTORE DUP6 ADD MSTORE DUP2 DUP2 AND ISZERO ISZERO PUSH2 0x100 DUP6 ADD MSTORE DUP2 DUP2 PUSH1 0x8 SHR AND ISZERO ISZERO PUSH2 0x120 DUP6 ADD MSTORE PUSH1 0x10 SHR AND ISZERO ISZERO PUSH2 0x140 DUP4 ADD MSTORE SUB SWAP1 RETURN JUMPDEST CALLVALUE PUSH2 0x121 JUMPI PUSH0 CALLDATASIZE PUSH1 0x3 NOT ADD SLT PUSH2 0x121 JUMPI PUSH1 0x20 SWAP1 PUSH1 0x5 SLOAD DUP2 MSTORE RETURN JUMPDEST SWAP1 PUSH1 0x1 DUP3 DUP2 SHR SWAP3 AND DUP1 ISZERO PUSH2 0x1996 JUMPI JUMPDEST PUSH1 0x20 DUP4 LT EQ PUSH2 0x1982 JUMPI JUMP JUMPDEST PUSH4 0x4E487B71 PUSH1 0xE0 SHL PUSH0 MSTORE PUSH1 0x22 PUSH1 0x4 MSTORE PUSH1 0x24 PUSH0 REVERT JUMPDEST SWAP2 PUSH1 0x7F AND SWAP2 PUSH2 0x1977 JUMP JUMPDEST PUSH2 0x160 DUP2 ADD SWAP1 DUP2 LT PUSH8 0xFFFFFFFFFFFFFFFF DUP3 GT OR PUSH2 0x971 JUMPI PUSH1 0x40 MSTORE JUMP JUMPDEST PUSH1 0xA0 DUP2 ADD SWAP1 DUP2 LT PUSH8 0xFFFFFFFFFFFFFFFF DUP3 GT OR PUSH2 0x971 JUMPI PUSH1 0x40 MSTORE JUMP JUMPDEST SWAP1 PUSH1 0x1F DUP1 NOT SWAP2 ADD AND DUP2 ADD SWAP1 DUP2 LT PUSH8 0xFFFFFFFFFFFFFFFF DUP3 GT OR PUSH2 0x971 JUMPI PUSH1 0x40 MSTORE JUMP JUMPDEST SWAP1 PUSH1 0x40 MLOAD SWAP2 DUP3 PUSH0 DUP3 SLOAD PUSH2 0x1A0D DUP2 PUSH2 0x1968 JUMP JUMPDEST SWAP1 DUP2 DUP5 MSTORE PUSH1 0x20 SWAP5 PUSH1 0x1 SWAP2 PUSH1 0x1 DUP2 AND SWAP1 DUP2 PUSH0 EQ PUSH2 0x1A7B JUMPI POP PUSH1 0x1 EQ PUSH2 0x1A3D JUMPI JUMPDEST POP POP POP PUSH2 0x1A3B SWAP3 POP SUB DUP4 PUSH2 0x19D9 JUMP JUMPDEST JUMP JUMPDEST PUSH0 SWAP1 DUP2 MSTORE DUP6 DUP2 KECCAK256 SWAP6 SWAP4 POP SWAP2 SWAP1 JUMPDEST DUP2 DUP4 LT PUSH2 0x1A63 JUMPI POP POP PUSH2 0x1A3B SWAP4 POP DUP3 ADD ADD PUSH0 DUP1 DUP1 PUSH2 0x1A2C JUMP JUMPDEST DUP6 SLOAD DUP9 DUP5 ADD DUP6 ADD MSTORE SWAP5 DUP6 ADD SWAP5 DUP8 SWAP5 POP SWAP2 DUP4 ADD SWAP2 PUSH2 0x1A4A JUMP JUMPDEST SWAP3 POP POP POP PUSH2 0x1A3B SWAP5 SWAP3 POP PUSH1 0xFF NOT AND DUP3 DUP5 ADD MSTORE ISZERO ISZERO PUSH1 0x5 SHL DUP3 ADD ADD PUSH0 DUP1 DUP1 PUSH2 0x1A2C JUMP JUMPDEST SWAP2 SWAP1 DUP3 MLOAD SWAP3 DUP4 DUP3 MSTORE PUSH0 JUMPDEST DUP5 DUP2 LT PUSH2 0x1AC7 JUMPI POP POP DUP3 PUSH0 PUSH1 0x20 DUP1 SWAP5 SWAP6 DUP5 ADD ADD MSTORE PUSH1 0x1F DUP1 NOT SWAP2 ADD AND ADD ADD SWAP1 JUMP JUMPDEST PUSH1 0x20 DUP2 DUP4 ADD DUP2 ADD MLOAD DUP5 DUP4 ADD DUP3 ADD MSTORE ADD PUSH2 0x1AA7 JUMP JUMPDEST PUSH1 0x4 CALLDATALOAD SWAP1 PUSH1 0x1 PUSH1 0x1 PUSH1 0xA0 SHL SUB DUP3 AND DUP3 SUB PUSH2 0x121 JUMPI JUMP JUMPDEST DUP1 SLOAD DUP3 LT ISZERO PUSH2 0x1B06 JUMPI PUSH0 MSTORE PUSH1 0x20 PUSH0 KECCAK256 ADD SWAP1 PUSH0 SWAP1 JUMP JUMPDEST PUSH4 0x4E487B71 PUSH1 0xE0 SHL PUSH0 MSTORE PUSH1 0x32 PUSH1 0x4 MSTORE PUSH1 0x24 PUSH0 REVERT JUMPDEST DUP2 PUSH1 0x1F DUP3 ADD SLT ISZERO PUSH2 0x121 JUMPI DUP1 CALLDATALOAD SWAP1 PUSH8 0xFFFFFFFFFFFFFFFF DUP3 GT PUSH2 0x971 JUMPI PUSH1 0x40 MLOAD SWAP3 PUSH2 0x1B4F PUSH1 0x1F DUP5 ADD PUSH1 0x1F NOT AND PUSH1 0x20 ADD DUP6 PUSH2 0x19D9 JUMP JUMPDEST DUP3 DUP5 MSTORE PUSH1 0x20 DUP4 DUP4 ADD ADD GT PUSH2 0x121 JUMPI DUP2 PUSH0 SWAP3 PUSH1 0x20 DUP1 SWAP4 ADD DUP4 DUP7 ADD CALLDATACOPY DUP4 ADD ADD MSTORE SWAP1 JUMP JUMPDEST SWAP1 PUSH2 0x1BCC PUSH2 0x1BBA PUSH2 0x1BA8 PUSH2 0x160 DUP6 MLOAD DUP6 MSTORE PUSH1 0x1 PUSH1 0x1 PUSH1 0xA0 SHL SUB PUSH1 0x20 DUP8 ADD MLOAD AND PUSH1 0x20 DUP7 ADD MSTORE PUSH1 0x40 DUP7 ADD MLOAD SWAP1 DUP1 PUSH1 0x40 DUP8 ADD MSTORE DUP6 ADD SWAP1 PUSH2 0x1A9D JUMP JUMPDEST PUSH1 0x60 DUP6 ADD MLOAD DUP5 DUP3 SUB PUSH1 0x60 DUP7 ADD MSTORE PUSH2 0x1A9D JUMP JUMPDEST PUSH1 0x80 DUP5 ADD MLOAD DUP4 DUP3 SUB PUSH1 0x80 DUP6 ADD MSTORE PUSH2 0x1A9D JUMP JUMPDEST SWAP2 PUSH1 0xA0 DUP2 ADD MLOAD PUSH1 0xA0 DUP4 ADD MSTORE PUSH1 0xC0 DUP2 ADD MLOAD PUSH1 0xC0 DUP4 ADD MSTORE PUSH1 0xE0 DUP2 ADD MLOAD PUSH1 0xE0 DUP4 ADD MSTORE PUSH2 0x100 DUP1 DUP3 ADD MLOAD ISZERO ISZERO SWAP1 DUP4 ADD MSTORE PUSH2 0x120 DUP1 DUP3 ADD MLOAD ISZERO ISZERO SWAP1 DUP4 ADD MSTORE PUSH2 0x140 DUP1 SWAP2 ADD MLOAD ISZERO ISZERO SWAP2 ADD MSTORE SWAP1 JUMP JUMPDEST PUSH1 0x20 DUP1 DUP3 ADD SWAP1 PUSH1 0x20 DUP4 MSTORE DUP4 MLOAD DUP1 SWAP3 MSTORE PUSH1 0x40 DUP4 ADD SWAP3 PUSH1 0x20 PUSH1 0x40 DUP5 PUSH1 0x5 SHL DUP4 ADD ADD SWAP6 ADD SWAP4 PUSH0 SWAP2 JUMPDEST DUP5 DUP4 LT PUSH2 0x1C49 JUMPI POP POP POP POP POP POP SWAP1 JUMP JUMPDEST SWAP1 SWAP2 SWAP3 SWAP4 SWAP5 SWAP6 DUP5 DUP1 PUSH2 0x1C67 PUSH1 0x1 SWAP4 PUSH1 0x3F NOT DUP7 DUP3 SUB ADD DUP8 MSTORE DUP11 MLOAD PUSH2 0x1B70 JUMP JUMPDEST SWAP9 ADD SWAP4 ADD SWAP4 ADD SWAP2 SWAP5 SWAP4 SWAP3 SWAP1 PUSH2 0x1C39 JUMP JUMPDEST DUP1 SLOAD DUP3 LT ISZERO PUSH2 0x1B06 JUMPI PUSH0 MSTORE PUSH1 0x5 PUSH1 0x20 PUSH0 KECCAK256 SWAP2 MUL ADD SWAP1 PUSH0 SWAP1 JUMP JUMPDEST PUSH1 0x20 SWAP1 PUSH1 0x20 PUSH1 0x40 DUP2 DUP4 ADD SWAP3 DUP3 DUP2 MSTORE DUP6 MLOAD DUP1 SWAP5 MSTORE ADD SWAP4 ADD SWAP2 PUSH0 JUMPDEST DUP3 DUP2 LT PUSH2 0x1CB7 JUMPI POP POP POP POP SWAP1 JUMP JUMPDEST DUP4 MLOAD DUP6 MSTORE SWAP4 DUP2 ADD SWAP4 SWAP3 DUP2 ADD SWAP3 PUSH1 0x1 ADD PUSH2 0x1CA9 JUMP JUMPDEST ISZERO PUSH2 0x1CD2 JUMPI JUMP JUMPDEST PUSH1 0x64 PUSH1 0x40 MLOAD PUSH3 0x461BCD PUSH1 0xE5 SHL DUP2 MSTORE PUSH1 0x20 PUSH1 0x4 DUP3 ADD MSTORE PUSH1 0x17 PUSH1 0x24 DUP3 ADD MSTORE PUSH32 0x43616D706169676E20646F6573206E6F74206578697374000000000000000000 PUSH1 0x44 DUP3 ADD MSTORE REVERT JUMPDEST ISZERO PUSH2 0x1D1D JUMPI JUMP JUMPDEST PUSH1 0x64 PUSH1 0x40 MLOAD PUSH3 0x461BCD PUSH1 0xE5 SHL DUP2 MSTORE PUSH1 0x20 PUSH1 0x4 DUP3 ADD MSTORE PUSH1 0x14 PUSH1 0x24 DUP3 ADD MSTORE PUSH32 0x4E6F742063616D706169676E2063726561746F72000000000000000000000000 PUSH1 0x44 DUP3 ADD MSTORE REVERT JUMPDEST ISZERO PUSH2 0x1D68 JUMPI JUMP JUMPDEST PUSH1 0x64 PUSH1 0x40 MLOAD PUSH3 0x461BCD PUSH1 0xE5 SHL DUP2 MSTORE PUSH1 0x20 PUSH1 0x4 DUP3 ADD MSTORE PUSH1 0x17 PUSH1 0x24 DUP3 ADD MSTORE PUSH32 0x46756E647320616C72656164792077697468647261776E000000000000000000 PUSH1 0x44 DUP3 ADD MSTORE REVERT JUMPDEST SWAP2 SWAP1 DUP3 SUB SWAP2 DUP3 GT PUSH2 0xB17 JUMPI JUMP JUMPDEST SWAP2 SWAP1 DUP3 ADD DUP1 SWAP3 GT PUSH2 0xB17 JUMPI JUMP JUMPDEST PUSH0 NOT DUP2 EQ PUSH2 0xB17 JUMPI PUSH1 0x1 ADD SWAP1 JUMP JUMPDEST PUSH8 0xFFFFFFFFFFFFFFFF DUP2 GT PUSH2 0x971 JUMPI PUSH1 0x5 SHL PUSH1 0x20 ADD SWAP1 JUMP JUMPDEST PUSH1 0x40 MLOAD SWAP1 PUSH2 0x1DF9 DUP3 PUSH2 0x19A0 JUMP JUMPDEST PUSH0 PUSH2 0x140 DUP4 DUP3 DUP2 MSTORE DUP3 PUSH1 0x20 DUP3 ADD MSTORE PUSH1 0x60 PUSH1 0x40 DUP3 ADD MSTORE PUSH1 0x60 DUP1 DUP3 ADD MSTORE PUSH1 0x60 PUSH1 0x80 DUP3 ADD MSTORE DUP3 PUSH1 0xA0 DUP3 ADD MSTORE DUP3 PUSH1 0xC0 DUP3 ADD MSTORE DUP3 PUSH1 0xE0 DUP3 ADD MSTORE DUP3 PUSH2 0x100 DUP3 ADD MSTORE DUP3 PUSH2 0x120 DUP3 ADD MSTORE ADD MSTORE JUMP JUMPDEST SWAP1 PUSH2 0x1E49 DUP3 PUSH2 0x1DD4 JUMP JUMPDEST PUSH2 0x1E56 PUSH1 0x40 MLOAD SWAP2 DUP3 PUSH2 0x19D9 JUMP JUMPDEST DUP3 DUP2 MSTORE DUP1 SWAP3 PUSH2 0x1E67 PUSH1 0x1F NOT SWAP2 PUSH2 0x1DD4 JUMP JUMPDEST ADD SWAP1 PUSH0 JUMPDEST DUP3 DUP2 LT PUSH2 0x1E77 JUMPI POP POP POP JUMP JUMPDEST PUSH1 0x20 SWAP1 PUSH2 0x1E82 PUSH2 0x1DEC JUMP JUMPDEST DUP3 DUP3 DUP6 ADD ADD MSTORE ADD PUSH2 0x1E6B JUMP JUMPDEST DUP1 MLOAD DUP3 LT ISZERO PUSH2 0x1B06 JUMPI PUSH1 0x20 SWAP2 PUSH1 0x5 SHL ADD ADD SWAP1 JUMP JUMPDEST DUP1 SLOAD PUSH9 0x10000000000000000 DUP2 LT ISZERO PUSH2 0x971 JUMPI PUSH2 0x1EC4 SWAP2 PUSH1 0x1 DUP3 ADD DUP2 SSTORE PUSH2 0x1AF1 JUMP JUMPDEST DUP2 SWAP3 SWAP2 SLOAD SWAP1 PUSH1 0x3 SHL SWAP2 DUP3 SHL SWAP2 PUSH0 NOT SWAP1 SHL NOT AND OR SWAP1 SSTORE JUMP INVALID LOG2 PUSH5 0x6970667358 0x22 SLT KECCAK256 RETURN KECCAK256 0xD1 0xA6 0xE1 0xAD 0xAF CALLVALUE 0xBF DUP14 MOD DUP1 DUP1 0xDC 0x22 PUSH30 0xFFF477B0AC7773329DE5CF455C46353364736F6C63430008180033000000 "},"methodIdentifiers":{"campaignCounter()":"fca604d7","campaignDonations(uint256,uint256)":"70879ff7","campaigns(uint256)":"141961bc","createCampaign(string,string,string,uint256,uint256)":"980f2e66","donate(uint256,bool)":"ca6a04a5","emergencyPause(uint256)":"ad3fbe30","getAllActiveCampaigns()":"5cc3224e","getCampaign(uint256)":"5598f8cc","getCampaignDonations(uint256)":"5167642f","getCampaignsByCategory(string)":"45f5b737","getContractStats()":"dfe6b5d6","getUserCampaigns(address)":"a1e5084c","getUserDonations(address)":"732435b2","platformFee()":"26232a2e","refund(uint256)":"278ecde1","totalCampaigns()":"02932f56","totalDonations()":"de2ed893","userCampaigns(address,uint256)":"19ac74bd","userDonations(address,uint256)":"4933e631","withdrawFunds(uint256)":"155dd5ee"}}}}}