{"contracts/BasicCrowdfunding.sol":{"BasicCrowdfunding":{"abi":[{"anonymous":false,"inputs":[{"indexed":true,"internalType":"uint256","name":"id","type":"uint256"},{"indexed":false,"internalType":"address","name":"creator","type":"address"},{"indexed":false,"internalType":"uint256","name":"goal","type":"uint256"}],"name":"CampaignCreated","type":"event"},{"anonymous":false,"inputs":[{"indexed":true,"internalType":"uint256","name":"id","type":"uint256"},{"indexed":false,"internalType":"address","name":"donor","type":"address"},{"indexed":false,"internalType":"uint256","name":"amount","type":"uint256"}],"name":"DonationMade","type":"event"},{"anonymous":false,"inputs":[{"indexed":true,"internalType":"uint256","name":"id","type":"uint256"},{"indexed":false,"internalType":"uint256","name":"amount","type":"uint256"}],"name":"FundsWithdrawn","type":"event"},{"inputs":[],"name":"PLATFORM_FEE","outputs":[{"internalType":"uint256","name":"","type":"uint256"}],"stateMutability":"view","type":"function"},{"inputs":[],"name":"campaignCounter","outputs":[{"internalType":"uint256","name":"","type":"uint256"}],"stateMutability":"view","type":"function"},{"inputs":[{"internalType":"uint256","name":"","type":"uint256"}],"name":"campaigns","outputs":[{"internalType":"address","name":"creator","type":"address"},{"internalType":"string","name":"title","type":"string"},{"internalType":"uint256","name":"goal","type":"uint256"},{"internalType":"uint256","name":"raised","type":"uint256"},{"internalType":"uint256","name":"deadline","type":"uint256"},{"internalType":"bool","name":"isActive","type":"bool"}],"stateMutability":"view","type":"function"},{"inputs":[{"internalType":"string","name":"_title","type":"string"},{"internalType":"uint256","name":"_goal","type":"uint256"},{"internalType":"uint256","name":"_durationDays","type":"uint256"}],"name":"createCampaign","outputs":[{"internalType":"uint256","name":"","type":"uint256"}],"stateMutability":"nonpayable","type":"function"},{"inputs":[{"internalType":"uint256","name":"_id","type":"uint256"}],"name":"donate","outputs":[],"stateMutability":"payable","type":"function"},{"inputs":[{"internalType":"uint256","name":"","type":"uint256"},{"internalType":"address","name":"","type":"address"}],"name":"donations","outputs":[{"internalType":"uint256","name":"","type":"uint256"}],"stateMutability":"view","type":"function"},{"inputs":[],"name":"getActiveCampaigns","outputs":[{"internalType":"uint256[]","name":"","type":"uint256[]"}],"stateMutability":"view","type":"function"},{"inputs":[{"internalType":"uint256","name":"_id","type":"uint256"}],"name":"getCampaign","outputs":[{"internalType":"address","name":"creator","type":"address"},{"internalType":"string","name":"title","type":"string"},{"internalType":"uint256","name":"goal","type":"uint256"},{"internalType":"uint256","name":"raised","type":"uint256"},{"internalType":"uint256","name":"deadline","type":"uint256"},{"internalType":"bool","name":"isActive","type":"bool"}],"stateMutability":"view","type":"function"},{"inputs":[{"internalType":"uint256","name":"_id","type":"uint256"}],"name":"withdrawFunds","outputs":[],"stateMutability":"nonpayable","type":"function"}],"evm":{"bytecode":{"linkReferences":{},"object":"6080806040523461001657610bec908161001b8239f35b5f80fdfe60806040526004361015610011575f80fd5b5f3560e01c8063141961bc146109a1578063155dd5ee146107f15780633020580b1461042457806334fbc9a1146104095780635598f8cc146103a7578063c362b1561461024f578063ee1554a314610207578063f14faf6f1461009d5763fca604d71461007c575f80fd5b34610099575f366003190112610099576020600254604051908152f35b5f80fd5b6020806003193601126100995760043590815f525f815260405f2060ff600582015416156101c357600481015442101561017f57341561013b576003016100e5348254610b91565b9055815f526001815260405f2090335f525260405f20610106348254610b91565b9055604080513381523460208201527fe555da28bdb778f65d22794d88927ebaeca03f7de9d1b7d39245bc8fb5ca078a9190a2005b6064826040519062461bcd60e51b82526004820152600e60248201527f496e76616c696420616d6f756e740000000000000000000000000000000000006044820152fd5b6064826040519062461bcd60e51b82526004820152600e60248201527f43616d706169676e20656e6465640000000000000000000000000000000000006044820152fd5b6064826040519062461bcd60e51b82526004820152601360248201527f43616d706169676e206e6f7420616374697665000000000000000000000000006044820152fd5b34610099576040366003190112610099576024356001600160a01b038116809103610099576004355f52600160205260405f20905f52602052602060405f2054604051908152f35b34610099575f366003190112610099576002545f805b82811061035d575061028f61027982610b9e565b916102876040519384610a37565b808352610b9e565b6020928383019291601f19013684375f905f5b8181106102ec575050509060405192839281840190828552518091526040840192915f5b8281106102d557505050500390f35b8351855286955093810193928101926001016102c6565b805f525f865260405f209060059160ff8382015416908161034f575b50610318575b60019150016102a2565b61032184610b83565b93855181101561033b578782916001941b8701015261030e565b634e487b7160e01b5f52603260045260245ffd5b600491500154421088610308565b805f525f60205260405f2060ff6005820154169081610399575b50610385575b600101610265565b90610391600191610b83565b91905061037d565b600491500154421084610377565b34610099576020366003190112610099576004355f525f60205260405f206001600160a01b0381541661040560028301549260038101546004820154906103f8600160ff6005860154169401610a6d565b9560405196879687610b0f565b0390f35b34610099575f366003190112610099576020604051600a8152f35b346100995760603660031901126100995760043567ffffffffffffffff808211610099573660238301121561009957816004013590808211610099576024923684848301011161009957604435928435156107ad578315938415806107a2575b1561075e576002549461049686610b83565b6002556201518080830292830414171561074b576104b49042610b91565b906040519360c0850185811082821117610738576040523385525f6020601f1993808a604051986104ec8589601f860116018b610a37565b828a520183890137860101526020850193845260408501908735825260608601925f845260808701948552600160a0880152875f525f60205260405f20956001600160a01b038851167fffffffffffffffffffffffff00000000000000000000000000000000000000008854161787555180519283116107255761057360018801546109ff565b601f81116106dd575b5091889795939160209a9795938b91601f8411600114610645575093600593837f63e3678c8493a16f8ba43ae9e547231762ca04526dac2c388bd2c26d894018519a989461062f9a989460a0985f9261063a575b50508160011b915f199060031b1c19161760018501555b51600284015551600383015551600482015501910151151560ff80198354169116179055604051918291353383602090939291936001600160a01b0360408201951681520152565b0390a2604051908152f35b015190508f806105d0565b839291921691600188015f528c5f20925f5b8181106106c357508461062f9a989460a09894600598947f63e3678c8493a16f8ba43ae9e547231762ca04526dac2c388bd2c26d894018519e9c98600195106106ab575b505050811b0160018501556105e7565b01515f1960f88460031b161c191690558f808061069b565b8284015185558d9c50600190940193928e01928e01610657565b600188015f5260205f20601f850160051c8101916020861061071b575b601f0160051c01905b818110610710575061057c565b5f8155600101610703565b90915081906106fa565b89634e487b7160e01b5f5260416004525ffd5b87634e487b7160e01b5f5260416004525ffd5b85634e487b7160e01b5f5260116004525ffd5b60648660106040519162461bcd60e51b8352602060048401528201527f496e76616c6964206475726174696f6e000000000000000000000000000000006044820152fd5b50605a811115610484565b606485600c6040519162461bcd60e51b8352602060048401528201527f496e76616c696420676f616c00000000000000000000000000000000000000006044820152fd5b34610099576020806003193601126100995760043590815f525f815260405f20906001600160a01b03825416330361095d576003820154916002810154831061091957600501805460ff8116156108d55760ff19169055600a8202828104600a14831517156108c1576103e89004808303928084116108c15783915f91146108b8575b5f80809381933390f1156108ad577fd66662c0ded9e58fd31d5e44944bcfd07ffc15e6927ecc1382e7941cb7bd24c491604051908152a2005b6040513d5f823e3d90fd5b506108fc610874565b634e487b7160e01b5f52601160045260245ffd5b6064836040519062461bcd60e51b82526004820152601160248201527f416c72656164792077697468647261776e0000000000000000000000000000006044820152fd5b6064826040519062461bcd60e51b82526004820152601060248201527f476f616c206e6f742072656163686564000000000000000000000000000000006044820152fd5b6064906040519062461bcd60e51b82526004820152600b60248201527f4e6f742063726561746f720000000000000000000000000000000000000000006044820152fd5b34610099576020366003190112610099576004355f525f60205260405f206001600160a01b038154166104056109d960018401610a6d565b92600281015490600381015460ff60056004840154930154169260405196879687610b0f565b90600182811c92168015610a2d575b6020831014610a1957565b634e487b7160e01b5f52602260045260245ffd5b91607f1691610a0e565b90601f8019910116810190811067ffffffffffffffff821117610a5957604052565b634e487b7160e01b5f52604160045260245ffd5b9060405191825f8254610a7f816109ff565b908184526020946001916001811690815f14610aed5750600114610aaf575b505050610aad92500383610a37565b565b5f90815285812095935091905b818310610ad5575050610aad93508201015f8080610a9e565b85548884018501529485019487945091830191610abc565b92505050610aad94925060ff191682840152151560051b8201015f8080610a9e565b949296959391906001600160a01b03168552602060c060208701528151918260c08801525f5b838110610b6f575050509060e0825f8260a097969589010152601f8019910116860101966040860152606085015260808401521515910152565b81810183015188820160e001528201610b35565b5f1981146108c15760010190565b919082018092116108c157565b67ffffffffffffffff8111610a595760051b6020019056fea264697066735822122008676f66c9c66f18b721f2f8614db98b77c283db773a93e58556f369136f615a64736f6c63430008180033","opcodes":"PUSH1 0x80 DUP1 PUSH1 0x40 MSTORE CALLVALUE PUSH2 0x16 JUMPI PUSH2 0xBEC SWAP1 DUP2 PUSH2 0x1B DUP3 CODECOPY RETURN JUMPDEST PUSH0 DUP1 REVERT INVALID PUSH1 0x80 PUSH1 0x40 MSTORE PUSH1 0x4 CALLDATASIZE LT ISZERO PUSH2 0x11 JUMPI PUSH0 DUP1 REVERT JUMPDEST PUSH0 CALLDATALOAD PUSH1 0xE0 SHR DUP1 PUSH4 0x141961BC EQ PUSH2 0x9A1 JUMPI DUP1 PUSH4 0x155DD5EE EQ PUSH2 0x7F1 JUMPI DUP1 PUSH4 0x3020580B EQ PUSH2 0x424 JUMPI DUP1 PUSH4 0x34FBC9A1 EQ PUSH2 0x409 JUMPI DUP1 PUSH4 0x5598F8CC EQ PUSH2 0x3A7 JUMPI DUP1 PUSH4 0xC362B156 EQ PUSH2 0x24F JUMPI DUP1 PUSH4 0xEE1554A3 EQ PUSH2 0x207 JUMPI DUP1 PUSH4 0xF14FAF6F EQ PUSH2 0x9D JUMPI PUSH4 0xFCA604D7 EQ PUSH2 0x7C JUMPI PUSH0 DUP1 REVERT JUMPDEST CALLVALUE PUSH2 0x99 JUMPI PUSH0 CALLDATASIZE PUSH1 0x3 NOT ADD SLT PUSH2 0x99 JUMPI PUSH1 0x20 PUSH1 0x2 SLOAD PUSH1 0x40 MLOAD SWAP1 DUP2 MSTORE RETURN JUMPDEST PUSH0 DUP1 REVERT JUMPDEST PUSH1 0x20 DUP1 PUSH1 0x3 NOT CALLDATASIZE ADD SLT PUSH2 0x99 JUMPI PUSH1 0x4 CALLDATALOAD SWAP1 DUP2 PUSH0 MSTORE PUSH0 DUP2 MSTORE PUSH1 0x40 PUSH0 KECCAK256 PUSH1 0xFF PUSH1 0x5 DUP3 ADD SLOAD AND ISZERO PUSH2 0x1C3 JUMPI PUSH1 0x4 DUP2 ADD SLOAD TIMESTAMP LT ISZERO PUSH2 0x17F JUMPI CALLVALUE ISZERO PUSH2 0x13B JUMPI PUSH1 0x3 ADD PUSH2 0xE5 CALLVALUE DUP3 SLOAD PUSH2 0xB91 JUMP JUMPDEST SWAP1 SSTORE DUP2 PUSH0 MSTORE PUSH1 0x1 DUP2 MSTORE PUSH1 0x40 PUSH0 KECCAK256 SWAP1 CALLER PUSH0 MSTORE MSTORE PUSH1 0x40 PUSH0 KECCAK256 PUSH2 0x106 CALLVALUE DUP3 SLOAD PUSH2 0xB91 JUMP JUMPDEST SWAP1 SSTORE PUSH1 0x40 DUP1 MLOAD CALLER DUP2 MSTORE CALLVALUE PUSH1 0x20 DUP3 ADD MSTORE PUSH32 0xE555DA28BDB778F65D22794D88927EBAECA03F7DE9D1B7D39245BC8FB5CA078A SWAP2 SWAP1 LOG2 STOP JUMPDEST PUSH1 0x64 DUP3 PUSH1 0x40 MLOAD SWAP1 PUSH3 0x461BCD PUSH1 0xE5 SHL DUP3 MSTORE PUSH1 0x4 DUP3 ADD MSTORE PUSH1 0xE PUSH1 0x24 DUP3 ADD MSTORE PUSH32 0x496E76616C696420616D6F756E74000000000000000000000000000000000000 PUSH1 0x44 DUP3 ADD MSTORE REVERT JUMPDEST PUSH1 0x64 DUP3 PUSH1 0x40 MLOAD SWAP1 PUSH3 0x461BCD PUSH1 0xE5 SHL DUP3 MSTORE PUSH1 0x4 DUP3 ADD MSTORE PUSH1 0xE PUSH1 0x24 DUP3 ADD MSTORE PUSH32 0x43616D706169676E20656E646564000000000000000000000000000000000000 PUSH1 0x44 DUP3 ADD MSTORE REVERT JUMPDEST PUSH1 0x64 DUP3 PUSH1 0x40 MLOAD SWAP1 PUSH3 0x461BCD PUSH1 0xE5 SHL DUP3 MSTORE PUSH1 0x4 DUP3 ADD MSTORE PUSH1 0x13 PUSH1 0x24 DUP3 ADD MSTORE PUSH32 0x43616D706169676E206E6F742061637469766500000000000000000000000000 PUSH1 0x44 DUP3 ADD MSTORE REVERT JUMPDEST CALLVALUE PUSH2 0x99 JUMPI PUSH1 0x40 CALLDATASIZE PUSH1 0x3 NOT ADD SLT PUSH2 0x99 JUMPI PUSH1 0x24 CALLDATALOAD PUSH1 0x1 PUSH1 0x1 PUSH1 0xA0 SHL SUB DUP2 AND DUP1 SWAP2 SUB PUSH2 0x99 JUMPI PUSH1 0x4 CALLDATALOAD PUSH0 MSTORE PUSH1 0x1 PUSH1 0x20 MSTORE PUSH1 0x40 PUSH0 KECCAK256 SWAP1 PUSH0 MSTORE PUSH1 0x20 MSTORE PUSH1 0x20 PUSH1 0x40 PUSH0 KECCAK256 SLOAD PUSH1 0x40 MLOAD SWAP1 DUP2 MSTORE RETURN JUMPDEST CALLVALUE PUSH2 0x99 JUMPI PUSH0 CALLDATASIZE PUSH1 0x3 NOT ADD SLT PUSH2 0x99 JUMPI PUSH1 0x2 SLOAD PUSH0 DUP1 JUMPDEST DUP3 DUP2 LT PUSH2 0x35D JUMPI POP PUSH2 0x28F PUSH2 0x279 DUP3 PUSH2 0xB9E JUMP JUMPDEST SWAP2 PUSH2 0x287 PUSH1 0x40 MLOAD SWAP4 DUP5 PUSH2 0xA37 JUMP JUMPDEST DUP1 DUP4 MSTORE PUSH2 0xB9E JUMP JUMPDEST PUSH1 0x20 SWAP3 DUP4 DUP4 ADD SWAP3 SWAP2 PUSH1 0x1F NOT ADD CALLDATASIZE DUP5 CALLDATACOPY PUSH0 SWAP1 PUSH0 JUMPDEST DUP2 DUP2 LT PUSH2 0x2EC JUMPI POP POP POP SWAP1 PUSH1 0x40 MLOAD SWAP3 DUP4 SWAP3 DUP2 DUP5 ADD SWAP1 DUP3 DUP6 MSTORE MLOAD DUP1 SWAP2 MSTORE PUSH1 0x40 DUP5 ADD SWAP3 SWAP2 PUSH0 JUMPDEST DUP3 DUP2 LT PUSH2 0x2D5 JUMPI POP POP POP POP SUB SWAP1 RETURN JUMPDEST DUP4 MLOAD DUP6 MSTORE DUP7 SWAP6 POP SWAP4 DUP2 ADD SWAP4 SWAP3 DUP2 ADD SWAP3 PUSH1 0x1 ADD PUSH2 0x2C6 JUMP JUMPDEST DUP1 PUSH0 MSTORE PUSH0 DUP7 MSTORE PUSH1 0x40 PUSH0 KECCAK256 SWAP1 PUSH1 0x5 SWAP2 PUSH1 0xFF DUP4 DUP3 ADD SLOAD AND SWAP1 DUP2 PUSH2 0x34F JUMPI JUMPDEST POP PUSH2 0x318 JUMPI JUMPDEST PUSH1 0x1 SWAP2 POP ADD PUSH2 0x2A2 JUMP JUMPDEST PUSH2 0x321 DUP5 PUSH2 0xB83 JUMP JUMPDEST SWAP4 DUP6 MLOAD DUP2 LT ISZERO PUSH2 0x33B JUMPI DUP8 DUP3 SWAP2 PUSH1 0x1 SWAP5 SHL DUP8 ADD ADD MSTORE PUSH2 0x30E JUMP JUMPDEST PUSH4 0x4E487B71 PUSH1 0xE0 SHL PUSH0 MSTORE PUSH1 0x32 PUSH1 0x4 MSTORE PUSH1 0x24 PUSH0 REVERT JUMPDEST PUSH1 0x4 SWAP2 POP ADD SLOAD TIMESTAMP LT DUP9 PUSH2 0x308 JUMP JUMPDEST DUP1 PUSH0 MSTORE PUSH0 PUSH1 0x20 MSTORE PUSH1 0x40 PUSH0 KECCAK256 PUSH1 0xFF PUSH1 0x5 DUP3 ADD SLOAD AND SWAP1 DUP2 PUSH2 0x399 JUMPI JUMPDEST POP PUSH2 0x385 JUMPI JUMPDEST PUSH1 0x1 ADD PUSH2 0x265 JUMP JUMPDEST SWAP1 PUSH2 0x391 PUSH1 0x1 SWAP2 PUSH2 0xB83 JUMP JUMPDEST SWAP2 SWAP1 POP PUSH2 0x37D JUMP JUMPDEST PUSH1 0x4 SWAP2 POP ADD SLOAD TIMESTAMP LT DUP5 PUSH2 0x377 JUMP JUMPDEST CALLVALUE PUSH2 0x99 JUMPI PUSH1 0x20 CALLDATASIZE PUSH1 0x3 NOT ADD SLT PUSH2 0x99 JUMPI PUSH1 0x4 CALLDATALOAD PUSH0 MSTORE PUSH0 PUSH1 0x20 MSTORE PUSH1 0x40 PUSH0 KECCAK256 PUSH1 0x1 PUSH1 0x1 PUSH1 0xA0 SHL SUB DUP2 SLOAD AND PUSH2 0x405 PUSH1 0x2 DUP4 ADD SLOAD SWAP3 PUSH1 0x3 DUP2 ADD SLOAD PUSH1 0x4 DUP3 ADD SLOAD SWAP1 PUSH2 0x3F8 PUSH1 0x1 PUSH1 0xFF PUSH1 0x5 DUP7 ADD SLOAD AND SWAP5 ADD PUSH2 0xA6D JUMP JUMPDEST SWAP6 PUSH1 0x40 MLOAD SWAP7 DUP8 SWAP7 DUP8 PUSH2 0xB0F JUMP JUMPDEST SUB SWAP1 RETURN JUMPDEST CALLVALUE PUSH2 0x99 JUMPI PUSH0 CALLDATASIZE PUSH1 0x3 NOT ADD SLT PUSH2 0x99 JUMPI PUSH1 0x20 PUSH1 0x40 MLOAD PUSH1 0xA DUP2 MSTORE RETURN JUMPDEST CALLVALUE PUSH2 0x99 JUMPI PUSH1 0x60 CALLDATASIZE PUSH1 0x3 NOT ADD SLT PUSH2 0x99 JUMPI PUSH1 0x4 CALLDATALOAD PUSH8 0xFFFFFFFFFFFFFFFF DUP1 DUP3 GT PUSH2 0x99 JUMPI CALLDATASIZE PUSH1 0x23 DUP4 ADD SLT ISZERO PUSH2 0x99 JUMPI DUP2 PUSH1 0x4 ADD CALLDATALOAD SWAP1 DUP1 DUP3 GT PUSH2 0x99 JUMPI PUSH1 0x24 SWAP3 CALLDATASIZE DUP5 DUP5 DUP4 ADD ADD GT PUSH2 0x99 JUMPI PUSH1 0x44 CALLDATALOAD SWAP3 DUP5 CALLDATALOAD ISZERO PUSH2 0x7AD JUMPI DUP4 ISZERO SWAP4 DUP5 ISZERO DUP1 PUSH2 0x7A2 JUMPI JUMPDEST ISZERO PUSH2 0x75E JUMPI PUSH1 0x2 SLOAD SWAP5 PUSH2 0x496 DUP7 PUSH2 0xB83 JUMP JUMPDEST PUSH1 0x2 SSTORE PUSH3 0x15180 DUP1 DUP4 MUL SWAP3 DUP4 DIV EQ OR ISZERO PUSH2 0x74B JUMPI PUSH2 0x4B4 SWAP1 TIMESTAMP PUSH2 0xB91 JUMP JUMPDEST SWAP1 PUSH1 0x40 MLOAD SWAP4 PUSH1 0xC0 DUP6 ADD DUP6 DUP2 LT DUP3 DUP3 GT OR PUSH2 0x738 JUMPI PUSH1 0x40 MSTORE CALLER DUP6 MSTORE PUSH0 PUSH1 0x20 PUSH1 0x1F NOT SWAP4 DUP1 DUP11 PUSH1 0x40 MLOAD SWAP9 PUSH2 0x4EC DUP6 DUP10 PUSH1 0x1F DUP7 ADD AND ADD DUP12 PUSH2 0xA37 JUMP JUMPDEST DUP3 DUP11 MSTORE ADD DUP4 DUP10 ADD CALLDATACOPY DUP7 ADD ADD MSTORE PUSH1 0x20 DUP6 ADD SWAP4 DUP5 MSTORE PUSH1 0x40 DUP6 ADD SWAP1 DUP8 CALLDATALOAD DUP3 MSTORE PUSH1 0x60 DUP7 ADD SWAP3 PUSH0 DUP5 MSTORE PUSH1 0x80 DUP8 ADD SWAP5 DUP6 MSTORE PUSH1 0x1 PUSH1 0xA0 DUP9 ADD MSTORE DUP8 PUSH0 MSTORE PUSH0 PUSH1 0x20 MSTORE PUSH1 0x40 PUSH0 KECCAK256 SWAP6 PUSH1 0x1 PUSH1 0x1 PUSH1 0xA0 SHL SUB DUP9 MLOAD AND PUSH32 0xFFFFFFFFFFFFFFFFFFFFFFFF0000000000000000000000000000000000000000 DUP9 SLOAD AND OR DUP8 SSTORE MLOAD DUP1 MLOAD SWAP3 DUP4 GT PUSH2 0x725 JUMPI PUSH2 0x573 PUSH1 0x1 DUP9 ADD SLOAD PUSH2 0x9FF JUMP JUMPDEST PUSH1 0x1F DUP2 GT PUSH2 0x6DD JUMPI JUMPDEST POP SWAP2 DUP9 SWAP8 SWAP6 SWAP4 SWAP2 PUSH1 0x20 SWAP11 SWAP8 SWAP6 SWAP4 DUP12 SWAP2 PUSH1 0x1F DUP5 GT PUSH1 0x1 EQ PUSH2 0x645 JUMPI POP SWAP4 PUSH1 0x5 SWAP4 DUP4 PUSH32 0x63E3678C8493A16F8BA43AE9E547231762CA04526DAC2C388BD2C26D89401851 SWAP11 SWAP9 SWAP5 PUSH2 0x62F SWAP11 SWAP9 SWAP5 PUSH1 0xA0 SWAP9 PUSH0 SWAP3 PUSH2 0x63A JUMPI JUMPDEST POP POP DUP2 PUSH1 0x1 SHL SWAP2 PUSH0 NOT SWAP1 PUSH1 0x3 SHL SHR NOT AND OR PUSH1 0x1 DUP6 ADD SSTORE JUMPDEST MLOAD PUSH1 0x2 DUP5 ADD SSTORE MLOAD PUSH1 0x3 DUP4 ADD SSTORE MLOAD PUSH1 0x4 DUP3 ADD SSTORE ADD SWAP2 ADD MLOAD ISZERO ISZERO PUSH1 0xFF DUP1 NOT DUP4 SLOAD AND SWAP2 AND OR SWAP1 SSTORE PUSH1 0x40 MLOAD SWAP2 DUP3 SWAP2 CALLDATALOAD CALLER DUP4 PUSH1 0x20 SWAP1 SWAP4 SWAP3 SWAP2 SWAP4 PUSH1 0x1 PUSH1 0x1 PUSH1 0xA0 SHL SUB PUSH1 0x40 DUP3 ADD SWAP6 AND DUP2 MSTORE ADD MSTORE JUMP JUMPDEST SUB SWAP1 LOG2 PUSH1 0x40 MLOAD SWAP1 DUP2 MSTORE RETURN JUMPDEST ADD MLOAD SWAP1 POP DUP16 DUP1 PUSH2 0x5D0 JUMP JUMPDEST DUP4 SWAP3 SWAP2 SWAP3 AND SWAP2 PUSH1 0x1 DUP9 ADD PUSH0 MSTORE DUP13 PUSH0 KECCAK256 SWAP3 PUSH0 JUMPDEST DUP2 DUP2 LT PUSH2 0x6C3 JUMPI POP DUP5 PUSH2 0x62F SWAP11 SWAP9 SWAP5 PUSH1 0xA0 SWAP9 SWAP5 PUSH1 0x5 SWAP9 SWAP5 PUSH32 0x63E3678C8493A16F8BA43AE9E547231762CA04526DAC2C388BD2C26D89401851 SWAP15 SWAP13 SWAP9 PUSH1 0x1 SWAP6 LT PUSH2 0x6AB JUMPI JUMPDEST POP POP POP DUP2 SHL ADD PUSH1 0x1 DUP6 ADD SSTORE PUSH2 0x5E7 JUMP JUMPDEST ADD MLOAD PUSH0 NOT PUSH1 0xF8 DUP5 PUSH1 0x3 SHL AND SHR NOT AND SWAP1 SSTORE DUP16 DUP1 DUP1 PUSH2 0x69B JUMP JUMPDEST DUP3 DUP5 ADD MLOAD DUP6 SSTORE DUP14 SWAP13 POP PUSH1 0x1 SWAP1 SWAP5 ADD SWAP4 SWAP3 DUP15 ADD SWAP3 DUP15 ADD PUSH2 0x657 JUMP JUMPDEST PUSH1 0x1 DUP9 ADD PUSH0 MSTORE PUSH1 0x20 PUSH0 KECCAK256 PUSH1 0x1F DUP6 ADD PUSH1 0x5 SHR DUP2 ADD SWAP2 PUSH1 0x20 DUP7 LT PUSH2 0x71B JUMPI JUMPDEST PUSH1 0x1F ADD PUSH1 0x5 SHR ADD SWAP1 JUMPDEST DUP2 DUP2 LT PUSH2 0x710 JUMPI POP PUSH2 0x57C JUMP JUMPDEST PUSH0 DUP2 SSTORE PUSH1 0x1 ADD PUSH2 0x703 JUMP JUMPDEST SWAP1 SWAP2 POP DUP2 SWAP1 PUSH2 0x6FA JUMP JUMPDEST DUP10 PUSH4 0x4E487B71 PUSH1 0xE0 SHL PUSH0 MSTORE PUSH1 0x41 PUSH1 0x4 MSTORE PUSH0 REVERT JUMPDEST DUP8 PUSH4 0x4E487B71 PUSH1 0xE0 SHL PUSH0 MSTORE PUSH1 0x41 PUSH1 0x4 MSTORE PUSH0 REVERT JUMPDEST DUP6 PUSH4 0x4E487B71 PUSH1 0xE0 SHL PUSH0 MSTORE PUSH1 0x11 PUSH1 0x4 MSTORE PUSH0 REVERT JUMPDEST PUSH1 0x64 DUP7 PUSH1 0x10 PUSH1 0x40 MLOAD SWAP2 PUSH3 0x461BCD PUSH1 0xE5 SHL DUP4 MSTORE PUSH1 0x20 PUSH1 0x4 DUP5 ADD MSTORE DUP3 ADD MSTORE PUSH32 0x496E76616C6964206475726174696F6E00000000000000000000000000000000 PUSH1 0x44 DUP3 ADD MSTORE REVERT JUMPDEST POP PUSH1 0x5A DUP2 GT ISZERO PUSH2 0x484 JUMP JUMPDEST PUSH1 0x64 DUP6 PUSH1 0xC PUSH1 0x40 MLOAD SWAP2 PUSH3 0x461BCD PUSH1 0xE5 SHL DUP4 MSTORE PUSH1 0x20 PUSH1 0x4 DUP5 ADD MSTORE DUP3 ADD MSTORE PUSH32 0x496E76616C696420676F616C0000000000000000000000000000000000000000 PUSH1 0x44 DUP3 ADD MSTORE REVERT JUMPDEST CALLVALUE PUSH2 0x99 JUMPI PUSH1 0x20 DUP1 PUSH1 0x3 NOT CALLDATASIZE ADD SLT PUSH2 0x99 JUMPI PUSH1 0x4 CALLDATALOAD SWAP1 DUP2 PUSH0 MSTORE PUSH0 DUP2 MSTORE PUSH1 0x40 PUSH0 KECCAK256 SWAP1 PUSH1 0x1 PUSH1 0x1 PUSH1 0xA0 SHL SUB DUP3 SLOAD AND CALLER SUB PUSH2 0x95D JUMPI PUSH1 0x3 DUP3 ADD SLOAD SWAP2 PUSH1 0x2 DUP2 ADD SLOAD DUP4 LT PUSH2 0x919 JUMPI PUSH1 0x5 ADD DUP1 SLOAD PUSH1 0xFF DUP2 AND ISZERO PUSH2 0x8D5 JUMPI PUSH1 0xFF NOT AND SWAP1 SSTORE PUSH1 0xA DUP3 MUL DUP3 DUP2 DIV PUSH1 0xA EQ DUP4 ISZERO OR ISZERO PUSH2 0x8C1 JUMPI PUSH2 0x3E8 SWAP1 DIV DUP1 DUP4 SUB SWAP3 DUP1 DUP5 GT PUSH2 0x8C1 JUMPI DUP4 SWAP2 PUSH0 SWAP2 EQ PUSH2 0x8B8 JUMPI JUMPDEST PUSH0 DUP1 DUP1 SWAP4 DUP2 SWAP4 CALLER SWAP1 CALL ISZERO PUSH2 0x8AD JUMPI PUSH32 0xD66662C0DED9E58FD31D5E44944BCFD07FFC15E6927ECC1382E7941CB7BD24C4 SWAP2 PUSH1 0x40 MLOAD SWAP1 DUP2 MSTORE LOG2 STOP JUMPDEST PUSH1 0x40 MLOAD RETURNDATASIZE PUSH0 DUP3 RETURNDATACOPY RETURNDATASIZE SWAP1 REVERT JUMPDEST POP PUSH2 0x8FC PUSH2 0x874 JUMP JUMPDEST PUSH4 0x4E487B71 PUSH1 0xE0 SHL PUSH0 MSTORE PUSH1 0x11 PUSH1 0x4 MSTORE PUSH1 0x24 PUSH0 REVERT JUMPDEST PUSH1 0x64 DUP4 PUSH1 0x40 MLOAD SWAP1 PUSH3 0x461BCD PUSH1 0xE5 SHL DUP3 MSTORE PUSH1 0x4 DUP3 ADD MSTORE PUSH1 0x11 PUSH1 0x24 DUP3 ADD MSTORE PUSH32 0x416C72656164792077697468647261776E000000000000000000000000000000 PUSH1 0x44 DUP3 ADD MSTORE REVERT JUMPDEST PUSH1 0x64 DUP3 PUSH1 0x40 MLOAD SWAP1 PUSH3 0x461BCD PUSH1 0xE5 SHL DUP3 MSTORE PUSH1 0x4 DUP3 ADD MSTORE PUSH1 0x10 PUSH1 0x24 DUP3 ADD MSTORE PUSH32 0x476F616C206E6F74207265616368656400000000000000000000000000000000 PUSH1 0x44 DUP3 ADD MSTORE REVERT JUMPDEST PUSH1 0x64 SWAP1 PUSH1 0x40 MLOAD SWAP1 PUSH3 0x461BCD PUSH1 0xE5 SHL DUP3 MSTORE PUSH1 0x4 DUP3 ADD MSTORE PUSH1 0xB PUSH1 0x24 DUP3 ADD MSTORE PUSH32 0x4E6F742063726561746F72000000000000000000000000000000000000000000 PUSH1 0x44 DUP3 ADD MSTORE REVERT JUMPDEST CALLVALUE PUSH2 0x99 JUMPI PUSH1 0x20 CALLDATASIZE PUSH1 0x3 NOT ADD SLT PUSH2 0x99 JUMPI PUSH1 0x4 CALLDATALOAD PUSH0 MSTORE PUSH0 PUSH1 0x20 MSTORE PUSH1 0x40 PUSH0 KECCAK256 PUSH1 0x1 PUSH1 0x1 PUSH1 0xA0 SHL SUB DUP2 SLOAD AND PUSH2 0x405 PUSH2 0x9D9 PUSH1 0x1 DUP5 ADD PUSH2 0xA6D JUMP JUMPDEST SWAP3 PUSH1 0x2 DUP2 ADD SLOAD SWAP1 PUSH1 0x3 DUP2 ADD SLOAD PUSH1 0xFF PUSH1 0x5 PUSH1 0x4 DUP5 ADD SLOAD SWAP4 ADD SLOAD AND SWAP3 PUSH1 0x40 MLOAD SWAP7 DUP8 SWAP7 DUP8 PUSH2 0xB0F JUMP JUMPDEST SWAP1 PUSH1 0x1 DUP3 DUP2 SHR SWAP3 AND DUP1 ISZERO PUSH2 0xA2D JUMPI JUMPDEST PUSH1 0x20 DUP4 LT EQ PUSH2 0xA19 JUMPI JUMP JUMPDEST PUSH4 0x4E487B71 PUSH1 0xE0 SHL PUSH0 MSTORE PUSH1 0x22 PUSH1 0x4 MSTORE PUSH1 0x24 PUSH0 REVERT JUMPDEST SWAP2 PUSH1 0x7F AND SWAP2 PUSH2 0xA0E JUMP JUMPDEST SWAP1 PUSH1 0x1F DUP1 NOT SWAP2 ADD AND DUP2 ADD SWAP1 DUP2 LT PUSH8 0xFFFFFFFFFFFFFFFF DUP3 GT OR PUSH2 0xA59 JUMPI PUSH1 0x40 MSTORE JUMP JUMPDEST PUSH4 0x4E487B71 PUSH1 0xE0 SHL PUSH0 MSTORE PUSH1 0x41 PUSH1 0x4 MSTORE PUSH1 0x24 PUSH0 REVERT JUMPDEST SWAP1 PUSH1 0x40 MLOAD SWAP2 DUP3 PUSH0 DUP3 SLOAD PUSH2 0xA7F DUP2 PUSH2 0x9FF JUMP JUMPDEST SWAP1 DUP2 DUP5 MSTORE PUSH1 0x20 SWAP5 PUSH1 0x1 SWAP2 PUSH1 0x1 DUP2 AND SWAP1 DUP2 PUSH0 EQ PUSH2 0xAED JUMPI POP PUSH1 0x1 EQ PUSH2 0xAAF JUMPI JUMPDEST POP POP POP PUSH2 0xAAD SWAP3 POP SUB DUP4 PUSH2 0xA37 JUMP JUMPDEST JUMP JUMPDEST PUSH0 SWAP1 DUP2 MSTORE DUP6 DUP2 KECCAK256 SWAP6 SWAP4 POP SWAP2 SWAP1 JUMPDEST DUP2 DUP4 LT PUSH2 0xAD5 JUMPI POP POP PUSH2 0xAAD SWAP4 POP DUP3 ADD ADD PUSH0 DUP1 DUP1 PUSH2 0xA9E JUMP JUMPDEST DUP6 SLOAD DUP9 DUP5 ADD DUP6 ADD MSTORE SWAP5 DUP6 ADD SWAP5 DUP8 SWAP5 POP SWAP2 DUP4 ADD SWAP2 PUSH2 0xABC JUMP JUMPDEST SWAP3 POP POP POP PUSH2 0xAAD SWAP5 SWAP3 POP PUSH1 0xFF NOT AND DUP3 DUP5 ADD MSTORE ISZERO ISZERO PUSH1 0x5 SHL DUP3 ADD ADD PUSH0 DUP1 DUP1 PUSH2 0xA9E JUMP JUMPDEST SWAP5 SWAP3 SWAP7 SWAP6 SWAP4 SWAP2 SWAP1 PUSH1 0x1 PUSH1 0x1 PUSH1 0xA0 SHL SUB AND DUP6 MSTORE PUSH1 0x20 PUSH1 0xC0 PUSH1 0x20 DUP8 ADD MSTORE DUP2 MLOAD SWAP2 DUP3 PUSH1 0xC0 DUP9 ADD MSTORE PUSH0 JUMPDEST DUP4 DUP2 LT PUSH2 0xB6F JUMPI POP POP POP SWAP1 PUSH1 0xE0 DUP3 PUSH0 DUP3 PUSH1 0xA0 SWAP8 SWAP7 SWAP6 DUP10 ADD ADD MSTORE PUSH1 0x1F DUP1 NOT SWAP2 ADD AND DUP7 ADD ADD SWAP7 PUSH1 0x40 DUP7 ADD MSTORE PUSH1 0x60 DUP6 ADD MSTORE PUSH1 0x80 DUP5 ADD MSTORE ISZERO ISZERO SWAP2 ADD MSTORE JUMP JUMPDEST DUP2 DUP2 ADD DUP4 ADD MLOAD DUP9 DUP3 ADD PUSH1 0xE0 ADD MSTORE DUP3 ADD PUSH2 0xB35 JUMP JUMPDEST PUSH0 NOT DUP2 EQ PUSH2 0x8C1 JUMPI PUSH1 0x1 ADD SWAP1 JUMP JUMPDEST SWAP2 SWAP1 DUP3 ADD DUP1 SWAP3 GT PUSH2 0x8C1 JUMPI JUMP JUMPDEST PUSH8 0xFFFFFFFFFFFFFFFF DUP2 GT PUSH2 0xA59 JUMPI PUSH1 0x5 SHL PUSH1 0x20 ADD SWAP1 JUMP INVALID LOG2 PUSH5 0x6970667358 0x22 SLT KECCAK256 ADDMOD PUSH8 0x6F66C9C66F18B721 CALLCODE 0xF8 PUSH2 0x4DB9 DUP12 PUSH24 0xC283DB773A93E58556F369136F615A64736F6C6343000818 STOP CALLER "},"methodIdentifiers":{"PLATFORM_FEE()":"34fbc9a1","campaignCounter()":"fca604d7","campaigns(uint256)":"141961bc","createCampaign(string,uint256,uint256)":"3020580b","donate(uint256)":"f14faf6f","donations(uint256,address)":"ee1554a3","getActiveCampaigns()":"c362b156","getCampaign(uint256)":"5598f8cc","withdrawFunds(uint256)":"155dd5ee"}}}}}