{"contracts/FHEAnonymousCrowdfunding.sol":{"FHEAnonymousCrowdfunding":{"abi":[{"anonymous":false,"inputs":[{"indexed":true,"internalType":"uint256","name":"campaignId","type":"uint256"},{"indexed":true,"internalType":"address","name":"creator","type":"address"},{"indexed":false,"internalType":"string","name":"title","type":"string"},{"indexed":false,"internalType":"uint256","name":"goal","type":"uint256"},{"indexed":false,"internalType":"uint256","name":"deadline","type":"uint256"},{"indexed":false,"internalType":"bool","name":"isAnonymous","type":"bool"}],"name":"CampaignCreated","type":"event"},{"anonymous":false,"inputs":[{"indexed":true,"internalType":"uint256","name":"campaignId","type":"uint256"},{"indexed":true,"internalType":"address","name":"donor","type":"address"},{"indexed":false,"internalType":"uint256","name":"amount","type":"uint256"},{"indexed":false,"internalType":"bool","name":"isAnonymous","type":"bool"}],"name":"DonationMade","type":"event"},{"anonymous":false,"inputs":[{"indexed":true,"internalType":"uint256","name":"campaignId","type":"uint256"},{"indexed":true,"internalType":"address","name":"creator","type":"address"},{"indexed":false,"internalType":"uint256","name":"amount","type":"uint256"}],"name":"FundsWithdrawn","type":"event"},{"anonymous":false,"inputs":[{"indexed":true,"internalType":"uint256","name":"campaignId","type":"uint256"},{"indexed":true,"internalType":"address","name":"donor","type":"address"},{"indexed":false,"internalType":"uint256","name":"amount","type":"uint256"}],"name":"RefundIssued","type":"event"},{"stateMutability":"payable","type":"fallback"},{"inputs":[],"name":"PLATFORM_FEE","outputs":[{"internalType":"uint256","name":"","type":"uint256"}],"stateMutability":"view","type":"function"},{"inputs":[],"name":"campaignCounter","outputs":[{"internalType":"uint256","name":"","type":"uint256"}],"stateMutability":"view","type":"function"},{"inputs":[{"internalType":"uint256","name":"","type":"uint256"},{"internalType":"uint256","name":"","type":"uint256"}],"name":"campaignDonations","outputs":[{"internalType":"uint256","name":"campaignId","type":"uint256"},{"internalType":"address","name":"donor","type":"address"},{"internalType":"uint256","name":"amount","type":"uint256"},{"internalType":"uint256","name":"timestamp","type":"uint256"},{"internalType":"bool","name":"isAnonymous","type":"bool"}],"stateMutability":"view","type":"function"},{"inputs":[{"internalType":"uint256","name":"","type":"uint256"}],"name":"campaigns","outputs":[{"internalType":"uint256","name":"id","type":"uint256"},{"internalType":"address","name":"creator","type":"address"},{"internalType":"string","name":"title","type":"string"},{"internalType":"string","name":"description","type":"string"},{"internalType":"string","name":"category","type":"string"},{"internalType":"uint256","name":"goal","type":"uint256"},{"internalType":"uint256","name":"raised","type":"uint256"},{"internalType":"uint256","name":"deadline","type":"uint256"},{"internalType":"bool","name":"isActive","type":"bool"},{"internalType":"bool","name":"goalReached","type":"bool"},{"internalType":"bool","name":"fundsWithdrawn","type":"bool"},{"internalType":"bool","name":"isAnonymous","type":"bool"}],"stateMutability":"view","type":"function"},{"inputs":[{"internalType":"string","name":"_title","type":"string"},{"internalType":"string","name":"_description","type":"string"},{"internalType":"string","name":"_category","type":"string"},{"internalType":"uint256","name":"_goal","type":"uint256"},{"internalType":"uint256","name":"_durationDays","type":"uint256"},{"internalType":"bool","name":"_isAnonymous","type":"bool"}],"name":"createCampaign","outputs":[{"internalType":"uint256","name":"","type":"uint256"}],"stateMutability":"nonpayable","type":"function"},{"inputs":[{"internalType":"uint256","name":"_campaignId","type":"uint256"},{"internalType":"bool","name":"_isAnonymous","type":"bool"}],"name":"donate","outputs":[],"stateMutability":"payable","type":"function"},{"inputs":[{"internalType":"uint256","name":"_campaignId","type":"uint256"}],"name":"emergencyPause","outputs":[],"stateMutability":"nonpayable","type":"function"},{"inputs":[],"name":"getAllActiveCampaigns","outputs":[{"components":[{"internalType":"uint256","name":"id","type":"uint256"},{"internalType":"address","name":"creator","type":"address"},{"internalType":"string","name":"title","type":"string"},{"internalType":"string","name":"description","type":"string"},{"internalType":"string","name":"category","type":"string"},{"internalType":"uint256","name":"goal","type":"uint256"},{"internalType":"uint256","name":"raised","type":"uint256"},{"internalType":"uint256","name":"deadline","type":"uint256"},{"internalType":"bool","name":"isActive","type":"bool"},{"internalType":"bool","name":"goalReached","type":"bool"},{"internalType":"bool","name":"fundsWithdrawn","type":"bool"},{"internalType":"bool","name":"isAnonymous","type":"bool"}],"internalType":"struct FHEAnonymousCrowdfunding.Campaign[]","name":"","type":"tuple[]"}],"stateMutability":"view","type":"function"},{"inputs":[{"internalType":"uint256","name":"_campaignId","type":"uint256"}],"name":"getAnonymousStats","outputs":[{"internalType":"uint256","name":"anonymousDonations","type":"uint256"},{"internalType":"uint256","name":"publicDonations","type":"uint256"},{"internalType":"uint256","name":"totalDonationCount","type":"uint256"}],"stateMutability":"view","type":"function"},{"inputs":[{"internalType":"uint256","name":"_campaignId","type":"uint256"}],"name":"getCampaign","outputs":[{"components":[{"internalType":"uint256","name":"id","type":"uint256"},{"internalType":"address","name":"creator","type":"address"},{"internalType":"string","name":"title","type":"string"},{"internalType":"string","name":"description","type":"string"},{"internalType":"string","name":"category","type":"string"},{"internalType":"uint256","name":"goal","type":"uint256"},{"internalType":"uint256","name":"raised","type":"uint256"},{"internalType":"uint256","name":"deadline","type":"uint256"},{"internalType":"bool","name":"isActive","type":"bool"},{"internalType":"bool","name":"goalReached","type":"bool"},{"internalType":"bool","name":"fundsWithdrawn","type":"bool"},{"internalType":"bool","name":"isAnonymous","type":"bool"}],"internalType":"struct FHEAnonymousCrowdfunding.Campaign","name":"","type":"tuple"}],"stateMutability":"view","type":"function"},{"inputs":[{"internalType":"uint256","name":"_campaignId","type":"uint256"}],"name":"getCampaignDonations","outputs":[{"components":[{"internalType":"uint256","name":"campaignId","type":"uint256"},{"internalType":"address","name":"donor","type":"address"},{"internalType":"uint256","name":"amount","type":"uint256"},{"internalType":"uint256","name":"timestamp","type":"uint256"},{"internalType":"bool","name":"isAnonymous","type":"bool"}],"internalType":"struct FHEAnonymousCrowdfunding.Donation[]","name":"","type":"tuple[]"}],"stateMutability":"view","type":"function"},{"inputs":[{"internalType":"string","name":"_category","type":"string"}],"name":"getCampaignsByCategory","outputs":[{"components":[{"internalType":"uint256","name":"id","type":"uint256"},{"internalType":"address","name":"creator","type":"address"},{"internalType":"string","name":"title","type":"string"},{"internalType":"string","name":"description","type":"string"},{"internalType":"string","name":"category","type":"string"},{"internalType":"uint256","name":"goal","type":"uint256"},{"internalType":"uint256","name":"raised","type":"uint256"},{"internalType":"uint256","name":"deadline","type":"uint256"},{"internalType":"bool","name":"isActive","type":"bool"},{"internalType":"bool","name":"goalReached","type":"bool"},{"internalType":"bool","name":"fundsWithdrawn","type":"bool"},{"internalType":"bool","name":"isAnonymous","type":"bool"}],"internalType":"struct FHEAnonymousCrowdfunding.Campaign[]","name":"","type":"tuple[]"}],"stateMutability":"view","type":"function"},{"inputs":[],"name":"getContractStats","outputs":[{"internalType":"uint256","name":"_totalCampaigns","type":"uint256"},{"internalType":"uint256","name":"_totalDonations","type":"uint256"},{"internalType":"uint256","name":"_platformFee","type":"uint256"}],"stateMutability":"view","type":"function"},{"inputs":[{"internalType":"address","name":"_user","type":"address"}],"name":"getUserCampaigns","outputs":[{"internalType":"uint256[]","name":"","type":"uint256[]"}],"stateMutability":"view","type":"function"},{"inputs":[{"internalType":"address","name":"_user","type":"address"}],"name":"getUserDonations","outputs":[{"internalType":"uint256[]","name":"","type":"uint256[]"}],"stateMutability":"view","type":"function"},{"inputs":[{"internalType":"uint256","name":"_campaignId","type":"uint256"}],"name":"refund","outputs":[],"stateMutability":"nonpayable","type":"function"},{"inputs":[],"name":"totalCampaigns","outputs":[{"internalType":"uint256","name":"","type":"uint256"}],"stateMutability":"view","type":"function"},{"inputs":[],"name":"totalDonations","outputs":[{"internalType":"uint256","name":"","type":"uint256"}],"stateMutability":"view","type":"function"},{"inputs":[{"internalType":"address","name":"","type":"address"},{"internalType":"uint256","name":"","type":"uint256"}],"name":"userCampaigns","outputs":[{"internalType":"uint256","name":"","type":"uint256"}],"stateMutability":"view","type":"function"},{"inputs":[{"internalType":"address","name":"","type":"address"},{"internalType":"uint256","name":"","type":"uint256"}],"name":"userDonations","outputs":[{"internalType":"uint256","name":"","type":"uint256"}],"stateMutability":"view","type":"function"},{"inputs":[{"internalType":"uint256","name":"_campaignId","type":"uint256"}],"name":"withdrawFunds","outputs":[],"stateMutability":"nonpayable","type":"function"},{"stateMutability":"payable","type":"receive"}],"evm":{"bytecode":{"linkReferences":{},"object":"60808060405234610016576120be908161001b8239f35b5f80fdfe608080604052600436101561001a575b50361561001857005b005b5f3560e01c90816302932f5614611ae757508063141961bc146119ee578063155dd5ee1461187157806319ac74bd1461181d578063278ecde11461160257806334fbc9a1146115e757806345f5b7371461129c5780634933e631146112475780635167642f146111145780635598f8cc1461101b5780635cc3224e14610e7b57806370879ff714610e00578063732435b214610d8a578063a1e5084c14610d04578063ad3fbe3014610ca8578063bc7ba95c14610b82578063ca6a04a5146108ad578063de2ed89314610890578063dfe6b5d614610864578063f7cfb5c31461012e5763fca604d71461010d575f61000f565b3461012a575f36600319011261012a576020600454604051908152f35b5f80fd5b3461012a5760c036600319011261012a5760043567ffffffffffffffff811161012a5761015f903690600401611cb3565b60243567ffffffffffffffff811161012a5761017f903690600401611cb3565b60443567ffffffffffffffff811161012a5761019f903690600401611cb3565b6084359160a435801515810361012a57845115610820578151156107dc57606435156107985783159384158061078c575b1561074857600454946101e286611f6c565b60045562015180808302928304141715610734576102009042611f5f565b926040519261020e84611b39565b8584523360208501528660408501526060840152608083015260643560a08301525f60c08301528260e083015260016101008301525f6101208301525f610140830152801515610160830152835f525f60205260405f209180518355600183016001600160a01b0360208301511673ffffffffffffffffffffffffffffffffffffffff19825416179055604081015180519067ffffffffffffffff82116105945781906102be6002870154611b01565b601f81116106e4575b50602090601f8311600114610679575f9261066e575b50508160011b915f199060031b1c19161760028401555b606081015180519067ffffffffffffffff821161059457819061031a6003870154611b01565b601f811161061e575b50602090601f83116001146105b3575f926105a8575b50508160011b915f199060031b1c19161760038401555b608081015180519067ffffffffffffffff8211610594576103746004860154611b01565b601f8111610550575b5091869391602098938990601f83116001146104bc5791807feeef94c54408b581d52c1a16ce11f234adc47aacf1fcee70dae66951084948689798926008945f926104b1575b50508160011b915f199060031b1c19161760048201555b60a0830151600582015560c0830151600682015560e0830151600782015501906104176101008201511515839060ff801983541691151516179055565b610120810151151590825461ff0063ff00000061016062ff0000610140860151151560101b16940151151560181b169360081b169063ffffff0019161717179055335f526002875261046c8460405f2061204f565b610477600554611f6c565b60055561048f60405192608084526080840190611c36565b94606435888401526040830152151560608201528033940390a3604051908152f35b015190508c806103c3565b600488939298015f528a5f20905f5b601f19841681106105365750916001917feeef94c54408b581d52c1a16ce11f234adc47aacf1fcee70dae669510849486898996008959483601f1981161061051e575b505050811b0160048201556103da565b01515f1960f88460031b161c191690558c808061050e565b818a01518355988c01988b98506001909201918c016104cb565b600486015f5260205f20601f840160051c81016020851061058d575b601f830160051c8201811061058257505061037d565b5f815560010161056c565b508061056c565b634e487b7160e01b5f52604160045260245ffd5b015190508880610339565b600387015f908152602081209350601f198516905b81811061060657509084600195949392106105ee575b505050811b016003840155610350565b01515f1960f88460031b161c191690558880806105de565b929360206001819287860151815501950193016105c8565b909150600386015f5260205f20601f840160051c810160208510610667575b90849392915b601f830160051c82018110610659575050610323565b5f8155859450600101610643565b508061063d565b0151905088806102dd565b600287015f908152602081209350601f198516905b8181106106cc57509084600195949392106106b4575b505050811b0160028401556102f4565b01515f1960f88460031b161c191690558880806106a4565b9293602060018192878601518155019501930161068e565b909150600286015f5260205f20601f840160051c81016020851061072d575b90849392915b601f830160051c8201811061071f5750506102c7565b5f8155859450600101610709565b5080610703565b634e487b7160e01b5f52601160045260245ffd5b606460405162461bcd60e51b815260206004820152601060248201527f496e76616c6964206475726174696f6e000000000000000000000000000000006044820152fd5b5061016d8111156101d0565b606460405162461bcd60e51b815260206004820152601b60248201527f476f616c206d7573742062652067726561746572207468616e203000000000006044820152fd5b606460405162461bcd60e51b815260206004820152601b60248201527f4465736372697074696f6e2063616e6e6f7420626520656d70747900000000006044820152fd5b606460405162461bcd60e51b815260206004820152601560248201527f5469746c652063616e6e6f7420626520656d70747900000000000000000000006044820152fd5b3461012a575f36600319011261012a5760606005546006546040519182526020820152600a6040820152f35b3461012a575f36600319011261012a576020600654604051908152f35b604036600319011261012a5760246004358135801580159081830361012a576108d96004548510611e71565b835f526020925f845260ff600860405f2001541615610b3f57845f525f8452600760405f200154421015610afc573415610ab957845f525f845260405f2060068101610926348254611f5f565b8091556005820154111580610aa7575b610a91575b5015610a8a575f945b60405161095081611b56565b858152848101966001600160a01b03809116978881526040830190348252606084019242845260808501948886528a5f5260018a5260405f2080549068010000000000000000821015610a7757906109ad91600182018155611e1d565b979097610a6657509360409896936004937f665ae3d7b1878285ba5b24aad2297e9585ab3110185e2d75a78f33772084e9b59b999793610a2f975187556001870191511673ffffffffffffffffffffffffffffffffffffffff1982541617905551600285015551600384015551151591019060ff801983541691151516179055565b610a4e575b610a3f600654611f6c565b600655825191348352820152a3005b335f5260038252610a6185845f2061204f565b610a34565b634e487b7160e01b5f525f6004525ffd5b88634e487b7160e01b5f5260416004525ffd5b3394610944565b600801805461ff0019166101001790558661093b565b5060ff600882015460081c1615610936565b606484601f886040519262461bcd60e51b845260048401528201527f446f6e6174696f6e206d7573742062652067726561746572207468616e2030006044820152fd5b606484600e886040519262461bcd60e51b845260048401528201527f43616d706169676e20656e6465640000000000000000000000000000000000006044820152fd5b6064846013886040519262461bcd60e51b845260048401528201527f43616d706169676e206e6f7420616374697665000000000000000000000000006044820152fd5b3461012a5760208060031936011261012a57600435610ba46004548210611e71565b5f526001906001815260405f20908154610bbd81611f7a565b92610bcb6040519485611b72565b8184525f908152828120858486015b85858510610c51575f9150818881855b610c06575b506060945051916040519384528301526040820152f35b938151851015610c4b5785906080610c1e878561203b565b51015115610c3957610c308291611f6c565b955b0190610bea565b9492610c458291611f6c565b93610c32565b93610bef565b600591604051610c6081611b56565b855481526001600160a01b03858701541683820152600286015460408201526003860154606082015260ff600487015416151560808201528152019201920191908690610bda565b3461012a57602036600319011261012a57600435610cc96004548210611e71565b805f525f602052610ceb6001600160a01b03600160405f200154163314611ebc565b5f525f602052600860405f200160ff1981541690555f80f35b3461012a5760208060031936011261012a576001600160a01b03610d26611c74565b165f52600260205260405f20906040519081602084549182815201935f5260205f20915f905b828210610d7357610d6f85610d6381890382611b72565b60405191829182611e36565b0390f35b835486529485019460019384019390910190610d4c565b3461012a5760208060031936011261012a576001600160a01b03610dac611c74565b165f52600360205260405f20906040519081602084549182815201935f5260205f20915f905b828210610de957610d6f85610d6381890382611b72565b835486529485019460019384019390910190610dd2565b3461012a57604036600319011261012a576024356004355f52600160205260405f20805482101561012a5760a091610e3791611e1d565b508054906001600160a01b0360018201541690600281015460ff60046003840154930154169260405194855260208501526040840152606083015215156080820152f35b3461012a575f36600319011261012a576004545f805b828110610fd15750610ea290611fec565b905f805b828110610ebb5760405180610d6f8682611dba565b805f5260205f815260405f206008808201549060ff9283831690818092610fc4575b610ef0575b505050505050600101610ea6565b93838193610fb8979593600760019a9b9860405198610f0e8a611b39565b81548a526001600160a01b038d83015416908a0152610f2f60028201611b94565b60408a0152610f4060038201611b94565b60608a0152610f5160048201611b94565b60808a0152600581015460a08a0152600681015460c08a0152015460e088015215156101008701521c161515610120840152818160101c16151561014084015260181c161515610160820152610fa7828861203b565b52610fb2818761203b565b50611f6c565b91908580808080610ee2565b5060078101544210610edd565b805f525f60205260405f2060ff600882015416908161100d575b50610ff9575b600101610e91565b90611005600191611f6c565b919050610ff1565b600791500154421084610feb565b3461012a57602036600319011261012a57600435611037611f92565b506110456004548210611e71565b5f525f602052610d6f60405f2060ff60086040519261106384611b39565b805484526001600160a01b03600182015416602085015261108660028201611b94565b604085015261109760038201611b94565b60608501526110a860048201611b94565b6080850152600581015460a0850152600681015460c0850152600781015460e085015201548181161515610100840152818160081c161515610120840152818160101c16151561014084015260181c161515610160820152604051918291602083526020830190611d09565b3461012a5760208060031936011261012a576004356111366004548210611e71565b5f526001906001815260405f209182549161115083611f7a565b9261115e6040519485611b72565b80845281840180955f52825f205f915b8383106111e557505050506040519281840190828552518091526040840194915f5b82811061119d5785870386f35b835180518852828101516001600160a01b031683890152604080820151908901526060808201519089015260809081015115159088015260a090960195928101928401611190565b946005858299976040999799516111fb81611b56565b855481526001600160a01b03858701541683820152600286015460408201526003860154606082015260ff6004870154161515608082015281520192019201919096949695939561116e565b3461012a57604036600319011261012a57611260611c74565b6001600160a01b0360243591165f52600360205260405f20805482101561012a5760209161128d91611c8a565b90549060031b1c604051908152f35b3461012a5760208060031936011261012a5760043567ffffffffffffffff811161012a576112ce903690600401611cb3565b905f809160045491818501935b8381106114dd57506112ec90611fec565b925f915f5b8481106113065760405180610d6f8882611dba565b805f525f8252600460405f2001604051905f918154928161132685611b01565b91828252878201946001968988821691825f146114bf57505060011461147f575b5061135492500382611b72565b519020885185201480611468575b80611452575b611376575b506001016112f1565b819461144b916001935f525f855260405f206001600160a01b036040519261139d84611b39565b8254845282015416868301526113b560028201611b94565b60408301526113c660038201611b94565b60608301526113d760048201611b94565b6080830152600581015460a0830152600681015460c0830152600781015460e0830152600880910154809160ff92839182821615156101008701521c161515610120840152818160101c16151561014084015260181c161515610160820152611440828a61203b565b52610fb2818961203b565b939061136d565b50815f525f8352600760405f2001544210611368565b50815f525f835260ff600860405f20015416611362565b9150505f528186805f2092865f945b8286106114a557505050611354928201018d611347565b80919294505483868801015201920191839186899261148e565b60ff1916885261135495151560051b85010192508f91506113479050565b805f525f8352600460405f20016040515f818354916114fb83611b01565b808352888301956001948a86821691825f146115c857505060011461158b575b505061152992500382611b72565b519020865186201480611574575b8061155e575b61154a575b6001016112db565b90611556600191611f6c565b919050611542565b50805f525f8352600760405f200154421061153d565b50805f525f835260ff600860405f20015416611537565b8992505f52815f20935f945b8286106115af57505050611529928201018b8061151b565b8054868801850152929094019385935089928101611597565b9250935050611529945060ff19168652151560051b8201018b8061151b565b3461012a575f36600319011261012a576020604051600a8152f35b3461012a5760208060031936011261012a576004356116246004548210611e71565b805f525f825260405f2091600783015442106117d957600883015460ff8160081c166117955760ff61165a9160101c1615611f07565b5f92825f5260018083528060405f205f915b611713575b50505083156116cf57600601611688848254611f52565b90555f808080863382f1156116c4577f7a482fdeb6bc9a1376f597068a214a7a39472bb2eff1b8cad21ba04f49ddca1b906040519384523393a3005b6040513d5f823e3d90fd5b6064826040519062461bcd60e51b82526004820152601660248201527f4e6f20646f6e6174696f6e7320746f20726566756e64000000000000000000006044820152fd5b8054821015611790578282611729829484611e1d565b508201546001600160a01b0316331480611779575b61174a575b019161166c565b5f6117666117588386611e1d565b509a6002809c015490611f5f565b996117718386611e1d565b500155611743565b5060026117868285611e1d565b500154151561173e565b611671565b6064826040519062461bcd60e51b82526004820152601060248201527f476f616c207761732072656163686564000000000000000000000000000000006044820152fd5b6064906040519062461bcd60e51b82526004820152601560248201527f43616d706169676e207374696c6c2061637469766500000000000000000000006044820152fd5b3461012a57604036600319011261012a57611836611c74565b6001600160a01b0360243591165f52600260205260405f20805482101561012a5760209161186391611c8a565b90546040519160031b1c8152f35b3461012a5760208060031936011261012a576004356118936004548210611e71565b805f525f82526118b46001600160a01b03600160405f200154163314611ebc565b805f525f825260405f206008810180549160ff8360081c16156119aa576006906118e460ff8560101c1615611f07565b015491821561196657620100009062ff00ff1916179055600a810290808204600a03610734576103e8611918920490611f52565b91825f811561195d575b5f80809381933390f1156116c4577ff440aec6b52895984d061d622e6edeba6210f7c3e059be920663140c084560d7906040519384523393a3005b506108fc611922565b6064856040519062461bcd60e51b82526004820152601460248201527f4e6f2066756e647320746f2077697468647261770000000000000000000000006044820152fd5b6064856040519062461bcd60e51b82526004820152601060248201527f476f616c206e6f742072656163686564000000000000000000000000000000006044820152fd5b3461012a57602036600319011261012a576004355f525f60205260405f20604081549160ff6001600160a01b03600183015416611a2d60028401611b94565b92611a3a60038201611b94565b93611aa0611a4a60048401611b94565b611a92600585015497611a8460068701549560086007890154980154988c519d8e9d8e6101809384938252602082015201528c0190611c36565b908a820360608c0152611c36565b9088820360808a0152611c36565b9460a087015260c086015260e08501528181161515610100850152818160081c161515610120850152818160101c16151561014085015260181c1615156101608301520390f35b3461012a575f36600319011261012a576020906005548152f35b90600182811c92168015611b2f575b6020831014611b1b57565b634e487b7160e01b5f52602260045260245ffd5b91607f1691611b10565b610180810190811067ffffffffffffffff82111761059457604052565b60a0810190811067ffffffffffffffff82111761059457604052565b90601f8019910116810190811067ffffffffffffffff82111761059457604052565b9060405191825f8254611ba681611b01565b908184526020946001916001811690815f14611c145750600114611bd6575b505050611bd492500383611b72565b565b5f90815285812095935091905b818310611bfc575050611bd493508201015f8080611bc5565b85548884018501529485019487945091830191611be3565b92505050611bd494925060ff191682840152151560051b8201015f8080611bc5565b91908251928382525f5b848110611c60575050825f602080949584010152601f8019910116010190565b602081830181015184830182015201611c40565b600435906001600160a01b038216820361012a57565b8054821015611c9f575f5260205f2001905f90565b634e487b7160e01b5f52603260045260245ffd5b81601f8201121561012a5780359067ffffffffffffffff82116105945760405192611ce8601f8401601f191660200185611b72565b8284526020838301011161012a57815f926020809301838601378301015290565b90611d65611d53611d41610180855185526001600160a01b036020870151166020860152604086015190806040870152850190611c36565b60608501518482036060860152611c36565b60808401518382036080850152611c36565b9160a081015160a083015260c081015160c083015260e081015160e083015261010080820151151590830152610120808201511515908301526101408082015115159083015261016080910151151591015290565b6020808201906020835283518092526040830192602060408460051b8301019501935f915b848310611def5750505050505090565b9091929394958480611e0d600193603f198682030187528a51611d09565b9801930193019194939290611ddf565b8054821015611c9f575f52600560205f20910201905f90565b60209060206040818301928281528551809452019301915f5b828110611e5d575050505090565b835185529381019392810192600101611e4f565b15611e7857565b606460405162461bcd60e51b815260206004820152601760248201527f43616d706169676e20646f6573206e6f742065786973740000000000000000006044820152fd5b15611ec357565b606460405162461bcd60e51b815260206004820152601460248201527f4e6f742063616d706169676e2063726561746f720000000000000000000000006044820152fd5b15611f0e57565b606460405162461bcd60e51b815260206004820152601760248201527f46756e647320616c72656164792077697468647261776e0000000000000000006044820152fd5b9190820391821161073457565b9190820180921161073457565b5f1981146107345760010190565b67ffffffffffffffff81116105945760051b60200190565b60405190611f9f82611b39565b5f6101608382815282602082015260606040820152606080820152606060808201528260a08201528260c08201528260e08201528261010082015282610120820152826101408201520152565b90611ff682611f7a565b6120036040519182611b72565b8281528092612014601f1991611f7a565b01905f5b82811061202457505050565b60209061202f611f92565b82828501015201612018565b8051821015611c9f5760209160051b010190565b8054680100000000000000008110156105945761207191600182018155611c8a565b819291549060031b91821b915f19901b191617905556fea2646970667358221220be0a99808c356f1904c8a644e642df98ab02ebbb38efd18827267f76e1099d6964736f6c63430008180033","opcodes":"PUSH1 0x80 DUP1 PUSH1 0x40 MSTORE CALLVALUE PUSH2 0x16 JUMPI PUSH2 0x20BE SWAP1 DUP2 PUSH2 0x1B DUP3 CODECOPY RETURN JUMPDEST PUSH0 DUP1 REVERT INVALID PUSH1 0x80 DUP1 PUSH1 0x40 MSTORE PUSH1 0x4 CALLDATASIZE LT ISZERO PUSH2 0x1A JUMPI JUMPDEST POP CALLDATASIZE ISZERO PUSH2 0x18 JUMPI STOP JUMPDEST STOP JUMPDEST PUSH0 CALLDATALOAD PUSH1 0xE0 SHR SWAP1 DUP2 PUSH4 0x2932F56 EQ PUSH2 0x1AE7 JUMPI POP DUP1 PUSH4 0x141961BC EQ PUSH2 0x19EE JUMPI DUP1 PUSH4 0x155DD5EE EQ PUSH2 0x1871 JUMPI DUP1 PUSH4 0x19AC74BD EQ PUSH2 0x181D JUMPI DUP1 PUSH4 0x278ECDE1 EQ PUSH2 0x1602 JUMPI DUP1 PUSH4 0x34FBC9A1 EQ PUSH2 0x15E7 JUMPI DUP1 PUSH4 0x45F5B737 EQ PUSH2 0x129C JUMPI DUP1 PUSH4 0x4933E631 EQ PUSH2 0x1247 JUMPI DUP1 PUSH4 0x5167642F EQ PUSH2 0x1114 JUMPI DUP1 PUSH4 0x5598F8CC EQ PUSH2 0x101B JUMPI DUP1 PUSH4 0x5CC3224E EQ PUSH2 0xE7B JUMPI DUP1 PUSH4 0x70879FF7 EQ PUSH2 0xE00 JUMPI DUP1 PUSH4 0x732435B2 EQ PUSH2 0xD8A JUMPI DUP1 PUSH4 0xA1E5084C EQ PUSH2 0xD04 JUMPI DUP1 PUSH4 0xAD3FBE30 EQ PUSH2 0xCA8 JUMPI DUP1 PUSH4 0xBC7BA95C EQ PUSH2 0xB82 JUMPI DUP1 PUSH4 0xCA6A04A5 EQ PUSH2 0x8AD JUMPI DUP1 PUSH4 0xDE2ED893 EQ PUSH2 0x890 JUMPI DUP1 PUSH4 0xDFE6B5D6 EQ PUSH2 0x864 JUMPI DUP1 PUSH4 0xF7CFB5C3 EQ PUSH2 0x12E JUMPI PUSH4 0xFCA604D7 EQ PUSH2 0x10D JUMPI PUSH0 PUSH2 0xF JUMP JUMPDEST CALLVALUE PUSH2 0x12A JUMPI PUSH0 CALLDATASIZE PUSH1 0x3 NOT ADD SLT PUSH2 0x12A JUMPI PUSH1 0x20 PUSH1 0x4 SLOAD PUSH1 0x40 MLOAD SWAP1 DUP2 MSTORE RETURN JUMPDEST PUSH0 DUP1 REVERT JUMPDEST CALLVALUE PUSH2 0x12A JUMPI PUSH1 0xC0 CALLDATASIZE PUSH1 0x3 NOT ADD SLT PUSH2 0x12A JUMPI PUSH1 0x4 CALLDATALOAD PUSH8 0xFFFFFFFFFFFFFFFF DUP2 GT PUSH2 0x12A JUMPI PUSH2 0x15F SWAP1 CALLDATASIZE SWAP1 PUSH1 0x4 ADD PUSH2 0x1CB3 JUMP JUMPDEST PUSH1 0x24 CALLDATALOAD PUSH8 0xFFFFFFFFFFFFFFFF DUP2 GT PUSH2 0x12A JUMPI PUSH2 0x17F SWAP1 CALLDATASIZE SWAP1 PUSH1 0x4 ADD PUSH2 0x1CB3 JUMP JUMPDEST PUSH1 0x44 CALLDATALOAD PUSH8 0xFFFFFFFFFFFFFFFF DUP2 GT PUSH2 0x12A JUMPI PUSH2 0x19F SWAP1 CALLDATASIZE SWAP1 PUSH1 0x4 ADD PUSH2 0x1CB3 JUMP JUMPDEST PUSH1 0x84 CALLDATALOAD SWAP2 PUSH1 0xA4 CALLDATALOAD DUP1 ISZERO ISZERO DUP2 SUB PUSH2 0x12A JUMPI DUP5 MLOAD ISZERO PUSH2 0x820 JUMPI DUP2 MLOAD ISZERO PUSH2 0x7DC JUMPI PUSH1 0x64 CALLDATALOAD ISZERO PUSH2 0x798 JUMPI DUP4 ISZERO SWAP4 DUP5 ISZERO DUP1 PUSH2 0x78C JUMPI JUMPDEST ISZERO PUSH2 0x748 JUMPI PUSH1 0x4 SLOAD SWAP5 PUSH2 0x1E2 DUP7 PUSH2 0x1F6C JUMP JUMPDEST PUSH1 0x4 SSTORE PUSH3 0x15180 DUP1 DUP4 MUL SWAP3 DUP4 DIV EQ OR ISZERO PUSH2 0x734 JUMPI PUSH2 0x200 SWAP1 TIMESTAMP PUSH2 0x1F5F JUMP JUMPDEST SWAP3 PUSH1 0x40 MLOAD SWAP3 PUSH2 0x20E DUP5 PUSH2 0x1B39 JUMP JUMPDEST DUP6 DUP5 MSTORE CALLER PUSH1 0x20 DUP6 ADD MSTORE DUP7 PUSH1 0x40 DUP6 ADD MSTORE PUSH1 0x60 DUP5 ADD MSTORE PUSH1 0x80 DUP4 ADD MSTORE PUSH1 0x64 CALLDATALOAD PUSH1 0xA0 DUP4 ADD MSTORE PUSH0 PUSH1 0xC0 DUP4 ADD MSTORE DUP3 PUSH1 0xE0 DUP4 ADD MSTORE PUSH1 0x1 PUSH2 0x100 DUP4 ADD MSTORE PUSH0 PUSH2 0x120 DUP4 ADD MSTORE PUSH0 PUSH2 0x140 DUP4 ADD MSTORE DUP1 ISZERO ISZERO PUSH2 0x160 DUP4 ADD MSTORE DUP4 PUSH0 MSTORE PUSH0 PUSH1 0x20 MSTORE PUSH1 0x40 PUSH0 KECCAK256 SWAP2 DUP1 MLOAD DUP4 SSTORE PUSH1 0x1 DUP4 ADD PUSH1 0x1 PUSH1 0x1 PUSH1 0xA0 SHL SUB PUSH1 0x20 DUP4 ADD MLOAD AND PUSH20 0xFFFFFFFFFFFFFFFFFFFFFFFFFFFFFFFFFFFFFFFF NOT DUP3 SLOAD AND OR SWAP1 SSTORE PUSH1 0x40 DUP2 ADD MLOAD DUP1 MLOAD SWAP1 PUSH8 0xFFFFFFFFFFFFFFFF DUP3 GT PUSH2 0x594 JUMPI DUP2 SWAP1 PUSH2 0x2BE PUSH1 0x2 DUP8 ADD SLOAD PUSH2 0x1B01 JUMP JUMPDEST PUSH1 0x1F DUP2 GT PUSH2 0x6E4 JUMPI JUMPDEST POP PUSH1 0x20 SWAP1 PUSH1 0x1F DUP4 GT PUSH1 0x1 EQ PUSH2 0x679 JUMPI PUSH0 SWAP3 PUSH2 0x66E JUMPI JUMPDEST POP POP DUP2 PUSH1 0x1 SHL SWAP2 PUSH0 NOT SWAP1 PUSH1 0x3 SHL SHR NOT AND OR PUSH1 0x2 DUP5 ADD SSTORE JUMPDEST PUSH1 0x60 DUP2 ADD MLOAD DUP1 MLOAD SWAP1 PUSH8 0xFFFFFFFFFFFFFFFF DUP3 GT PUSH2 0x594 JUMPI DUP2 SWAP1 PUSH2 0x31A PUSH1 0x3 DUP8 ADD SLOAD PUSH2 0x1B01 JUMP JUMPDEST PUSH1 0x1F DUP2 GT PUSH2 0x61E JUMPI JUMPDEST POP PUSH1 0x20 SWAP1 PUSH1 0x1F DUP4 GT PUSH1 0x1 EQ PUSH2 0x5B3 JUMPI PUSH0 SWAP3 PUSH2 0x5A8 JUMPI JUMPDEST POP POP DUP2 PUSH1 0x1 SHL SWAP2 PUSH0 NOT SWAP1 PUSH1 0x3 SHL SHR NOT AND OR PUSH1 0x3 DUP5 ADD SSTORE JUMPDEST PUSH1 0x80 DUP2 ADD MLOAD DUP1 MLOAD SWAP1 PUSH8 0xFFFFFFFFFFFFFFFF DUP3 GT PUSH2 0x594 JUMPI PUSH2 0x374 PUSH1 0x4 DUP7 ADD SLOAD PUSH2 0x1B01 JUMP JUMPDEST PUSH1 0x1F DUP2 GT PUSH2 0x550 JUMPI JUMPDEST POP SWAP2 DUP7 SWAP4 SWAP2 PUSH1 0x20 SWAP9 SWAP4 DUP10 SWAP1 PUSH1 0x1F DUP4 GT PUSH1 0x1 EQ PUSH2 0x4BC JUMPI SWAP2 DUP1 PUSH32 0xEEEF94C54408B581D52C1A16CE11F234ADC47AACF1FCEE70DAE6695108494868 SWAP8 SWAP9 SWAP3 PUSH1 0x8 SWAP5 PUSH0 SWAP3 PUSH2 0x4B1 JUMPI JUMPDEST POP POP DUP2 PUSH1 0x1 SHL SWAP2 PUSH0 NOT SWAP1 PUSH1 0x3 SHL SHR NOT AND OR PUSH1 0x4 DUP3 ADD SSTORE JUMPDEST PUSH1 0xA0 DUP4 ADD MLOAD PUSH1 0x5 DUP3 ADD SSTORE PUSH1 0xC0 DUP4 ADD MLOAD PUSH1 0x6 DUP3 ADD SSTORE PUSH1 0xE0 DUP4 ADD MLOAD PUSH1 0x7 DUP3 ADD SSTORE ADD SWAP1 PUSH2 0x417 PUSH2 0x100 DUP3 ADD MLOAD ISZERO ISZERO DUP4 SWAP1 PUSH1 0xFF DUP1 NOT DUP4 SLOAD AND SWAP2 ISZERO ISZERO AND OR SWAP1 SSTORE JUMP JUMPDEST PUSH2 0x120 DUP2 ADD MLOAD ISZERO ISZERO SWAP1 DUP3 SLOAD PUSH2 0xFF00 PUSH4 0xFF000000 PUSH2 0x160 PUSH3 0xFF0000 PUSH2 0x140 DUP7 ADD MLOAD ISZERO ISZERO PUSH1 0x10 SHL AND SWAP5 ADD MLOAD ISZERO ISZERO PUSH1 0x18 SHL AND SWAP4 PUSH1 0x8 SHL AND SWAP1 PUSH4 0xFFFFFF00 NOT AND OR OR OR SWAP1 SSTORE CALLER PUSH0 MSTORE PUSH1 0x2 DUP8 MSTORE PUSH2 0x46C DUP5 PUSH1 0x40 PUSH0 KECCAK256 PUSH2 0x204F JUMP JUMPDEST PUSH2 0x477 PUSH1 0x5 SLOAD PUSH2 0x1F6C JUMP JUMPDEST PUSH1 0x5 SSTORE PUSH2 0x48F PUSH1 0x40 MLOAD SWAP3 PUSH1 0x80 DUP5 MSTORE PUSH1 0x80 DUP5 ADD SWAP1 PUSH2 0x1C36 JUMP JUMPDEST SWAP5 PUSH1 0x64 CALLDATALOAD DUP9 DUP5 ADD MSTORE PUSH1 0x40 DUP4 ADD MSTORE ISZERO ISZERO PUSH1 0x60 DUP3 ADD MSTORE DUP1 CALLER SWAP5 SUB SWAP1 LOG3 PUSH1 0x40 MLOAD SWAP1 DUP2 MSTORE RETURN JUMPDEST ADD MLOAD SWAP1 POP DUP13 DUP1 PUSH2 0x3C3 JUMP JUMPDEST PUSH1 0x4 DUP9 SWAP4 SWAP3 SWAP9 ADD PUSH0 MSTORE DUP11 PUSH0 KECCAK256 SWAP1 PUSH0 JUMPDEST PUSH1 0x1F NOT DUP5 AND DUP2 LT PUSH2 0x536 JUMPI POP SWAP2 PUSH1 0x1 SWAP2 PUSH32 0xEEEF94C54408B581D52C1A16CE11F234ADC47AACF1FCEE70DAE6695108494868 SWAP9 SWAP10 PUSH1 0x8 SWAP6 SWAP5 DUP4 PUSH1 0x1F NOT DUP2 AND LT PUSH2 0x51E JUMPI JUMPDEST POP POP POP DUP2 SHL ADD PUSH1 0x4 DUP3 ADD SSTORE PUSH2 0x3DA JUMP JUMPDEST ADD MLOAD PUSH0 NOT PUSH1 0xF8 DUP5 PUSH1 0x3 SHL AND SHR NOT AND SWAP1 SSTORE DUP13 DUP1 DUP1 PUSH2 0x50E JUMP JUMPDEST DUP2 DUP11 ADD MLOAD DUP4 SSTORE SWAP9 DUP13 ADD SWAP9 DUP12 SWAP9 POP PUSH1 0x1 SWAP1 SWAP3 ADD SWAP2 DUP13 ADD PUSH2 0x4CB JUMP JUMPDEST PUSH1 0x4 DUP7 ADD PUSH0 MSTORE PUSH1 0x20 PUSH0 KECCAK256 PUSH1 0x1F DUP5 ADD PUSH1 0x5 SHR DUP2 ADD PUSH1 0x20 DUP6 LT PUSH2 0x58D JUMPI JUMPDEST PUSH1 0x1F DUP4 ADD PUSH1 0x5 SHR DUP3 ADD DUP2 LT PUSH2 0x582 JUMPI POP POP PUSH2 0x37D JUMP JUMPDEST PUSH0 DUP2 SSTORE PUSH1 0x1 ADD PUSH2 0x56C JUMP JUMPDEST POP DUP1 PUSH2 0x56C JUMP JUMPDEST PUSH4 0x4E487B71 PUSH1 0xE0 SHL PUSH0 MSTORE PUSH1 0x41 PUSH1 0x4 MSTORE PUSH1 0x24 PUSH0 REVERT JUMPDEST ADD MLOAD SWAP1 POP DUP9 DUP1 PUSH2 0x339 JUMP JUMPDEST PUSH1 0x3 DUP8 ADD PUSH0 SWAP1 DUP2 MSTORE PUSH1 0x20 DUP2 KECCAK256 SWAP4 POP PUSH1 0x1F NOT DUP6 AND SWAP1 JUMPDEST DUP2 DUP2 LT PUSH2 0x606 JUMPI POP SWAP1 DUP5 PUSH1 0x1 SWAP6 SWAP5 SWAP4 SWAP3 LT PUSH2 0x5EE JUMPI JUMPDEST POP POP POP DUP2 SHL ADD PUSH1 0x3 DUP5 ADD SSTORE PUSH2 0x350 JUMP JUMPDEST ADD MLOAD PUSH0 NOT PUSH1 0xF8 DUP5 PUSH1 0x3 SHL AND SHR NOT AND SWAP1 SSTORE DUP9 DUP1 DUP1 PUSH2 0x5DE JUMP JUMPDEST SWAP3 SWAP4 PUSH1 0x20 PUSH1 0x1 DUP2 SWAP3 DUP8 DUP7 ADD MLOAD DUP2 SSTORE ADD SWAP6 ADD SWAP4 ADD PUSH2 0x5C8 JUMP JUMPDEST SWAP1 SWAP2 POP PUSH1 0x3 DUP7 ADD PUSH0 MSTORE PUSH1 0x20 PUSH0 KECCAK256 PUSH1 0x1F DUP5 ADD PUSH1 0x5 SHR DUP2 ADD PUSH1 0x20 DUP6 LT PUSH2 0x667 JUMPI JUMPDEST SWAP1 DUP5 SWAP4 SWAP3 SWAP2 JUMPDEST PUSH1 0x1F DUP4 ADD PUSH1 0x5 SHR DUP3 ADD DUP2 LT PUSH2 0x659 JUMPI POP POP PUSH2 0x323 JUMP JUMPDEST PUSH0 DUP2 SSTORE DUP6 SWAP5 POP PUSH1 0x1 ADD PUSH2 0x643 JUMP JUMPDEST POP DUP1 PUSH2 0x63D JUMP JUMPDEST ADD MLOAD SWAP1 POP DUP9 DUP1 PUSH2 0x2DD JUMP JUMPDEST PUSH1 0x2 DUP8 ADD PUSH0 SWAP1 DUP2 MSTORE PUSH1 0x20 DUP2 KECCAK256 SWAP4 POP PUSH1 0x1F NOT DUP6 AND SWAP1 JUMPDEST DUP2 DUP2 LT PUSH2 0x6CC JUMPI POP SWAP1 DUP5 PUSH1 0x1 SWAP6 SWAP5 SWAP4 SWAP3 LT PUSH2 0x6B4 JUMPI JUMPDEST POP POP POP DUP2 SHL ADD PUSH1 0x2 DUP5 ADD SSTORE PUSH2 0x2F4 JUMP JUMPDEST ADD MLOAD PUSH0 NOT PUSH1 0xF8 DUP5 PUSH1 0x3 SHL AND SHR NOT AND SWAP1 SSTORE DUP9 DUP1 DUP1 PUSH2 0x6A4 JUMP JUMPDEST SWAP3 SWAP4 PUSH1 0x20 PUSH1 0x1 DUP2 SWAP3 DUP8 DUP7 ADD MLOAD DUP2 SSTORE ADD SWAP6 ADD SWAP4 ADD PUSH2 0x68E JUMP JUMPDEST SWAP1 SWAP2 POP PUSH1 0x2 DUP7 ADD PUSH0 MSTORE PUSH1 0x20 PUSH0 KECCAK256 PUSH1 0x1F DUP5 ADD PUSH1 0x5 SHR DUP2 ADD PUSH1 0x20 DUP6 LT PUSH2 0x72D JUMPI JUMPDEST SWAP1 DUP5 SWAP4 SWAP3 SWAP2 JUMPDEST PUSH1 0x1F DUP4 ADD PUSH1 0x5 SHR DUP3 ADD DUP2 LT PUSH2 0x71F JUMPI POP POP PUSH2 0x2C7 JUMP JUMPDEST PUSH0 DUP2 SSTORE DUP6 SWAP5 POP PUSH1 0x1 ADD PUSH2 0x709 JUMP JUMPDEST POP DUP1 PUSH2 0x703 JUMP JUMPDEST PUSH4 0x4E487B71 PUSH1 0xE0 SHL PUSH0 MSTORE PUSH1 0x11 PUSH1 0x4 MSTORE PUSH1 0x24 PUSH0 REVERT JUMPDEST PUSH1 0x64 PUSH1 0x40 MLOAD PUSH3 0x461BCD PUSH1 0xE5 SHL DUP2 MSTORE PUSH1 0x20 PUSH1 0x4 DUP3 ADD MSTORE PUSH1 0x10 PUSH1 0x24 DUP3 ADD MSTORE PUSH32 0x496E76616C6964206475726174696F6E00000000000000000000000000000000 PUSH1 0x44 DUP3 ADD MSTORE REVERT JUMPDEST POP PUSH2 0x16D DUP2 GT ISZERO PUSH2 0x1D0 JUMP JUMPDEST PUSH1 0x64 PUSH1 0x40 MLOAD PUSH3 0x461BCD PUSH1 0xE5 SHL DUP2 MSTORE PUSH1 0x20 PUSH1 0x4 DUP3 ADD MSTORE PUSH1 0x1B PUSH1 0x24 DUP3 ADD MSTORE PUSH32 0x476F616C206D7573742062652067726561746572207468616E20300000000000 PUSH1 0x44 DUP3 ADD MSTORE REVERT JUMPDEST PUSH1 0x64 PUSH1 0x40 MLOAD PUSH3 0x461BCD PUSH1 0xE5 SHL DUP2 MSTORE PUSH1 0x20 PUSH1 0x4 DUP3 ADD MSTORE PUSH1 0x1B PUSH1 0x24 DUP3 ADD MSTORE PUSH32 0x4465736372697074696F6E2063616E6E6F7420626520656D7074790000000000 PUSH1 0x44 DUP3 ADD MSTORE REVERT JUMPDEST PUSH1 0x64 PUSH1 0x40 MLOAD PUSH3 0x461BCD PUSH1 0xE5 SHL DUP2 MSTORE PUSH1 0x20 PUSH1 0x4 DUP3 ADD MSTORE PUSH1 0x15 PUSH1 0x24 DUP3 ADD MSTORE PUSH32 0x5469746C652063616E6E6F7420626520656D7074790000000000000000000000 PUSH1 0x44 DUP3 ADD MSTORE REVERT JUMPDEST CALLVALUE PUSH2 0x12A JUMPI PUSH0 CALLDATASIZE PUSH1 0x3 NOT ADD SLT PUSH2 0x12A JUMPI PUSH1 0x60 PUSH1 0x5 SLOAD PUSH1 0x6 SLOAD PUSH1 0x40 MLOAD SWAP2 DUP3 MSTORE PUSH1 0x20 DUP3 ADD MSTORE PUSH1 0xA PUSH1 0x40 DUP3 ADD MSTORE RETURN JUMPDEST CALLVALUE PUSH2 0x12A JUMPI PUSH0 CALLDATASIZE PUSH1 0x3 NOT ADD SLT PUSH2 0x12A JUMPI PUSH1 0x20 PUSH1 0x6 SLOAD PUSH1 0x40 MLOAD SWAP1 DUP2 MSTORE RETURN JUMPDEST PUSH1 0x40 CALLDATASIZE PUSH1 0x3 NOT ADD SLT PUSH2 0x12A JUMPI PUSH1 0x24 PUSH1 0x4 CALLDATALOAD DUP2 CALLDATALOAD DUP1 ISZERO DUP1 ISZERO SWAP1 DUP2 DUP4 SUB PUSH2 0x12A JUMPI PUSH2 0x8D9 PUSH1 0x4 SLOAD DUP6 LT PUSH2 0x1E71 JUMP JUMPDEST DUP4 PUSH0 MSTORE PUSH1 0x20 SWAP3 PUSH0 DUP5 MSTORE PUSH1 0xFF PUSH1 0x8 PUSH1 0x40 PUSH0 KECCAK256 ADD SLOAD AND ISZERO PUSH2 0xB3F JUMPI DUP5 PUSH0 MSTORE PUSH0 DUP5 MSTORE PUSH1 0x7 PUSH1 0x40 PUSH0 KECCAK256 ADD SLOAD TIMESTAMP LT ISZERO PUSH2 0xAFC JUMPI CALLVALUE ISZERO PUSH2 0xAB9 JUMPI DUP5 PUSH0 MSTORE PUSH0 DUP5 MSTORE PUSH1 0x40 PUSH0 KECCAK256 PUSH1 0x6 DUP2 ADD PUSH2 0x926 CALLVALUE DUP3 SLOAD PUSH2 0x1F5F JUMP JUMPDEST DUP1 SWAP2 SSTORE PUSH1 0x5 DUP3 ADD SLOAD GT ISZERO DUP1 PUSH2 0xAA7 JUMPI JUMPDEST PUSH2 0xA91 JUMPI JUMPDEST POP ISZERO PUSH2 0xA8A JUMPI PUSH0 SWAP5 JUMPDEST PUSH1 0x40 MLOAD PUSH2 0x950 DUP2 PUSH2 0x1B56 JUMP JUMPDEST DUP6 DUP2 MSTORE DUP5 DUP2 ADD SWAP7 PUSH1 0x1 PUSH1 0x1 PUSH1 0xA0 SHL SUB DUP1 SWAP2 AND SWAP8 DUP9 DUP2 MSTORE PUSH1 0x40 DUP4 ADD SWAP1 CALLVALUE DUP3 MSTORE PUSH1 0x60 DUP5 ADD SWAP3 TIMESTAMP DUP5 MSTORE PUSH1 0x80 DUP6 ADD SWAP5 DUP9 DUP7 MSTORE DUP11 PUSH0 MSTORE PUSH1 0x1 DUP11 MSTORE PUSH1 0x40 PUSH0 KECCAK256 DUP1 SLOAD SWAP1 PUSH9 0x10000000000000000 DUP3 LT ISZERO PUSH2 0xA77 JUMPI SWAP1 PUSH2 0x9AD SWAP2 PUSH1 0x1 DUP3 ADD DUP2 SSTORE PUSH2 0x1E1D JUMP JUMPDEST SWAP8 SWAP1 SWAP8 PUSH2 0xA66 JUMPI POP SWAP4 PUSH1 0x40 SWAP9 SWAP7 SWAP4 PUSH1 0x4 SWAP4 PUSH32 0x665AE3D7B1878285BA5B24AAD2297E9585AB3110185E2D75A78F33772084E9B5 SWAP12 SWAP10 SWAP8 SWAP4 PUSH2 0xA2F SWAP8 MLOAD DUP8 SSTORE PUSH1 0x1 DUP8 ADD SWAP2 MLOAD AND PUSH20 0xFFFFFFFFFFFFFFFFFFFFFFFFFFFFFFFFFFFFFFFF NOT DUP3 SLOAD AND OR SWAP1 SSTORE MLOAD PUSH1 0x2 DUP6 ADD SSTORE MLOAD PUSH1 0x3 DUP5 ADD SSTORE MLOAD ISZERO ISZERO SWAP2 ADD SWAP1 PUSH1 0xFF DUP1 NOT DUP4 SLOAD AND SWAP2 ISZERO ISZERO AND OR SWAP1 SSTORE JUMP JUMPDEST PUSH2 0xA4E JUMPI JUMPDEST PUSH2 0xA3F PUSH1 0x6 SLOAD PUSH2 0x1F6C JUMP JUMPDEST PUSH1 0x6 SSTORE DUP3 MLOAD SWAP2 CALLVALUE DUP4 MSTORE DUP3 ADD MSTORE LOG3 STOP JUMPDEST CALLER PUSH0 MSTORE PUSH1 0x3 DUP3 MSTORE PUSH2 0xA61 DUP6 DUP5 PUSH0 KECCAK256 PUSH2 0x204F JUMP JUMPDEST PUSH2 0xA34 JUMP JUMPDEST PUSH4 0x4E487B71 PUSH1 0xE0 SHL PUSH0 MSTORE PUSH0 PUSH1 0x4 MSTORE PUSH0 REVERT JUMPDEST DUP9 PUSH4 0x4E487B71 PUSH1 0xE0 SHL PUSH0 MSTORE PUSH1 0x41 PUSH1 0x4 MSTORE PUSH0 REVERT JUMPDEST CALLER SWAP5 PUSH2 0x944 JUMP JUMPDEST PUSH1 0x8 ADD DUP1 SLOAD PUSH2 0xFF00 NOT AND PUSH2 0x100 OR SWAP1 SSTORE DUP7 PUSH2 0x93B JUMP JUMPDEST POP PUSH1 0xFF PUSH1 0x8 DUP3 ADD SLOAD PUSH1 0x8 SHR AND ISZERO PUSH2 0x936 JUMP JUMPDEST PUSH1 0x64 DUP5 PUSH1 0x1F DUP9 PUSH1 0x40 MLOAD SWAP3 PUSH3 0x461BCD PUSH1 0xE5 SHL DUP5 MSTORE PUSH1 0x4 DUP5 ADD MSTORE DUP3 ADD MSTORE PUSH32 0x446F6E6174696F6E206D7573742062652067726561746572207468616E203000 PUSH1 0x44 DUP3 ADD MSTORE REVERT JUMPDEST PUSH1 0x64 DUP5 PUSH1 0xE DUP9 PUSH1 0x40 MLOAD SWAP3 PUSH3 0x461BCD PUSH1 0xE5 SHL DUP5 MSTORE PUSH1 0x4 DUP5 ADD MSTORE DUP3 ADD MSTORE PUSH32 0x43616D706169676E20656E646564000000000000000000000000000000000000 PUSH1 0x44 DUP3 ADD MSTORE REVERT JUMPDEST PUSH1 0x64 DUP5 PUSH1 0x13 DUP9 PUSH1 0x40 MLOAD SWAP3 PUSH3 0x461BCD PUSH1 0xE5 SHL DUP5 MSTORE PUSH1 0x4 DUP5 ADD MSTORE DUP3 ADD MSTORE PUSH32 0x43616D706169676E206E6F742061637469766500000000000000000000000000 PUSH1 0x44 DUP3 ADD MSTORE REVERT JUMPDEST CALLVALUE PUSH2 0x12A JUMPI PUSH1 0x20 DUP1 PUSH1 0x3 NOT CALLDATASIZE ADD SLT PUSH2 0x12A JUMPI PUSH1 0x4 CALLDATALOAD PUSH2 0xBA4 PUSH1 0x4 SLOAD DUP3 LT PUSH2 0x1E71 JUMP JUMPDEST PUSH0 MSTORE PUSH1 0x1 SWAP1 PUSH1 0x1 DUP2 MSTORE PUSH1 0x40 PUSH0 KECCAK256 SWAP1 DUP2 SLOAD PUSH2 0xBBD DUP2 PUSH2 0x1F7A JUMP JUMPDEST SWAP3 PUSH2 0xBCB PUSH1 0x40 MLOAD SWAP5 DUP6 PUSH2 0x1B72 JUMP JUMPDEST DUP2 DUP5 MSTORE PUSH0 SWAP1 DUP2 MSTORE DUP3 DUP2 KECCAK256 DUP6 DUP5 DUP7 ADD JUMPDEST DUP6 DUP6 DUP6 LT PUSH2 0xC51 JUMPI PUSH0 SWAP2 POP DUP2 DUP9 DUP2 DUP6 JUMPDEST PUSH2 0xC06 JUMPI JUMPDEST POP PUSH1 0x60 SWAP5 POP MLOAD SWAP2 PUSH1 0x40 MLOAD SWAP4 DUP5 MSTORE DUP4 ADD MSTORE PUSH1 0x40 DUP3 ADD MSTORE RETURN JUMPDEST SWAP4 DUP2 MLOAD DUP6 LT ISZERO PUSH2 0xC4B JUMPI DUP6 SWAP1 PUSH1 0x80 PUSH2 0xC1E DUP8 DUP6 PUSH2 0x203B JUMP JUMPDEST MLOAD ADD MLOAD ISZERO PUSH2 0xC39 JUMPI PUSH2 0xC30 DUP3 SWAP2 PUSH2 0x1F6C JUMP JUMPDEST SWAP6 JUMPDEST ADD SWAP1 PUSH2 0xBEA JUMP JUMPDEST SWAP5 SWAP3 PUSH2 0xC45 DUP3 SWAP2 PUSH2 0x1F6C JUMP JUMPDEST SWAP4 PUSH2 0xC32 JUMP JUMPDEST SWAP4 PUSH2 0xBEF JUMP JUMPDEST PUSH1 0x5 SWAP2 PUSH1 0x40 MLOAD PUSH2 0xC60 DUP2 PUSH2 0x1B56 JUMP JUMPDEST DUP6 SLOAD DUP2 MSTORE PUSH1 0x1 PUSH1 0x1 PUSH1 0xA0 SHL SUB DUP6 DUP8 ADD SLOAD AND DUP4 DUP3 ADD MSTORE PUSH1 0x2 DUP7 ADD SLOAD PUSH1 0x40 DUP3 ADD MSTORE PUSH1 0x3 DUP7 ADD SLOAD PUSH1 0x60 DUP3 ADD MSTORE PUSH1 0xFF PUSH1 0x4 DUP8 ADD SLOAD AND ISZERO ISZERO PUSH1 0x80 DUP3 ADD MSTORE DUP2 MSTORE ADD SWAP3 ADD SWAP3 ADD SWAP2 SWAP1 DUP7 SWAP1 PUSH2 0xBDA JUMP JUMPDEST CALLVALUE PUSH2 0x12A JUMPI PUSH1 0x20 CALLDATASIZE PUSH1 0x3 NOT ADD SLT PUSH2 0x12A JUMPI PUSH1 0x4 CALLDATALOAD PUSH2 0xCC9 PUSH1 0x4 SLOAD DUP3 LT PUSH2 0x1E71 JUMP JUMPDEST DUP1 PUSH0 MSTORE PUSH0 PUSH1 0x20 MSTORE PUSH2 0xCEB PUSH1 0x1 PUSH1 0x1 PUSH1 0xA0 SHL SUB PUSH1 0x1 PUSH1 0x40 PUSH0 KECCAK256 ADD SLOAD AND CALLER EQ PUSH2 0x1EBC JUMP JUMPDEST PUSH0 MSTORE PUSH0 PUSH1 0x20 MSTORE PUSH1 0x8 PUSH1 0x40 PUSH0 KECCAK256 ADD PUSH1 0xFF NOT DUP2 SLOAD AND SWAP1 SSTORE PUSH0 DUP1 RETURN JUMPDEST CALLVALUE PUSH2 0x12A JUMPI PUSH1 0x20 DUP1 PUSH1 0x3 NOT CALLDATASIZE ADD SLT PUSH2 0x12A JUMPI PUSH1 0x1 PUSH1 0x1 PUSH1 0xA0 SHL SUB PUSH2 0xD26 PUSH2 0x1C74 JUMP JUMPDEST AND PUSH0 MSTORE PUSH1 0x2 PUSH1 0x20 MSTORE PUSH1 0x40 PUSH0 KECCAK256 SWAP1 PUSH1 0x40 MLOAD SWAP1 DUP2 PUSH1 0x20 DUP5 SLOAD SWAP2 DUP3 DUP2 MSTORE ADD SWAP4 PUSH0 MSTORE PUSH1 0x20 PUSH0 KECCAK256 SWAP2 PUSH0 SWAP1 JUMPDEST DUP3 DUP3 LT PUSH2 0xD73 JUMPI PUSH2 0xD6F DUP6 PUSH2 0xD63 DUP2 DUP10 SUB DUP3 PUSH2 0x1B72 JUMP JUMPDEST PUSH1 0x40 MLOAD SWAP2 DUP3 SWAP2 DUP3 PUSH2 0x1E36 JUMP JUMPDEST SUB SWAP1 RETURN JUMPDEST DUP4 SLOAD DUP7 MSTORE SWAP5 DUP6 ADD SWAP5 PUSH1 0x1 SWAP4 DUP5 ADD SWAP4 SWAP1 SWAP2 ADD SWAP1 PUSH2 0xD4C JUMP JUMPDEST CALLVALUE PUSH2 0x12A JUMPI PUSH1 0x20 DUP1 PUSH1 0x3 NOT CALLDATASIZE ADD SLT PUSH2 0x12A JUMPI PUSH1 0x1 PUSH1 0x1 PUSH1 0xA0 SHL SUB PUSH2 0xDAC PUSH2 0x1C74 JUMP JUMPDEST AND PUSH0 MSTORE PUSH1 0x3 PUSH1 0x20 MSTORE PUSH1 0x40 PUSH0 KECCAK256 SWAP1 PUSH1 0x40 MLOAD SWAP1 DUP2 PUSH1 0x20 DUP5 SLOAD SWAP2 DUP3 DUP2 MSTORE ADD SWAP4 PUSH0 MSTORE PUSH1 0x20 PUSH0 KECCAK256 SWAP2 PUSH0 SWAP1 JUMPDEST DUP3 DUP3 LT PUSH2 0xDE9 JUMPI PUSH2 0xD6F DUP6 PUSH2 0xD63 DUP2 DUP10 SUB DUP3 PUSH2 0x1B72 JUMP JUMPDEST DUP4 SLOAD DUP7 MSTORE SWAP5 DUP6 ADD SWAP5 PUSH1 0x1 SWAP4 DUP5 ADD SWAP4 SWAP1 SWAP2 ADD SWAP1 PUSH2 0xDD2 JUMP JUMPDEST CALLVALUE PUSH2 0x12A JUMPI PUSH1 0x40 CALLDATASIZE PUSH1 0x3 NOT ADD SLT PUSH2 0x12A JUMPI PUSH1 0x24 CALLDATALOAD PUSH1 0x4 CALLDATALOAD PUSH0 MSTORE PUSH1 0x1 PUSH1 0x20 MSTORE PUSH1 0x40 PUSH0 KECCAK256 DUP1 SLOAD DUP3 LT ISZERO PUSH2 0x12A JUMPI PUSH1 0xA0 SWAP2 PUSH2 0xE37 SWAP2 PUSH2 0x1E1D JUMP JUMPDEST POP DUP1 SLOAD SWAP1 PUSH1 0x1 PUSH1 0x1 PUSH1 0xA0 SHL SUB PUSH1 0x1 DUP3 ADD SLOAD AND SWAP1 PUSH1 0x2 DUP2 ADD SLOAD PUSH1 0xFF PUSH1 0x4 PUSH1 0x3 DUP5 ADD SLOAD SWAP4 ADD SLOAD AND SWAP3 PUSH1 0x40 MLOAD SWAP5 DUP6 MSTORE PUSH1 0x20 DUP6 ADD MSTORE PUSH1 0x40 DUP5 ADD MSTORE PUSH1 0x60 DUP4 ADD MSTORE ISZERO ISZERO PUSH1 0x80 DUP3 ADD MSTORE RETURN JUMPDEST CALLVALUE PUSH2 0x12A JUMPI PUSH0 CALLDATASIZE PUSH1 0x3 NOT ADD SLT PUSH2 0x12A JUMPI PUSH1 0x4 SLOAD PUSH0 DUP1 JUMPDEST DUP3 DUP2 LT PUSH2 0xFD1 JUMPI POP PUSH2 0xEA2 SWAP1 PUSH2 0x1FEC JUMP JUMPDEST SWAP1 PUSH0 DUP1 JUMPDEST DUP3 DUP2 LT PUSH2 0xEBB JUMPI PUSH1 0x40 MLOAD DUP1 PUSH2 0xD6F DUP7 DUP3 PUSH2 0x1DBA JUMP JUMPDEST DUP1 PUSH0 MSTORE PUSH1 0x20 PUSH0 DUP2 MSTORE PUSH1 0x40 PUSH0 KECCAK256 PUSH1 0x8 DUP1 DUP3 ADD SLOAD SWAP1 PUSH1 0xFF SWAP3 DUP4 DUP4 AND SWAP1 DUP2 DUP1 SWAP3 PUSH2 0xFC4 JUMPI JUMPDEST PUSH2 0xEF0 JUMPI JUMPDEST POP POP POP POP POP POP PUSH1 0x1 ADD PUSH2 0xEA6 JUMP JUMPDEST SWAP4 DUP4 DUP2 SWAP4 PUSH2 0xFB8 SWAP8 SWAP6 SWAP4 PUSH1 0x7 PUSH1 0x1 SWAP11 SWAP12 SWAP9 PUSH1 0x40 MLOAD SWAP9 PUSH2 0xF0E DUP11 PUSH2 0x1B39 JUMP JUMPDEST DUP2 SLOAD DUP11 MSTORE PUSH1 0x1 PUSH1 0x1 PUSH1 0xA0 SHL SUB DUP14 DUP4 ADD SLOAD AND SWAP1 DUP11 ADD MSTORE PUSH2 0xF2F PUSH1 0x2 DUP3 ADD PUSH2 0x1B94 JUMP JUMPDEST PUSH1 0x40 DUP11 ADD MSTORE PUSH2 0xF40 PUSH1 0x3 DUP3 ADD PUSH2 0x1B94 JUMP JUMPDEST PUSH1 0x60 DUP11 ADD MSTORE PUSH2 0xF51 PUSH1 0x4 DUP3 ADD PUSH2 0x1B94 JUMP JUMPDEST PUSH1 0x80 DUP11 ADD MSTORE PUSH1 0x5 DUP2 ADD SLOAD PUSH1 0xA0 DUP11 ADD MSTORE PUSH1 0x6 DUP2 ADD SLOAD PUSH1 0xC0 DUP11 ADD MSTORE ADD SLOAD PUSH1 0xE0 DUP9 ADD MSTORE ISZERO ISZERO PUSH2 0x100 DUP8 ADD MSTORE SHR AND ISZERO ISZERO PUSH2 0x120 DUP5 ADD MSTORE DUP2 DUP2 PUSH1 0x10 SHR AND ISZERO ISZERO PUSH2 0x140 DUP5 ADD MSTORE PUSH1 0x18 SHR AND ISZERO ISZERO PUSH2 0x160 DUP3 ADD MSTORE PUSH2 0xFA7 DUP3 DUP9 PUSH2 0x203B JUMP JUMPDEST MSTORE PUSH2 0xFB2 DUP2 DUP8 PUSH2 0x203B JUMP JUMPDEST POP PUSH2 0x1F6C JUMP JUMPDEST SWAP2 SWAP1 DUP6 DUP1 DUP1 DUP1 DUP1 PUSH2 0xEE2 JUMP JUMPDEST POP PUSH1 0x7 DUP2 ADD SLOAD TIMESTAMP LT PUSH2 0xEDD JUMP JUMPDEST DUP1 PUSH0 MSTORE PUSH0 PUSH1 0x20 MSTORE PUSH1 0x40 PUSH0 KECCAK256 PUSH1 0xFF PUSH1 0x8 DUP3 ADD SLOAD AND SWAP1 DUP2 PUSH2 0x100D JUMPI JUMPDEST POP PUSH2 0xFF9 JUMPI JUMPDEST PUSH1 0x1 ADD PUSH2 0xE91 JUMP JUMPDEST SWAP1 PUSH2 0x1005 PUSH1 0x1 SWAP2 PUSH2 0x1F6C JUMP JUMPDEST SWAP2 SWAP1 POP PUSH2 0xFF1 JUMP JUMPDEST PUSH1 0x7 SWAP2 POP ADD SLOAD TIMESTAMP LT DUP5 PUSH2 0xFEB JUMP JUMPDEST CALLVALUE PUSH2 0x12A JUMPI PUSH1 0x20 CALLDATASIZE PUSH1 0x3 NOT ADD SLT PUSH2 0x12A JUMPI PUSH1 0x4 CALLDATALOAD PUSH2 0x1037 PUSH2 0x1F92 JUMP JUMPDEST POP PUSH2 0x1045 PUSH1 0x4 SLOAD DUP3 LT PUSH2 0x1E71 JUMP JUMPDEST PUSH0 MSTORE PUSH0 PUSH1 0x20 MSTORE PUSH2 0xD6F PUSH1 0x40 PUSH0 KECCAK256 PUSH1 0xFF PUSH1 0x8 PUSH1 0x40 MLOAD SWAP3 PUSH2 0x1063 DUP5 PUSH2 0x1B39 JUMP JUMPDEST DUP1 SLOAD DUP5 MSTORE PUSH1 0x1 PUSH1 0x1 PUSH1 0xA0 SHL SUB PUSH1 0x1 DUP3 ADD SLOAD AND PUSH1 0x20 DUP6 ADD MSTORE PUSH2 0x1086 PUSH1 0x2 DUP3 ADD PUSH2 0x1B94 JUMP JUMPDEST PUSH1 0x40 DUP6 ADD MSTORE PUSH2 0x1097 PUSH1 0x3 DUP3 ADD PUSH2 0x1B94 JUMP JUMPDEST PUSH1 0x60 DUP6 ADD MSTORE PUSH2 0x10A8 PUSH1 0x4 DUP3 ADD PUSH2 0x1B94 JUMP JUMPDEST PUSH1 0x80 DUP6 ADD MSTORE PUSH1 0x5 DUP2 ADD SLOAD PUSH1 0xA0 DUP6 ADD MSTORE PUSH1 0x6 DUP2 ADD SLOAD PUSH1 0xC0 DUP6 ADD MSTORE PUSH1 0x7 DUP2 ADD SLOAD PUSH1 0xE0 DUP6 ADD MSTORE ADD SLOAD DUP2 DUP2 AND ISZERO ISZERO PUSH2 0x100 DUP5 ADD MSTORE DUP2 DUP2 PUSH1 0x8 SHR AND ISZERO ISZERO PUSH2 0x120 DUP5 ADD MSTORE DUP2 DUP2 PUSH1 0x10 SHR AND ISZERO ISZERO PUSH2 0x140 DUP5 ADD MSTORE PUSH1 0x18 SHR AND ISZERO ISZERO PUSH2 0x160 DUP3 ADD MSTORE PUSH1 0x40 MLOAD SWAP2 DUP3 SWAP2 PUSH1 0x20 DUP4 MSTORE PUSH1 0x20 DUP4 ADD SWAP1 PUSH2 0x1D09 JUMP JUMPDEST CALLVALUE PUSH2 0x12A JUMPI PUSH1 0x20 DUP1 PUSH1 0x3 NOT CALLDATASIZE ADD SLT PUSH2 0x12A JUMPI PUSH1 0x4 CALLDATALOAD PUSH2 0x1136 PUSH1 0x4 SLOAD DUP3 LT PUSH2 0x1E71 JUMP JUMPDEST PUSH0 MSTORE PUSH1 0x1 SWAP1 PUSH1 0x1 DUP2 MSTORE PUSH1 0x40 PUSH0 KECCAK256 SWAP2 DUP3 SLOAD SWAP2 PUSH2 0x1150 DUP4 PUSH2 0x1F7A JUMP JUMPDEST SWAP3 PUSH2 0x115E PUSH1 0x40 MLOAD SWAP5 DUP6 PUSH2 0x1B72 JUMP JUMPDEST DUP1 DUP5 MSTORE DUP2 DUP5 ADD DUP1 SWAP6 PUSH0 MSTORE DUP3 PUSH0 KECCAK256 PUSH0 SWAP2 JUMPDEST DUP4 DUP4 LT PUSH2 0x11E5 JUMPI POP POP POP POP PUSH1 0x40 MLOAD SWAP3 DUP2 DUP5 ADD SWAP1 DUP3 DUP6 MSTORE MLOAD DUP1 SWAP2 MSTORE PUSH1 0x40 DUP5 ADD SWAP5 SWAP2 PUSH0 JUMPDEST DUP3 DUP2 LT PUSH2 0x119D JUMPI DUP6 DUP8 SUB DUP7 RETURN JUMPDEST DUP4 MLOAD DUP1 MLOAD DUP9 MSTORE DUP3 DUP2 ADD MLOAD PUSH1 0x1 PUSH1 0x1 PUSH1 0xA0 SHL SUB AND DUP4 DUP10 ADD MSTORE PUSH1 0x40 DUP1 DUP3 ADD MLOAD SWAP1 DUP10 ADD MSTORE PUSH1 0x60 DUP1 DUP3 ADD MLOAD SWAP1 DUP10 ADD MSTORE PUSH1 0x80 SWAP1 DUP2 ADD MLOAD ISZERO ISZERO SWAP1 DUP9 ADD MSTORE PUSH1 0xA0 SWAP1 SWAP7 ADD SWAP6 SWAP3 DUP2 ADD SWAP3 DUP5 ADD PUSH2 0x1190 JUMP JUMPDEST SWAP5 PUSH1 0x5 DUP6 DUP3 SWAP10 SWAP8 PUSH1 0x40 SWAP10 SWAP8 SWAP10 MLOAD PUSH2 0x11FB DUP2 PUSH2 0x1B56 JUMP JUMPDEST DUP6 SLOAD DUP2 MSTORE PUSH1 0x1 PUSH1 0x1 PUSH1 0xA0 SHL SUB DUP6 DUP8 ADD SLOAD AND DUP4 DUP3 ADD MSTORE PUSH1 0x2 DUP7 ADD SLOAD PUSH1 0x40 DUP3 ADD MSTORE PUSH1 0x3 DUP7 ADD SLOAD PUSH1 0x60 DUP3 ADD MSTORE PUSH1 0xFF PUSH1 0x4 DUP8 ADD SLOAD AND ISZERO ISZERO PUSH1 0x80 DUP3 ADD MSTORE DUP2 MSTORE ADD SWAP3 ADD SWAP3 ADD SWAP2 SWAP1 SWAP7 SWAP5 SWAP7 SWAP6 SWAP4 SWAP6 PUSH2 0x116E JUMP JUMPDEST CALLVALUE PUSH2 0x12A JUMPI PUSH1 0x40 CALLDATASIZE PUSH1 0x3 NOT ADD SLT PUSH2 0x12A JUMPI PUSH2 0x1260 PUSH2 0x1C74 JUMP JUMPDEST PUSH1 0x1 PUSH1 0x1 PUSH1 0xA0 SHL SUB PUSH1 0x24 CALLDATALOAD SWAP2 AND PUSH0 MSTORE PUSH1 0x3 PUSH1 0x20 MSTORE PUSH1 0x40 PUSH0 KECCAK256 DUP1 SLOAD DUP3 LT ISZERO PUSH2 0x12A JUMPI PUSH1 0x20 SWAP2 PUSH2 0x128D SWAP2 PUSH2 0x1C8A JUMP JUMPDEST SWAP1 SLOAD SWAP1 PUSH1 0x3 SHL SHR PUSH1 0x40 MLOAD SWAP1 DUP2 MSTORE RETURN JUMPDEST CALLVALUE PUSH2 0x12A JUMPI PUSH1 0x20 DUP1 PUSH1 0x3 NOT CALLDATASIZE ADD SLT PUSH2 0x12A JUMPI PUSH1 0x4 CALLDATALOAD PUSH8 0xFFFFFFFFFFFFFFFF DUP2 GT PUSH2 0x12A JUMPI PUSH2 0x12CE SWAP1 CALLDATASIZE SWAP1 PUSH1 0x4 ADD PUSH2 0x1CB3 JUMP JUMPDEST SWAP1 PUSH0 DUP1 SWAP2 PUSH1 0x4 SLOAD SWAP2 DUP2 DUP6 ADD SWAP4 JUMPDEST DUP4 DUP2 LT PUSH2 0x14DD JUMPI POP PUSH2 0x12EC SWAP1 PUSH2 0x1FEC JUMP JUMPDEST SWAP3 PUSH0 SWAP2 PUSH0 JUMPDEST DUP5 DUP2 LT PUSH2 0x1306 JUMPI PUSH1 0x40 MLOAD DUP1 PUSH2 0xD6F DUP9 DUP3 PUSH2 0x1DBA JUMP JUMPDEST DUP1 PUSH0 MSTORE PUSH0 DUP3 MSTORE PUSH1 0x4 PUSH1 0x40 PUSH0 KECCAK256 ADD PUSH1 0x40 MLOAD SWAP1 PUSH0 SWAP2 DUP2 SLOAD SWAP3 DUP2 PUSH2 0x1326 DUP6 PUSH2 0x1B01 JUMP JUMPDEST SWAP2 DUP3 DUP3 MSTORE DUP8 DUP3 ADD SWAP5 PUSH1 0x1 SWAP7 DUP10 DUP9 DUP3 AND SWAP2 DUP3 PUSH0 EQ PUSH2 0x14BF JUMPI POP POP PUSH1 0x1 EQ PUSH2 0x147F JUMPI JUMPDEST POP PUSH2 0x1354 SWAP3 POP SUB DUP3 PUSH2 0x1B72 JUMP JUMPDEST MLOAD SWAP1 KECCAK256 DUP9 MLOAD DUP6 KECCAK256 EQ DUP1 PUSH2 0x1468 JUMPI JUMPDEST DUP1 PUSH2 0x1452 JUMPI JUMPDEST PUSH2 0x1376 JUMPI JUMPDEST POP PUSH1 0x1 ADD PUSH2 0x12F1 JUMP JUMPDEST DUP2 SWAP5 PUSH2 0x144B SWAP2 PUSH1 0x1 SWAP4 PUSH0 MSTORE PUSH0 DUP6 MSTORE PUSH1 0x40 PUSH0 KECCAK256 PUSH1 0x1 PUSH1 0x1 PUSH1 0xA0 SHL SUB PUSH1 0x40 MLOAD SWAP3 PUSH2 0x139D DUP5 PUSH2 0x1B39 JUMP JUMPDEST DUP3 SLOAD DUP5 MSTORE DUP3 ADD SLOAD AND DUP7 DUP4 ADD MSTORE PUSH2 0x13B5 PUSH1 0x2 DUP3 ADD PUSH2 0x1B94 JUMP JUMPDEST PUSH1 0x40 DUP4 ADD MSTORE PUSH2 0x13C6 PUSH1 0x3 DUP3 ADD PUSH2 0x1B94 JUMP JUMPDEST PUSH1 0x60 DUP4 ADD MSTORE PUSH2 0x13D7 PUSH1 0x4 DUP3 ADD PUSH2 0x1B94 JUMP JUMPDEST PUSH1 0x80 DUP4 ADD MSTORE PUSH1 0x5 DUP2 ADD SLOAD PUSH1 0xA0 DUP4 ADD MSTORE PUSH1 0x6 DUP2 ADD SLOAD PUSH1 0xC0 DUP4 ADD MSTORE PUSH1 0x7 DUP2 ADD SLOAD PUSH1 0xE0 DUP4 ADD MSTORE PUSH1 0x8 DUP1 SWAP2 ADD SLOAD DUP1 SWAP2 PUSH1 0xFF SWAP3 DUP4 SWAP2 DUP3 DUP3 AND ISZERO ISZERO PUSH2 0x100 DUP8 ADD MSTORE SHR AND ISZERO ISZERO PUSH2 0x120 DUP5 ADD MSTORE DUP2 DUP2 PUSH1 0x10 SHR AND ISZERO ISZERO PUSH2 0x140 DUP5 ADD MSTORE PUSH1 0x18 SHR AND ISZERO ISZERO PUSH2 0x160 DUP3 ADD MSTORE PUSH2 0x1440 DUP3 DUP11 PUSH2 0x203B JUMP JUMPDEST MSTORE PUSH2 0xFB2 DUP2 DUP10 PUSH2 0x203B JUMP JUMPDEST SWAP4 SWAP1 PUSH2 0x136D JUMP JUMPDEST POP DUP2 PUSH0 MSTORE PUSH0 DUP4 MSTORE PUSH1 0x7 PUSH1 0x40 PUSH0 KECCAK256 ADD SLOAD TIMESTAMP LT PUSH2 0x1368 JUMP JUMPDEST POP DUP2 PUSH0 MSTORE PUSH0 DUP4 MSTORE PUSH1 0xFF PUSH1 0x8 PUSH1 0x40 PUSH0 KECCAK256 ADD SLOAD AND PUSH2 0x1362 JUMP JUMPDEST SWAP2 POP POP PUSH0 MSTORE DUP2 DUP7 DUP1 PUSH0 KECCAK256 SWAP3 DUP7 PUSH0 SWAP5 JUMPDEST DUP3 DUP7 LT PUSH2 0x14A5 JUMPI POP POP POP PUSH2 0x1354 SWAP3 DUP3 ADD ADD DUP14 PUSH2 0x1347 JUMP JUMPDEST DUP1 SWAP2 SWAP3 SWAP5 POP SLOAD DUP4 DUP7 DUP9 ADD ADD MSTORE ADD SWAP3 ADD SWAP2 DUP4 SWAP2 DUP7 DUP10 SWAP3 PUSH2 0x148E JUMP JUMPDEST PUSH1 0xFF NOT AND DUP9 MSTORE PUSH2 0x1354 SWAP6 ISZERO ISZERO PUSH1 0x5 SHL DUP6 ADD ADD SWAP3 POP DUP16 SWAP2 POP PUSH2 0x1347 SWAP1 POP JUMP JUMPDEST DUP1 PUSH0 MSTORE PUSH0 DUP4 MSTORE PUSH1 0x4 PUSH1 0x40 PUSH0 KECCAK256 ADD PUSH1 0x40 MLOAD PUSH0 DUP2 DUP4 SLOAD SWAP2 PUSH2 0x14FB DUP4 PUSH2 0x1B01 JUMP JUMPDEST DUP1 DUP4 MSTORE DUP9 DUP4 ADD SWAP6 PUSH1 0x1 SWAP5 DUP11 DUP7 DUP3 AND SWAP2 DUP3 PUSH0 EQ PUSH2 0x15C8 JUMPI POP POP PUSH1 0x1 EQ PUSH2 0x158B JUMPI JUMPDEST POP POP PUSH2 0x1529 SWAP3 POP SUB DUP3 PUSH2 0x1B72 JUMP JUMPDEST MLOAD SWAP1 KECCAK256 DUP7 MLOAD DUP7 KECCAK256 EQ DUP1 PUSH2 0x1574 JUMPI JUMPDEST DUP1 PUSH2 0x155E JUMPI JUMPDEST PUSH2 0x154A JUMPI JUMPDEST PUSH1 0x1 ADD PUSH2 0x12DB JUMP JUMPDEST SWAP1 PUSH2 0x1556 PUSH1 0x1 SWAP2 PUSH2 0x1F6C JUMP JUMPDEST SWAP2 SWAP1 POP PUSH2 0x1542 JUMP JUMPDEST POP DUP1 PUSH0 MSTORE PUSH0 DUP4 MSTORE PUSH1 0x7 PUSH1 0x40 PUSH0 KECCAK256 ADD SLOAD TIMESTAMP LT PUSH2 0x153D JUMP JUMPDEST POP DUP1 PUSH0 MSTORE PUSH0 DUP4 MSTORE PUSH1 0xFF PUSH1 0x8 PUSH1 0x40 PUSH0 KECCAK256 ADD SLOAD AND PUSH2 0x1537 JUMP JUMPDEST DUP10 SWAP3 POP PUSH0 MSTORE DUP2 PUSH0 KECCAK256 SWAP4 PUSH0 SWAP5 JUMPDEST DUP3 DUP7 LT PUSH2 0x15AF JUMPI POP POP POP PUSH2 0x1529 SWAP3 DUP3 ADD ADD DUP12 DUP1 PUSH2 0x151B JUMP JUMPDEST DUP1 SLOAD DUP7 DUP9 ADD DUP6 ADD MSTORE SWAP3 SWAP1 SWAP5 ADD SWAP4 DUP6 SWAP4 POP DUP10 SWAP3 DUP2 ADD PUSH2 0x1597 JUMP JUMPDEST SWAP3 POP SWAP4 POP POP PUSH2 0x1529 SWAP5 POP PUSH1 0xFF NOT AND DUP7 MSTORE ISZERO ISZERO PUSH1 0x5 SHL DUP3 ADD ADD DUP12 DUP1 PUSH2 0x151B JUMP JUMPDEST CALLVALUE PUSH2 0x12A JUMPI PUSH0 CALLDATASIZE PUSH1 0x3 NOT ADD SLT PUSH2 0x12A JUMPI PUSH1 0x20 PUSH1 0x40 MLOAD PUSH1 0xA DUP2 MSTORE RETURN JUMPDEST CALLVALUE PUSH2 0x12A JUMPI PUSH1 0x20 DUP1 PUSH1 0x3 NOT CALLDATASIZE ADD SLT PUSH2 0x12A JUMPI PUSH1 0x4 CALLDATALOAD PUSH2 0x1624 PUSH1 0x4 SLOAD DUP3 LT PUSH2 0x1E71 JUMP JUMPDEST DUP1 PUSH0 MSTORE PUSH0 DUP3 MSTORE PUSH1 0x40 PUSH0 KECCAK256 SWAP2 PUSH1 0x7 DUP4 ADD SLOAD TIMESTAMP LT PUSH2 0x17D9 JUMPI PUSH1 0x8 DUP4 ADD SLOAD PUSH1 0xFF DUP2 PUSH1 0x8 SHR AND PUSH2 0x1795 JUMPI PUSH1 0xFF PUSH2 0x165A SWAP2 PUSH1 0x10 SHR AND ISZERO PUSH2 0x1F07 JUMP JUMPDEST PUSH0 SWAP3 DUP3 PUSH0 MSTORE PUSH1 0x1 DUP1 DUP4 MSTORE DUP1 PUSH1 0x40 PUSH0 KECCAK256 PUSH0 SWAP2 JUMPDEST PUSH2 0x1713 JUMPI JUMPDEST POP POP POP DUP4 ISZERO PUSH2 0x16CF JUMPI PUSH1 0x6 ADD PUSH2 0x1688 DUP5 DUP3 SLOAD PUSH2 0x1F52 JUMP JUMPDEST SWAP1 SSTORE PUSH0 DUP1 DUP1 DUP1 DUP7 CALLER DUP3 CALL ISZERO PUSH2 0x16C4 JUMPI PUSH32 0x7A482FDEB6BC9A1376F597068A214A7A39472BB2EFF1B8CAD21BA04F49DDCA1B SWAP1 PUSH1 0x40 MLOAD SWAP4 DUP5 MSTORE CALLER SWAP4 LOG3 STOP JUMPDEST PUSH1 0x40 MLOAD RETURNDATASIZE PUSH0 DUP3 RETURNDATACOPY RETURNDATASIZE SWAP1 REVERT JUMPDEST PUSH1 0x64 DUP3 PUSH1 0x40 MLOAD SWAP1 PUSH3 0x461BCD PUSH1 0xE5 SHL DUP3 MSTORE PUSH1 0x4 DUP3 ADD MSTORE PUSH1 0x16 PUSH1 0x24 DUP3 ADD MSTORE PUSH32 0x4E6F20646F6E6174696F6E7320746F20726566756E6400000000000000000000 PUSH1 0x44 DUP3 ADD MSTORE REVERT JUMPDEST DUP1 SLOAD DUP3 LT ISZERO PUSH2 0x1790 JUMPI DUP3 DUP3 PUSH2 0x1729 DUP3 SWAP5 DUP5 PUSH2 0x1E1D JUMP JUMPDEST POP DUP3 ADD SLOAD PUSH1 0x1 PUSH1 0x1 PUSH1 0xA0 SHL SUB AND CALLER EQ DUP1 PUSH2 0x1779 JUMPI JUMPDEST PUSH2 0x174A JUMPI JUMPDEST ADD SWAP2 PUSH2 0x166C JUMP JUMPDEST PUSH0 PUSH2 0x1766 PUSH2 0x1758 DUP4 DUP7 PUSH2 0x1E1D JUMP JUMPDEST POP SWAP11 PUSH1 0x2 DUP1 SWAP13 ADD SLOAD SWAP1 PUSH2 0x1F5F JUMP JUMPDEST SWAP10 PUSH2 0x1771 DUP4 DUP7 PUSH2 0x1E1D JUMP JUMPDEST POP ADD SSTORE PUSH2 0x1743 JUMP JUMPDEST POP PUSH1 0x2 PUSH2 0x1786 DUP3 DUP6 PUSH2 0x1E1D JUMP JUMPDEST POP ADD SLOAD ISZERO ISZERO PUSH2 0x173E JUMP JUMPDEST PUSH2 0x1671 JUMP JUMPDEST PUSH1 0x64 DUP3 PUSH1 0x40 MLOAD SWAP1 PUSH3 0x461BCD PUSH1 0xE5 SHL DUP3 MSTORE PUSH1 0x4 DUP3 ADD MSTORE PUSH1 0x10 PUSH1 0x24 DUP3 ADD MSTORE PUSH32 0x476F616C20776173207265616368656400000000000000000000000000000000 PUSH1 0x44 DUP3 ADD MSTORE REVERT JUMPDEST PUSH1 0x64 SWAP1 PUSH1 0x40 MLOAD SWAP1 PUSH3 0x461BCD PUSH1 0xE5 SHL DUP3 MSTORE PUSH1 0x4 DUP3 ADD MSTORE PUSH1 0x15 PUSH1 0x24 DUP3 ADD MSTORE PUSH32 0x43616D706169676E207374696C6C206163746976650000000000000000000000 PUSH1 0x44 DUP3 ADD MSTORE REVERT JUMPDEST CALLVALUE PUSH2 0x12A JUMPI PUSH1 0x40 CALLDATASIZE PUSH1 0x3 NOT ADD SLT PUSH2 0x12A JUMPI PUSH2 0x1836 PUSH2 0x1C74 JUMP JUMPDEST PUSH1 0x1 PUSH1 0x1 PUSH1 0xA0 SHL SUB PUSH1 0x24 CALLDATALOAD SWAP2 AND PUSH0 MSTORE PUSH1 0x2 PUSH1 0x20 MSTORE PUSH1 0x40 PUSH0 KECCAK256 DUP1 SLOAD DUP3 LT ISZERO PUSH2 0x12A JUMPI PUSH1 0x20 SWAP2 PUSH2 0x1863 SWAP2 PUSH2 0x1C8A JUMP JUMPDEST SWAP1 SLOAD PUSH1 0x40 MLOAD SWAP2 PUSH1 0x3 SHL SHR DUP2 MSTORE RETURN JUMPDEST CALLVALUE PUSH2 0x12A JUMPI PUSH1 0x20 DUP1 PUSH1 0x3 NOT CALLDATASIZE ADD SLT PUSH2 0x12A JUMPI PUSH1 0x4 CALLDATALOAD PUSH2 0x1893 PUSH1 0x4 SLOAD DUP3 LT PUSH2 0x1E71 JUMP JUMPDEST DUP1 PUSH0 MSTORE PUSH0 DUP3 MSTORE PUSH2 0x18B4 PUSH1 0x1 PUSH1 0x1 PUSH1 0xA0 SHL SUB PUSH1 0x1 PUSH1 0x40 PUSH0 KECCAK256 ADD SLOAD AND CALLER EQ PUSH2 0x1EBC JUMP JUMPDEST DUP1 PUSH0 MSTORE PUSH0 DUP3 MSTORE PUSH1 0x40 PUSH0 KECCAK256 PUSH1 0x8 DUP2 ADD DUP1 SLOAD SWAP2 PUSH1 0xFF DUP4 PUSH1 0x8 SHR AND ISZERO PUSH2 0x19AA JUMPI PUSH1 0x6 SWAP1 PUSH2 0x18E4 PUSH1 0xFF DUP6 PUSH1 0x10 SHR AND ISZERO PUSH2 0x1F07 JUMP JUMPDEST ADD SLOAD SWAP2 DUP3 ISZERO PUSH2 0x1966 JUMPI PUSH3 0x10000 SWAP1 PUSH3 0xFF00FF NOT AND OR SWAP1 SSTORE PUSH1 0xA DUP2 MUL SWAP1 DUP1 DUP3 DIV PUSH1 0xA SUB PUSH2 0x734 JUMPI PUSH2 0x3E8 PUSH2 0x1918 SWAP3 DIV SWAP1 PUSH2 0x1F52 JUMP JUMPDEST SWAP2 DUP3 PUSH0 DUP2 ISZERO PUSH2 0x195D JUMPI JUMPDEST PUSH0 DUP1 DUP1 SWAP4 DUP2 SWAP4 CALLER SWAP1 CALL ISZERO PUSH2 0x16C4 JUMPI PUSH32 0xF440AEC6B52895984D061D622E6EDEBA6210F7C3E059BE920663140C084560D7 SWAP1 PUSH1 0x40 MLOAD SWAP4 DUP5 MSTORE CALLER SWAP4 LOG3 STOP JUMPDEST POP PUSH2 0x8FC PUSH2 0x1922 JUMP JUMPDEST PUSH1 0x64 DUP6 PUSH1 0x40 MLOAD SWAP1 PUSH3 0x461BCD PUSH1 0xE5 SHL DUP3 MSTORE PUSH1 0x4 DUP3 ADD MSTORE PUSH1 0x14 PUSH1 0x24 DUP3 ADD MSTORE PUSH32 0x4E6F2066756E647320746F207769746864726177000000000000000000000000 PUSH1 0x44 DUP3 ADD MSTORE REVERT JUMPDEST PUSH1 0x64 DUP6 PUSH1 0x40 MLOAD SWAP1 PUSH3 0x461BCD PUSH1 0xE5 SHL DUP3 MSTORE PUSH1 0x4 DUP3 ADD MSTORE PUSH1 0x10 PUSH1 0x24 DUP3 ADD MSTORE PUSH32 0x476F616C206E6F74207265616368656400000000000000000000000000000000 PUSH1 0x44 DUP3 ADD MSTORE REVERT JUMPDEST CALLVALUE PUSH2 0x12A JUMPI PUSH1 0x20 CALLDATASIZE PUSH1 0x3 NOT ADD SLT PUSH2 0x12A JUMPI PUSH1 0x4 CALLDATALOAD PUSH0 MSTORE PUSH0 PUSH1 0x20 MSTORE PUSH1 0x40 PUSH0 KECCAK256 PUSH1 0x40 DUP2 SLOAD SWAP2 PUSH1 0xFF PUSH1 0x1 PUSH1 0x1 PUSH1 0xA0 SHL SUB PUSH1 0x1 DUP4 ADD SLOAD AND PUSH2 0x1A2D PUSH1 0x2 DUP5 ADD PUSH2 0x1B94 JUMP JUMPDEST SWAP3 PUSH2 0x1A3A PUSH1 0x3 DUP3 ADD PUSH2 0x1B94 JUMP JUMPDEST SWAP4 PUSH2 0x1AA0 PUSH2 0x1A4A PUSH1 0x4 DUP5 ADD PUSH2 0x1B94 JUMP JUMPDEST PUSH2 0x1A92 PUSH1 0x5 DUP6 ADD SLOAD SWAP8 PUSH2 0x1A84 PUSH1 0x6 DUP8 ADD SLOAD SWAP6 PUSH1 0x8 PUSH1 0x7 DUP10 ADD SLOAD SWAP9 ADD SLOAD SWAP9 DUP13 MLOAD SWAP14 DUP15 SWAP14 DUP15 PUSH2 0x180 SWAP4 DUP5 SWAP4 DUP3 MSTORE PUSH1 0x20 DUP3 ADD MSTORE ADD MSTORE DUP13 ADD SWAP1 PUSH2 0x1C36 JUMP JUMPDEST SWAP1 DUP11 DUP3 SUB PUSH1 0x60 DUP13 ADD MSTORE PUSH2 0x1C36 JUMP JUMPDEST SWAP1 DUP9 DUP3 SUB PUSH1 0x80 DUP11 ADD MSTORE PUSH2 0x1C36 JUMP JUMPDEST SWAP5 PUSH1 0xA0 DUP8 ADD MSTORE PUSH1 0xC0 DUP7 ADD MSTORE PUSH1 0xE0 DUP6 ADD MSTORE DUP2 DUP2 AND ISZERO ISZERO PUSH2 0x100 DUP6 ADD MSTORE DUP2 DUP2 PUSH1 0x8 SHR AND ISZERO ISZERO PUSH2 0x120 DUP6 ADD MSTORE DUP2 DUP2 PUSH1 0x10 SHR AND ISZERO ISZERO PUSH2 0x140 DUP6 ADD MSTORE PUSH1 0x18 SHR AND ISZERO ISZERO PUSH2 0x160 DUP4 ADD MSTORE SUB SWAP1 RETURN JUMPDEST CALLVALUE PUSH2 0x12A JUMPI PUSH0 CALLDATASIZE PUSH1 0x3 NOT ADD SLT PUSH2 0x12A JUMPI PUSH1 0x20 SWAP1 PUSH1 0x5 SLOAD DUP2 MSTORE RETURN JUMPDEST SWAP1 PUSH1 0x1 DUP3 DUP2 SHR SWAP3 AND DUP1 ISZERO PUSH2 0x1B2F JUMPI JUMPDEST PUSH1 0x20 DUP4 LT EQ PUSH2 0x1B1B JUMPI JUMP JUMPDEST PUSH4 0x4E487B71 PUSH1 0xE0 SHL PUSH0 MSTORE PUSH1 0x22 PUSH1 0x4 MSTORE PUSH1 0x24 PUSH0 REVERT JUMPDEST SWAP2 PUSH1 0x7F AND SWAP2 PUSH2 0x1B10 JUMP JUMPDEST PUSH2 0x180 DUP2 ADD SWAP1 DUP2 LT PUSH8 0xFFFFFFFFFFFFFFFF DUP3 GT OR PUSH2 0x594 JUMPI PUSH1 0x40 MSTORE JUMP JUMPDEST PUSH1 0xA0 DUP2 ADD SWAP1 DUP2 LT PUSH8 0xFFFFFFFFFFFFFFFF DUP3 GT OR PUSH2 0x594 JUMPI PUSH1 0x40 MSTORE JUMP JUMPDEST SWAP1 PUSH1 0x1F DUP1 NOT SWAP2 ADD AND DUP2 ADD SWAP1 DUP2 LT PUSH8 0xFFFFFFFFFFFFFFFF DUP3 GT OR PUSH2 0x594 JUMPI PUSH1 0x40 MSTORE JUMP JUMPDEST SWAP1 PUSH1 0x40 MLOAD SWAP2 DUP3 PUSH0 DUP3 SLOAD PUSH2 0x1BA6 DUP2 PUSH2 0x1B01 JUMP JUMPDEST SWAP1 DUP2 DUP5 MSTORE PUSH1 0x20 SWAP5 PUSH1 0x1 SWAP2 PUSH1 0x1 DUP2 AND SWAP1 DUP2 PUSH0 EQ PUSH2 0x1C14 JUMPI POP PUSH1 0x1 EQ PUSH2 0x1BD6 JUMPI JUMPDEST POP POP POP PUSH2 0x1BD4 SWAP3 POP SUB DUP4 PUSH2 0x1B72 JUMP JUMPDEST JUMP JUMPDEST PUSH0 SWAP1 DUP2 MSTORE DUP6 DUP2 KECCAK256 SWAP6 SWAP4 POP SWAP2 SWAP1 JUMPDEST DUP2 DUP4 LT PUSH2 0x1BFC JUMPI POP POP PUSH2 0x1BD4 SWAP4 POP DUP3 ADD ADD PUSH0 DUP1 DUP1 PUSH2 0x1BC5 JUMP JUMPDEST DUP6 SLOAD DUP9 DUP5 ADD DUP6 ADD MSTORE SWAP5 DUP6 ADD SWAP5 DUP8 SWAP5 POP SWAP2 DUP4 ADD SWAP2 PUSH2 0x1BE3 JUMP JUMPDEST SWAP3 POP POP POP PUSH2 0x1BD4 SWAP5 SWAP3 POP PUSH1 0xFF NOT AND DUP3 DUP5 ADD MSTORE ISZERO ISZERO PUSH1 0x5 SHL DUP3 ADD ADD PUSH0 DUP1 DUP1 PUSH2 0x1BC5 JUMP JUMPDEST SWAP2 SWAP1 DUP3 MLOAD SWAP3 DUP4 DUP3 MSTORE PUSH0 JUMPDEST DUP5 DUP2 LT PUSH2 0x1C60 JUMPI POP POP DUP3 PUSH0 PUSH1 0x20 DUP1 SWAP5 SWAP6 DUP5 ADD ADD MSTORE PUSH1 0x1F DUP1 NOT SWAP2 ADD AND ADD ADD SWAP1 JUMP JUMPDEST PUSH1 0x20 DUP2 DUP4 ADD DUP2 ADD MLOAD DUP5 DUP4 ADD DUP3 ADD MSTORE ADD PUSH2 0x1C40 JUMP JUMPDEST PUSH1 0x4 CALLDATALOAD SWAP1 PUSH1 0x1 PUSH1 0x1 PUSH1 0xA0 SHL SUB DUP3 AND DUP3 SUB PUSH2 0x12A JUMPI JUMP JUMPDEST DUP1 SLOAD DUP3 LT ISZERO PUSH2 0x1C9F JUMPI PUSH0 MSTORE PUSH1 0x20 PUSH0 KECCAK256 ADD SWAP1 PUSH0 SWAP1 JUMP JUMPDEST PUSH4 0x4E487B71 PUSH1 0xE0 SHL PUSH0 MSTORE PUSH1 0x32 PUSH1 0x4 MSTORE PUSH1 0x24 PUSH0 REVERT JUMPDEST DUP2 PUSH1 0x1F DUP3 ADD SLT ISZERO PUSH2 0x12A JUMPI DUP1 CALLDATALOAD SWAP1 PUSH8 0xFFFFFFFFFFFFFFFF DUP3 GT PUSH2 0x594 JUMPI PUSH1 0x40 MLOAD SWAP3 PUSH2 0x1CE8 PUSH1 0x1F DUP5 ADD PUSH1 0x1F NOT AND PUSH1 0x20 ADD DUP6 PUSH2 0x1B72 JUMP JUMPDEST DUP3 DUP5 MSTORE PUSH1 0x20 DUP4 DUP4 ADD ADD GT PUSH2 0x12A JUMPI DUP2 PUSH0 SWAP3 PUSH1 0x20 DUP1 SWAP4 ADD DUP4 DUP7 ADD CALLDATACOPY DUP4 ADD ADD MSTORE SWAP1 JUMP JUMPDEST SWAP1 PUSH2 0x1D65 PUSH2 0x1D53 PUSH2 0x1D41 PUSH2 0x180 DUP6 MLOAD DUP6 MSTORE PUSH1 0x1 PUSH1 0x1 PUSH1 0xA0 SHL SUB PUSH1 0x20 DUP8 ADD MLOAD AND PUSH1 0x20 DUP7 ADD MSTORE PUSH1 0x40 DUP7 ADD MLOAD SWAP1 DUP1 PUSH1 0x40 DUP8 ADD MSTORE DUP6 ADD SWAP1 PUSH2 0x1C36 JUMP JUMPDEST PUSH1 0x60 DUP6 ADD MLOAD DUP5 DUP3 SUB PUSH1 0x60 DUP7 ADD MSTORE PUSH2 0x1C36 JUMP JUMPDEST PUSH1 0x80 DUP5 ADD MLOAD DUP4 DUP3 SUB PUSH1 0x80 DUP6 ADD MSTORE PUSH2 0x1C36 JUMP JUMPDEST SWAP2 PUSH1 0xA0 DUP2 ADD MLOAD PUSH1 0xA0 DUP4 ADD MSTORE PUSH1 0xC0 DUP2 ADD MLOAD PUSH1 0xC0 DUP4 ADD MSTORE PUSH1 0xE0 DUP2 ADD MLOAD PUSH1 0xE0 DUP4 ADD MSTORE PUSH2 0x100 DUP1 DUP3 ADD MLOAD ISZERO ISZERO SWAP1 DUP4 ADD MSTORE PUSH2 0x120 DUP1 DUP3 ADD MLOAD ISZERO ISZERO SWAP1 DUP4 ADD MSTORE PUSH2 0x140 DUP1 DUP3 ADD MLOAD ISZERO ISZERO SWAP1 DUP4 ADD MSTORE PUSH2 0x160 DUP1 SWAP2 ADD MLOAD ISZERO ISZERO SWAP2 ADD MSTORE SWAP1 JUMP JUMPDEST PUSH1 0x20 DUP1 DUP3 ADD SWAP1 PUSH1 0x20 DUP4 MSTORE DUP4 MLOAD DUP1 SWAP3 MSTORE PUSH1 0x40 DUP4 ADD SWAP3 PUSH1 0x20 PUSH1 0x40 DUP5 PUSH1 0x5 SHL DUP4 ADD ADD SWAP6 ADD SWAP4 PUSH0 SWAP2 JUMPDEST DUP5 DUP4 LT PUSH2 0x1DEF JUMPI POP POP POP POP POP POP SWAP1 JUMP JUMPDEST SWAP1 SWAP2 SWAP3 SWAP4 SWAP5 SWAP6 DUP5 DUP1 PUSH2 0x1E0D PUSH1 0x1 SWAP4 PUSH1 0x3F NOT DUP7 DUP3 SUB ADD DUP8 MSTORE DUP11 MLOAD PUSH2 0x1D09 JUMP JUMPDEST SWAP9 ADD SWAP4 ADD SWAP4 ADD SWAP2 SWAP5 SWAP4 SWAP3 SWAP1 PUSH2 0x1DDF JUMP JUMPDEST DUP1 SLOAD DUP3 LT ISZERO PUSH2 0x1C9F JUMPI PUSH0 MSTORE PUSH1 0x5 PUSH1 0x20 PUSH0 KECCAK256 SWAP2 MUL ADD SWAP1 PUSH0 SWAP1 JUMP JUMPDEST PUSH1 0x20 SWAP1 PUSH1 0x20 PUSH1 0x40 DUP2 DUP4 ADD SWAP3 DUP3 DUP2 MSTORE DUP6 MLOAD DUP1 SWAP5 MSTORE ADD SWAP4 ADD SWAP2 PUSH0 JUMPDEST DUP3 DUP2 LT PUSH2 0x1E5D JUMPI POP POP POP POP SWAP1 JUMP JUMPDEST DUP4 MLOAD DUP6 MSTORE SWAP4 DUP2 ADD SWAP4 SWAP3 DUP2 ADD SWAP3 PUSH1 0x1 ADD PUSH2 0x1E4F JUMP JUMPDEST ISZERO PUSH2 0x1E78 JUMPI JUMP JUMPDEST PUSH1 0x64 PUSH1 0x40 MLOAD PUSH3 0x461BCD PUSH1 0xE5 SHL DUP2 MSTORE PUSH1 0x20 PUSH1 0x4 DUP3 ADD MSTORE PUSH1 0x17 PUSH1 0x24 DUP3 ADD MSTORE PUSH32 0x43616D706169676E20646F6573206E6F74206578697374000000000000000000 PUSH1 0x44 DUP3 ADD MSTORE REVERT JUMPDEST ISZERO PUSH2 0x1EC3 JUMPI JUMP JUMPDEST PUSH1 0x64 PUSH1 0x40 MLOAD PUSH3 0x461BCD PUSH1 0xE5 SHL DUP2 MSTORE PUSH1 0x20 PUSH1 0x4 DUP3 ADD MSTORE PUSH1 0x14 PUSH1 0x24 DUP3 ADD MSTORE PUSH32 0x4E6F742063616D706169676E2063726561746F72000000000000000000000000 PUSH1 0x44 DUP3 ADD MSTORE REVERT JUMPDEST ISZERO PUSH2 0x1F0E JUMPI JUMP JUMPDEST PUSH1 0x64 PUSH1 0x40 MLOAD PUSH3 0x461BCD PUSH1 0xE5 SHL DUP2 MSTORE PUSH1 0x20 PUSH1 0x4 DUP3 ADD MSTORE PUSH1 0x17 PUSH1 0x24 DUP3 ADD MSTORE PUSH32 0x46756E647320616C72656164792077697468647261776E000000000000000000 PUSH1 0x44 DUP3 ADD MSTORE REVERT JUMPDEST SWAP2 SWAP1 DUP3 SUB SWAP2 DUP3 GT PUSH2 0x734 JUMPI JUMP JUMPDEST SWAP2 SWAP1 DUP3 ADD DUP1 SWAP3 GT PUSH2 0x734 JUMPI JUMP JUMPDEST PUSH0 NOT DUP2 EQ PUSH2 0x734 JUMPI PUSH1 0x1 ADD SWAP1 JUMP JUMPDEST PUSH8 0xFFFFFFFFFFFFFFFF DUP2 GT PUSH2 0x594 JUMPI PUSH1 0x5 SHL PUSH1 0x20 ADD SWAP1 JUMP JUMPDEST PUSH1 0x40 MLOAD SWAP1 PUSH2 0x1F9F DUP3 PUSH2 0x1B39 JUMP JUMPDEST PUSH0 PUSH2 0x160 DUP4 DUP3 DUP2 MSTORE DUP3 PUSH1 0x20 DUP3 ADD MSTORE PUSH1 0x60 PUSH1 0x40 DUP3 ADD MSTORE PUSH1 0x60 DUP1 DUP3 ADD MSTORE PUSH1 0x60 PUSH1 0x80 DUP3 ADD MSTORE DUP3 PUSH1 0xA0 DUP3 ADD MSTORE DUP3 PUSH1 0xC0 DUP3 ADD MSTORE DUP3 PUSH1 0xE0 DUP3 ADD MSTORE DUP3 PUSH2 0x100 DUP3 ADD MSTORE DUP3 PUSH2 0x120 DUP3 ADD MSTORE DUP3 PUSH2 0x140 DUP3 ADD MSTORE ADD MSTORE JUMP JUMPDEST SWAP1 PUSH2 0x1FF6 DUP3 PUSH2 0x1F7A JUMP JUMPDEST PUSH2 0x2003 PUSH1 0x40 MLOAD SWAP2 DUP3 PUSH2 0x1B72 JUMP JUMPDEST DUP3 DUP2 MSTORE DUP1 SWAP3 PUSH2 0x2014 PUSH1 0x1F NOT SWAP2 PUSH2 0x1F7A JUMP JUMPDEST ADD SWAP1 PUSH0 JUMPDEST DUP3 DUP2 LT PUSH2 0x2024 JUMPI POP POP POP JUMP JUMPDEST PUSH1 0x20 SWAP1 PUSH2 0x202F PUSH2 0x1F92 JUMP JUMPDEST DUP3 DUP3 DUP6 ADD ADD MSTORE ADD PUSH2 0x2018 JUMP JUMPDEST DUP1 MLOAD DUP3 LT ISZERO PUSH2 0x1C9F JUMPI PUSH1 0x20 SWAP2 PUSH1 0x5 SHL ADD ADD SWAP1 JUMP JUMPDEST DUP1 SLOAD PUSH9 0x10000000000000000 DUP2 LT ISZERO PUSH2 0x594 JUMPI PUSH2 0x2071 SWAP2 PUSH1 0x1 DUP3 ADD DUP2 SSTORE PUSH2 0x1C8A JUMP JUMPDEST DUP2 SWAP3 SWAP2 SLOAD SWAP1 PUSH1 0x3 SHL SWAP2 DUP3 SHL SWAP2 PUSH0 NOT SWAP1 SHL NOT AND OR SWAP1 SSTORE JUMP INVALID LOG2 PUSH5 0x6970667358 0x22 SLT KECCAK256 0xBE EXP SWAP10 DUP1 DUP13 CALLDATALOAD PUSH16 0x1904C8A644E642DF98AB02EBBB38EFD1 DUP9 0x27 0x26 PUSH32 0x76E1099D6964736F6C6343000818003300000000000000000000000000000000 "},"methodIdentifiers":{"PLATFORM_FEE()":"34fbc9a1","campaignCounter()":"fca604d7","campaignDonations(uint256,uint256)":"70879ff7","campaigns(uint256)":"141961bc","createCampaign(string,string,string,uint256,uint256,bool)":"f7cfb5c3","donate(uint256,bool)":"ca6a04a5","emergencyPause(uint256)":"ad3fbe30","getAllActiveCampaigns()":"5cc3224e","getAnonymousStats(uint256)":"bc7ba95c","getCampaign(uint256)":"5598f8cc","getCampaignDonations(uint256)":"5167642f","getCampaignsByCategory(string)":"45f5b737","getContractStats()":"dfe6b5d6","getUserCampaigns(address)":"a1e5084c","getUserDonations(address)":"732435b2","refund(uint256)":"278ecde1","totalCampaigns()":"02932f56","totalDonations()":"de2ed893","userCampaigns(address,uint256)":"19ac74bd","userDonations(address,uint256)":"4933e631","withdrawFunds(uint256)":"155dd5ee"}}}}}