{
  "_format": "hh-sol-artifact-1",
  "contractName": "PrivacyCrowdfunding",
  "sourceName": "contracts/PrivacyCrowdfunding.sol",
  "abi": [
    {
      "anonymous": false,
      "inputs": [
        {
          "indexed": true,
          "internalType": "uint256",
          "name": "campaignId",
          "type": "uint256"
        },
        {
          "indexed": true,
          "internalType": "address",
          "name": "creator",
          "type": "address"
        },
        {
          "indexed": false,
          "internalType": "string",
          "name": "title",
          "type": "string"
        },
        {
          "indexed": false,
          "internalType": "uint256",
          "name": "goal",
          "type": "uint256"
        },
        {
          "indexed": false,
          "internalType": "uint256",
          "name": "deadline",
          "type": "uint256"
        }
      ],
      "name": "CampaignCreated",
      "type": "event"
    },
    {
      "anonymous": false,
      "inputs": [
        {
          "indexed": true,
          "internalType": "uint256",
          "name": "campaignId",
          "type": "uint256"
        },
        {
          "indexed": true,
          "internalType": "address",
          "name": "donor",
          "type": "address"
        },
        {
          "indexed": false,
          "internalType": "uint256",
          "name": "amount",
          "type": "uint256"
        },
        {
          "indexed": false,
          "internalType": "bool",
          "name": "isAnonymous",
          "type": "bool"
        }
      ],
      "name": "DonationMade",
      "type": "event"
    },
    {
      "anonymous": false,
      "inputs": [
        {
          "indexed": true,
          "internalType": "uint256",
          "name": "campaignId",
          "type": "uint256"
        },
        {
          "indexed": true,
          "internalType": "address",
          "name": "creator",
          "type": "address"
        },
        {
          "indexed": false,
          "internalType": "uint256",
          "name": "amount",
          "type": "uint256"
        }
      ],
      "name": "FundsWithdrawn",
      "type": "event"
    },
    {
      "anonymous": false,
      "inputs": [
        {
          "indexed": true,
          "internalType": "uint256",
          "name": "campaignId",
          "type": "uint256"
        },
        {
          "indexed": true,
          "internalType": "address",
          "name": "donor",
          "type": "address"
        },
        {
          "indexed": false,
          "internalType": "uint256",
          "name": "amount",
          "type": "uint256"
        }
      ],
      "name": "RefundIssued",
      "type": "event"
    },
    {
      "stateMutability": "payable",
      "type": "fallback"
    },
    {
      "inputs": [],
      "name": "campaignCounter",
      "outputs": [
        {
          "internalType": "uint256",
          "name": "",
          "type": "uint256"
        }
      ],
      "stateMutability": "view",
      "type": "function"
    },
    {
      "inputs": [
        {
          "internalType": "uint256",
          "name": "",
          "type": "uint256"
        },
        {
          "internalType": "uint256",
          "name": "",
          "type": "uint256"
        }
      ],
      "name": "campaignDonations",
      "outputs": [
        {
          "internalType": "uint256",
          "name": "campaignId",
          "type": "uint256"
        },
        {
          "internalType": "address",
          "name": "donor",
          "type": "address"
        },
        {
          "internalType": "uint256",
          "name": "amount",
          "type": "uint256"
        },
        {
          "internalType": "uint256",
          "name": "timestamp",
          "type": "uint256"
        },
        {
          "internalType": "bool",
          "name": "isAnonymous",
          "type": "bool"
        }
      ],
      "stateMutability": "view",
      "type": "function"
    },
    {
      "inputs": [
        {
          "internalType": "uint256",
          "name": "",
          "type": "uint256"
        }
      ],
      "name": "campaigns",
      "outputs": [
        {
          "internalType": "uint256",
          "name": "id",
          "type": "uint256"
        },
        {
          "internalType": "address",
          "name": "creator",
          "type": "address"
        },
        {
          "internalType": "string",
          "name": "title",
          "type": "string"
        },
        {
          "internalType": "string",
          "name": "description",
          "type": "string"
        },
        {
          "internalType": "string",
          "name": "category",
          "type": "string"
        },
        {
          "internalType": "uint256",
          "name": "goal",
          "type": "uint256"
        },
        {
          "internalType": "uint256",
          "name": "raised",
          "type": "uint256"
        },
        {
          "internalType": "uint256",
          "name": "deadline",
          "type": "uint256"
        },
        {
          "internalType": "bool",
          "name": "isActive",
          "type": "bool"
        },
        {
          "internalType": "bool",
          "name": "goalReached",
          "type": "bool"
        },
        {
          "internalType": "bool",
          "name": "fundsWithdrawn",
          "type": "bool"
        }
      ],
      "stateMutability": "view",
      "type": "function"
    },
    {
      "inputs": [
        {
          "internalType": "string",
          "name": "_title",
          "type": "string"
        },
        {
          "internalType": "string",
          "name": "_description",
          "type": "string"
        },
        {
          "internalType": "string",
          "name": "_category",
          "type": "string"
        },
        {
          "internalType": "uint256",
          "name": "_goal",
          "type": "uint256"
        },
        {
          "internalType": "uint256",
          "name": "_durationDays",
          "type": "uint256"
        }
      ],
      "name": "createCampaign",
      "outputs": [
        {
          "internalType": "uint256",
          "name": "",
          "type": "uint256"
        }
      ],
      "stateMutability": "nonpayable",
      "type": "function"
    },
    {
      "inputs": [
        {
          "internalType": "uint256",
          "name": "_campaignId",
          "type": "uint256"
        },
        {
          "internalType": "bool",
          "name": "_isAnonymous",
          "type": "bool"
        }
      ],
      "name": "donate",
      "outputs": [],
      "stateMutability": "payable",
      "type": "function"
    },
    {
      "inputs": [
        {
          "internalType": "uint256",
          "name": "_campaignId",
          "type": "uint256"
        }
      ],
      "name": "emergencyPause",
      "outputs": [],
      "stateMutability": "nonpayable",
      "type": "function"
    },
    {
      "inputs": [],
      "name": "getAllActiveCampaigns",
      "outputs": [
        {
          "components": [
            {
              "internalType": "uint256",
              "name": "id",
              "type": "uint256"
            },
            {
              "internalType": "address",
              "name": "creator",
              "type": "address"
            },
            {
              "internalType": "string",
              "name": "title",
              "type": "string"
            },
            {
              "internalType": "string",
              "name": "description",
              "type": "string"
            },
            {
              "internalType": "string",
              "name": "category",
              "type": "string"
            },
            {
              "internalType": "uint256",
              "name": "goal",
              "type": "uint256"
            },
            {
              "internalType": "uint256",
              "name": "raised",
              "type": "uint256"
            },
            {
              "internalType": "uint256",
              "name": "deadline",
              "type": "uint256"
            },
            {
              "internalType": "bool",
              "name": "isActive",
              "type": "bool"
            },
            {
              "internalType": "bool",
              "name": "goalReached",
              "type": "bool"
            },
            {
              "internalType": "bool",
              "name": "fundsWithdrawn",
              "type": "bool"
            }
          ],
          "internalType": "struct PrivacyCrowdfunding.Campaign[]",
          "name": "",
          "type": "tuple[]"
        }
      ],
      "stateMutability": "view",
      "type": "function"
    },
    {
      "inputs": [
        {
          "internalType": "uint256",
          "name": "_campaignId",
          "type": "uint256"
        }
      ],
      "name": "getCampaign",
      "outputs": [
        {
          "components": [
            {
              "internalType": "uint256",
              "name": "id",
              "type": "uint256"
            },
            {
              "internalType": "address",
              "name": "creator",
              "type": "address"
            },
            {
              "internalType": "string",
              "name": "title",
              "type": "string"
            },
            {
              "internalType": "string",
              "name": "description",
              "type": "string"
            },
            {
              "internalType": "string",
              "name": "category",
              "type": "string"
            },
            {
              "internalType": "uint256",
              "name": "goal",
              "type": "uint256"
            },
            {
              "internalType": "uint256",
              "name": "raised",
              "type": "uint256"
            },
            {
              "internalType": "uint256",
              "name": "deadline",
              "type": "uint256"
            },
            {
              "internalType": "bool",
              "name": "isActive",
              "type": "bool"
            },
            {
              "internalType": "bool",
              "name": "goalReached",
              "type": "bool"
            },
            {
              "internalType": "bool",
              "name": "fundsWithdrawn",
              "type": "bool"
            }
          ],
          "internalType": "struct PrivacyCrowdfunding.Campaign",
          "name": "",
          "type": "tuple"
        }
      ],
      "stateMutability": "view",
      "type": "function"
    },
    {
      "inputs": [
        {
          "internalType": "uint256",
          "name": "_campaignId",
          "type": "uint256"
        }
      ],
      "name": "getCampaignDonations",
      "outputs": [
        {
          "components": [
            {
              "internalType": "uint256",
              "name": "campaignId",
              "type": "uint256"
            },
            {
              "internalType": "address",
              "name": "donor",
              "type": "address"
            },
            {
              "internalType": "uint256",
              "name": "amount",
              "type": "uint256"
            },
            {
              "internalType": "uint256",
              "name": "timestamp",
              "type": "uint256"
            },
            {
              "internalType": "bool",
              "name": "isAnonymous",
              "type": "bool"
            }
          ],
          "internalType": "struct PrivacyCrowdfunding.Donation[]",
          "name": "",
          "type": "tuple[]"
        }
      ],
      "stateMutability": "view",
      "type": "function"
    },
    {
      "inputs": [
        {
          "internalType": "string",
          "name": "_category",
          "type": "string"
        }
      ],
      "name": "getCampaignsByCategory",
      "outputs": [
        {
          "components": [
            {
              "internalType": "uint256",
              "name": "id",
              "type": "uint256"
            },
            {
              "internalType": "address",
              "name": "creator",
              "type": "address"
            },
            {
              "internalType": "string",
              "name": "title",
              "type": "string"
            },
            {
              "internalType": "string",
              "name": "description",
              "type": "string"
            },
            {
              "internalType": "string",
              "name": "category",
              "type": "string"
            },
            {
              "internalType": "uint256",
              "name": "goal",
              "type": "uint256"
            },
            {
              "internalType": "uint256",
              "name": "raised",
              "type": "uint256"
            },
            {
              "internalType": "uint256",
              "name": "deadline",
              "type": "uint256"
            },
            {
              "internalType": "bool",
              "name": "isActive",
              "type": "bool"
            },
            {
              "internalType": "bool",
              "name": "goalReached",
              "type": "bool"
            },
            {
              "internalType": "bool",
              "name": "fundsWithdrawn",
              "type": "bool"
            }
          ],
          "internalType": "struct PrivacyCrowdfunding.Campaign[]",
          "name": "",
          "type": "tuple[]"
        }
      ],
      "stateMutability": "view",
      "type": "function"
    },
    {
      "inputs": [],
      "name": "getContractStats",
      "outputs": [
        {
          "internalType": "uint256",
          "name": "_totalCampaigns",
          "type": "uint256"
        },
        {
          "internalType": "uint256",
          "name": "_totalDonations",
          "type": "uint256"
        },
        {
          "internalType": "uint256",
          "name": "_platformFee",
          "type": "uint256"
        }
      ],
      "stateMutability": "view",
      "type": "function"
    },
    {
      "inputs": [
        {
          "internalType": "address",
          "name": "_user",
          "type": "address"
        }
      ],
      "name": "getUserCampaigns",
      "outputs": [
        {
          "internalType": "uint256[]",
          "name": "",
          "type": "uint256[]"
        }
      ],
      "stateMutability": "view",
      "type": "function"
    },
    {
      "inputs": [
        {
          "internalType": "address",
          "name": "_user",
          "type": "address"
        }
      ],
      "name": "getUserDonations",
      "outputs": [
        {
          "internalType": "uint256[]",
          "name": "",
          "type": "uint256[]"
        }
      ],
      "stateMutability": "view",
      "type": "function"
    },
    {
      "inputs": [],
      "name": "platformFee",
      "outputs": [
        {
          "internalType": "uint256",
          "name": "",
          "type": "uint256"
        }
      ],
      "stateMutability": "view",
      "type": "function"
    },
    {
      "inputs": [
        {
          "internalType": "uint256",
          "name": "_campaignId",
          "type": "uint256"
        }
      ],
      "name": "refund",
      "outputs": [],
      "stateMutability": "nonpayable",
      "type": "function"
    },
    {
      "inputs": [],
      "name": "totalCampaigns",
      "outputs": [
        {
          "internalType": "uint256",
          "name": "",
          "type": "uint256"
        }
      ],
      "stateMutability": "view",
      "type": "function"
    },
    {
      "inputs": [],
      "name": "totalDonations",
      "outputs": [
        {
          "internalType": "uint256",
          "name": "",
          "type": "uint256"
        }
      ],
      "stateMutability": "view",
      "type": "function"
    },
    {
      "inputs": [
        {
          "internalType": "address",
          "name": "",
          "type": "address"
        },
        {
          "internalType": "uint256",
          "name": "",
          "type": "uint256"
        }
      ],
      "name": "userCampaigns",
      "outputs": [
        {
          "internalType": "uint256",
          "name": "",
          "type": "uint256"
        }
      ],
      "stateMutability": "view",
      "type": "function"
    },
    {
      "inputs": [
        {
          "internalType": "address",
          "name": "",
          "type": "address"
        },
        {
          "internalType": "uint256",
          "name": "",
          "type": "uint256"
        }
      ],
      "name": "userDonations",
      "outputs": [
        {
          "internalType": "uint256",
          "name": "",
          "type": "uint256"
        }
      ],
      "stateMutability": "view",
      "type": "function"
    },
    {
      "inputs": [
        {
          "internalType": "uint256",
          "name": "_campaignId",
          "type": "uint256"
        }
      ],
      "name": "withdrawFunds",
      "outputs": [],
      "stateMutability": "nonpayable",
      "type": "function"
    },
    {
      "stateMutability": "payable",
      "type": "receive"
    }
  ],
  "bytecode": "0x6080806040523461001b57600a600755611f1190816100208239f35b5f80fdfe608080604052600436101561001a575b50361561001857005b005b60e05f35811c91826302932f561461194e57508163141961bc14611864578163155dd5ee146116e757816319ac74bd1461169357816326232a2e14611676578163278ecde11461147857816345f5b7371461113d5781634933e631146110e85781635167642f14610fb55781635598f8cc14610eca5781635cc3224e14610d3857816370879ff714610cbd578163732435b214610c47578163980f2e661461053857508063a1e5084c146104b2578063ad3fbe3014610456578063ca6a04a514610170578063de2ed89314610153578063dfe6b5d6146101255763fca604d714610104575f61000f565b34610121575f366003190112610121576020600454604051908152f35b5f80fd5b34610121575f3660031901126101215760606005546006546007549060405192835260208301526040820152f35b34610121575f366003190112610121576020600654604051908152f35b60403660031901126101215760248035801591600435918315908181036101215761019e6004548510611ccb565b835f526020945f865260ff600860405f200154161561041357845f525f8652600760405f2001544210156103d057341561038d57845f525f865260405f20600681016101eb348254611db9565b809155600582015411158061037b575b610365575b50811561035e575f935b604051610216816119bd565b8681528781016001600160a01b03809716815260408201348152606083019142835260808401938885528a5f5260018c5260405f208054906801000000000000000082101561034b579061026f91600182018155611c77565b96909661033a5750936102f2937f665ae3d7b1878285ba5b24aad2297e9585ab3110185e2d75a78f33772084e9b59a98969360049360409b99975186558a6001870191511673ffffffffffffffffffffffffffffffffffffffff1982541617905551600285015551600384015551151591019060ff801983541691151516179055565b610322575b610302600654611dc6565b6006551561031b575f905b8351963488528701521693a3005b339061030d565b335f526003875261033586855f20611ea2565b6102f7565b634e487b7160e01b5f525f6004525ffd5b87634e487b7160e01b5f5260416004525ffd5b339361020a565b600801805461ff00191661010017905586610200565b5060ff600882015460081c16156101fb565b606486601f866040519262461bcd60e51b845260048401528201527f446f6e6174696f6e206d7573742062652067726561746572207468616e2030006044820152fd5b606486600e866040519262461bcd60e51b845260048401528201527f43616d706169676e20656e6465640000000000000000000000000000000000006044820152fd5b6064866013866040519262461bcd60e51b845260048401528201527f43616d706169676e206e6f7420616374697665000000000000000000000000006044820152fd5b34610121576020366003190112610121576004356104776004548210611ccb565b805f525f6020526104996001600160a01b03600160405f200154163314611d16565b5f525f602052600860405f200160ff1981541690555f80f35b3461012157602080600319360112610121576001600160a01b036104d4611adb565b165f52600260205260405f20906040519081602084549182815201935f5260205f20915f905b8282106105215761051d85610511818903826119d9565b60405191829182611c90565b0390f35b8354865294850194600193840193909101906104fa565b346101215760a03660031901126101215760043567ffffffffffffffff811161012157610569903690600401611b1a565b9060243567ffffffffffffffff81116101215761058a903690600401611b1a565b9060443567ffffffffffffffff8111610121576105ab903690600401611b1a565b9060843592845115610c0357805115610bbf5760643515610b7b57831593841580610b6f575b15610b2b57600454946105e386611dc6565b60045562015180808302928304141715610b17576106019042611db9565b926040519161060f836119a0565b8583523360208401528660408401526060830152608082015260643560a08201525f60c0820152828282015260016101008201525f6101208201525f610140820152835f525f60205260405f2081518155600181016001600160a01b0360208401511673ffffffffffffffffffffffffffffffffffffffff19825416179055604082015180519067ffffffffffffffff82116109715781906106b46002850154611968565b601f8111610ac7575b50602090601f8311600114610a59575f92610a4e575b50508160011b915f199060031b1c19161760028201555b606082015180519067ffffffffffffffff82116109715781906107106003850154611968565b601f81116109fe575b50602090601f8311600114610990575f92610985575b50508160011b915f199060031b1c19161760038201555b608082015180519067ffffffffffffffff82116109715761076a6004840154611968565b601f811161092d575b5091869391602098938990601f83116001146108975791807fdc26653af5b99b2da33e2ad69ee6600d9aeccc82b034501db4338309615ca238979892600895945f9261088c575b50508160011b915f199060031b1c19161760048301555b60a0840151600583015560c084015160068301558301516007820155019061080c6101008201511515839060ff801983541691151516179055565b61012081015115159061ff0062ff00006101408554930151151560101b169260081b169062ffff00191617179055335f526002865261084e8360405f20611ea2565b610859600554611dc6565b60055561087160405191606083526060830190611a9d565b936064358783015260408201528033940390a3604051908152f35b015190508c806107ba565b60048498939298015f528a5f20905f5b601f19841681106109135750916001917fdc26653af5b99b2da33e2ad69ee6600d9aeccc82b034501db4338309615ca2389899600896959483601f198116106108fb575b505050811b0160048301556107d1565b01515f1960f88460031b161c191690558c80806108eb565b818a01518355988c01988b98506001909201918c016108a7565b600484015f5260205f20601f840160051c81016020851061096a575b601f830160051c8201811061095f575050610773565b5f8155600101610949565b5080610949565b634e487b7160e01b5f52604160045260245ffd5b01519050888061072f565b9250600384015f5260205f20905f935b601f19841685106109e3576001945083601f198116106109cb575b505050811b016003820155610746565b01515f1960f88460031b161c191690558880806109bb565b818101518355602094850194600190930192909101906109a0565b909150600384015f5260205f20601f840160051c810160208510610a47575b90849392915b601f830160051c82018110610a39575050610719565b5f8155859450600101610a23565b5080610a1d565b0151905088806106d3565b9250600284015f5260205f20905f935b601f1984168510610aac576001945083601f19811610610a94575b505050811b0160028201556106ea565b01515f1960f88460031b161c19169055888080610a84565b81810151835560209485019460019093019290910190610a69565b909150600284015f5260205f20601f840160051c810160208510610b10575b90849392915b601f830160051c82018110610b025750506106bd565b5f8155859450600101610aec565b5080610ae6565b634e487b7160e01b5f52601160045260245ffd5b606460405162461bcd60e51b815260206004820152601060248201527f496e76616c6964206475726174696f6e000000000000000000000000000000006044820152fd5b5061016d8111156105d1565b606460405162461bcd60e51b815260206004820152601b60248201527f476f616c206d7573742062652067726561746572207468616e203000000000006044820152fd5b606460405162461bcd60e51b815260206004820152601b60248201527f4465736372697074696f6e2063616e6e6f7420626520656d70747900000000006044820152fd5b606460405162461bcd60e51b815260206004820152601560248201527f5469746c652063616e6e6f7420626520656d70747900000000000000000000006044820152fd5b3461012157602080600319360112610121576001600160a01b03610c69611adb565b165f52600360205260405f20906040519081602084549182815201935f5260205f20915f905b828210610ca65761051d85610511818903826119d9565b835486529485019460019384019390910190610c8f565b34610121576040366003190112610121576024356004355f52600160205260405f2080548210156101215760a091610cf491611c77565b508054906001600160a01b0360018201541690600281015460ff60046003840154930154169260405194855260208501526040840152606083015215156080820152f35b34610121575f366003190112610121576004545f805b828110610e805750610d5f90611e3f565b915f905f5b838110610d79576040518061051d8782611c14565b805f5260205f815260405f206008808201549060ff9283831690818092610e73575b610dae575b505050505050600101610d64565b93838193610e67979593600760019a9c9860405198610dcc8a6119a0565b81548a526001600160a01b038d83015416908a0152610ded600282016119fb565b60408a0152610dfe600382016119fb565b60608a0152610e0f600482016119fb565b60808a0152600581015460a08a0152600681015460c08a015201548b88015215156101008701521c16151561012084015260101c161515610140820152610e568289611e8e565b52610e618188611e8e565b50611dc6565b92908680808080610da0565b5060078101544210610d9b565b805f525f60205260405f2060ff6008820154169081610ebc575b50610ea8575b600101610d4e565b90610eb4600191611dc6565b919050610ea0565b600791500154421085610e9a565b346101215760203660031901126101215761051d90600435610eea611dec565b50610ef86004548210611ccb565b5f525f60205260ff600860405f2060405193610f13856119a0565b815485526001600160a01b036001830154166020860152610f36600283016119fb565b6040860152610f47600383016119fb565b6060860152610f58600483016119fb565b6080860152600582015460a0860152600682015460c086015260078201549085015201548181161515610100840152818160081c16151561012084015260101c161515610140820152604051918291602083526020830190611b70565b346101215760208060031936011261012157600435610fd76004548210611ccb565b5f526001906001815260405f2091825491610ff183611dd4565b92610fff60405194856119d9565b80845281840180955f52825f205f915b83831061108657505050506040519281840190828552518091526040840194915f5b82811061103e5785870386f35b835180518852828101516001600160a01b031683890152604080820151908901526060808201519089015260809081015115159088015260a090960195928101928401611031565b9460058582999760409997995161109c816119bd565b855481526001600160a01b03858701541683820152600286015460408201526003860154606082015260ff6004870154161515608082015281520192019201919096949695939561100f565b3461012157604036600319011261012157611101611adb565b6001600160a01b0360243591165f52600360205260405f2080548210156101215760209161112e91611af1565b90549060031b1c604051908152f35b34610121576020806003193601126101215760043567ffffffffffffffff81116101215761116f903690600401611b1a565b5f905f9360045492848301955b84811061136e575061118d90611e3f565b935f915f5b8581106111a7576040518061051d8982611c14565b805f525f8352600460405f2001604051905f91815492816111c785611968565b91828252888201946001968a88821691825f14611350575050600114611310575b506111f5925003826119d9565b51902086518a2014806112f9575b806112e3575b611217575b50600101611192565b81946112dc916001935f525f865260405f206001600160a01b036040519261123e846119a0565b825484528201541687830152611256600282016119fb565b6040830152611267600382016119fb565b6060830152611278600482016119fb565b6080830152600581015460a0830152600681015460c083015260078101548683015260089081015460ff80821615156101008501529181901c8216151561012084015260101c1615156101408201526112d1828b611e8e565b52610e61818a611e8e565b939061120e565b50815f525f8452600760405f2001544210611209565b50815f525f845260ff600860405f20015416611203565b9150505f528187805f2092865f945b828610611336575050506111f5928201018e6111e8565b809192945054838688010152019201918391868a9261131f565b915092506111f594915060ff19168652151560051b8201018e6111e8565b805f525f8652600460405f20016040515f8183549161138c83611968565b8083528b8301956001948d86821691825f1461145957505060011461141c575b50506113ba925003826119d9565b519020845188201480611405575b806113ef575b6113db575b60010161117c565b906113e7600191611dc6565b9190506113d3565b50805f525f8652600760405f20015442106113ce565b50805f525f865260ff600860405f200154166113c8565b8c92505f52815f20935f945b828610611440575050506113ba928201018c806113ac565b805486880185015292909401938593508c928101611428565b92509350506113ba945060ff19168652151560051b8201018c806113ac565b34610121576020806003193601126101215760043561149a6004548210611ccb565b805f525f825260405f20916007830154421061163257600883015460ff8160081c166115ee5760ff6114d09160101c1615611d61565b5f92825f5260018083528060405f205f915b611589575b5050508315611545576006016114fe848254611dac565b90555f808080863382f11561153a577f7a482fdeb6bc9a1376f597068a214a7a39472bb2eff1b8cad21ba04f49ddca1b906040519384523393a3005b6040513d5f823e3d90fd5b6064826040519062461bcd60e51b82526004820152601660248201527f4e6f20646f6e6174696f6e7320746f20726566756e64000000000000000000006044820152fd5b80548210156115e957828261159f829484611c77565b508201546001600160a01b031633146115ba575b01916114e2565b5f6115d66115c88386611c77565b509a6002809c015490611db9565b996115e18386611c77565b5001556115b3565b6114e7565b6064826040519062461bcd60e51b82526004820152601060248201527f476f616c207761732072656163686564000000000000000000000000000000006044820152fd5b6064906040519062461bcd60e51b82526004820152601560248201527f43616d706169676e207374696c6c2061637469766500000000000000000000006044820152fd5b34610121575f366003190112610121576020600754604051908152f35b34610121576040366003190112610121576116ac611adb565b6001600160a01b0360243591165f52600260205260405f208054821015610121576020916116d991611af1565b90546040519160031b1c8152f35b3461012157602080600319360112610121576004356117096004548210611ccb565b805f525f825261172a6001600160a01b03600160405f200154163314611d16565b805f525f825260405f206008810180549160ff8360081c16156118205760069061175a60ff8560101c1615611d61565b01549182156117dc5762ff00ff191662010000179055600754818102919081830403610b17576103e861178e920490611dac565b91825f81156117d3575b5f80809381933390f11561153a577ff440aec6b52895984d061d622e6edeba6210f7c3e059be920663140c084560d7906040519384523393a3005b506108fc611798565b6064856040519062461bcd60e51b82526004820152601460248201527f4e6f2066756e647320746f2077697468647261770000000000000000000000006044820152fd5b6064856040519062461bcd60e51b82526004820152601060248201527f476f616c206e6f742072656163686564000000000000000000000000000000006044820152fd5b34610121576020366003190112610121576004355f525f6020526040805f209160ff8354936001600160a01b03600182015416906118a4600282016119fb565b936118b1600383016119fb565b946119176118c1600485016119fb565b6119096005860154986118fb600688015495600860078a0154990154998d519e8f9e8f6101609384938252602082015201528d0190611a9d565b908b820360608d0152611a9d565b9089820360808b0152611a9d565b9560a088015260c08701528501528181161515610100850152818160081c16151561012085015260101c1615156101408301520390f35b34610121575f366003190112610121576020906005548152f35b90600182811c92168015611996575b602083101461198257565b634e487b7160e01b5f52602260045260245ffd5b91607f1691611977565b610160810190811067ffffffffffffffff82111761097157604052565b60a0810190811067ffffffffffffffff82111761097157604052565b90601f8019910116810190811067ffffffffffffffff82111761097157604052565b9060405191825f8254611a0d81611968565b908184526020946001916001811690815f14611a7b5750600114611a3d575b505050611a3b925003836119d9565b565b5f90815285812095935091905b818310611a63575050611a3b93508201015f8080611a2c565b85548884018501529485019487945091830191611a4a565b92505050611a3b94925060ff191682840152151560051b8201015f8080611a2c565b91908251928382525f5b848110611ac7575050825f602080949584010152601f8019910116010190565b602081830181015184830182015201611aa7565b600435906001600160a01b038216820361012157565b8054821015611b06575f5260205f2001905f90565b634e487b7160e01b5f52603260045260245ffd5b81601f820112156101215780359067ffffffffffffffff82116109715760405192611b4f601f8401601f1916602001856119d9565b8284526020838301011161012157815f926020809301838601378301015290565b90611bcc611bba611ba8610160855185526001600160a01b036020870151166020860152604086015190806040870152850190611a9d565b60608501518482036060860152611a9d565b60808401518382036080850152611a9d565b9160a081015160a083015260c081015160c083015260e081015160e0830152610100808201511515908301526101208082015115159083015261014080910151151591015290565b6020808201906020835283518092526040830192602060408460051b8301019501935f915b848310611c495750505050505090565b9091929394958480611c67600193603f198682030187528a51611b70565b9801930193019194939290611c39565b8054821015611b06575f52600560205f20910201905f90565b60209060206040818301928281528551809452019301915f5b828110611cb7575050505090565b835185529381019392810192600101611ca9565b15611cd257565b606460405162461bcd60e51b815260206004820152601760248201527f43616d706169676e20646f6573206e6f742065786973740000000000000000006044820152fd5b15611d1d57565b606460405162461bcd60e51b815260206004820152601460248201527f4e6f742063616d706169676e2063726561746f720000000000000000000000006044820152fd5b15611d6857565b606460405162461bcd60e51b815260206004820152601760248201527f46756e647320616c72656164792077697468647261776e0000000000000000006044820152fd5b91908203918211610b1757565b91908201809211610b1757565b5f198114610b175760010190565b67ffffffffffffffff81116109715760051b60200190565b60405190611df9826119a0565b5f6101408382815282602082015260606040820152606080820152606060808201528260a08201528260c08201528260e082015282610100820152826101208201520152565b90611e4982611dd4565b611e5660405191826119d9565b8281528092611e67601f1991611dd4565b01905f5b828110611e7757505050565b602090611e82611dec565b82828501015201611e6b565b8051821015611b065760209160051b010190565b80546801000000000000000081101561097157611ec491600182018155611af1565b819291549060031b91821b915f19901b191617905556fea2646970667358221220f320d1a6e1adaf34bf8d068080dc227dfff477b0ac7773329de5cf455c46353364736f6c63430008180033",
  "linkReferences": {},
  "deployedLinkReferences": {}
}