{
  "_format": "hh-sol-artifact-1",
  "contractName": "CreditAnalyzer",
  "sourceName": "contracts/CreditAnalyzer.sol",
  "abi": [
    {
      "inputs": [],
      "stateMutability": "nonpayable",
      "type": "constructor"
    },
    {
      "anonymous": false,
      "inputs": [
        {
          "indexed": true,
          "internalType": "address",
          "name": "user",
          "type": "address"
        },
        {
          "indexed": false,
          "internalType": "uint256",
          "name": "timestamp",
          "type": "uint256"
        }
      ],
      "name": "CreditDataSubmitted",
      "type": "event"
    },
    {
      "anonymous": false,
      "inputs": [
        {
          "indexed": true,
          "internalType": "address",
          "name": "user",
          "type": "address"
        },
        {
          "indexed": false,
          "internalType": "uint256",
          "name": "timestamp",
          "type": "uint256"
        }
      ],
      "name": "CreditEvaluated",
      "type": "event"
    },
    {
      "anonymous": false,
      "inputs": [
        {
          "indexed": true,
          "internalType": "address",
          "name": "user",
          "type": "address"
        },
        {
          "indexed": false,
          "internalType": "uint256",
          "name": "timestamp",
          "type": "uint256"
        }
      ],
      "name": "LoanApprovalRequested",
      "type": "event"
    },
    {
      "inputs": [
        {
          "internalType": "address",
          "name": "",
          "type": "address"
        }
      ],
      "name": "creditEvaluations",
      "outputs": [
        {
          "internalType": "euint8",
          "name": "encryptedScore",
          "type": "bytes32"
        },
        {
          "internalType": "bool",
          "name": "isEvaluated",
          "type": "bool"
        },
        {
          "internalType": "uint256",
          "name": "evaluationTime",
          "type": "uint256"
        },
        {
          "internalType": "ebool",
          "name": "isApproved",
          "type": "bytes32"
        }
      ],
      "stateMutability": "view",
      "type": "function"
    },
    {
      "inputs": [
        {
          "internalType": "address",
          "name": "",
          "type": "address"
        }
      ],
      "name": "creditSubmissions",
      "outputs": [
        {
          "internalType": "euint32",
          "name": "encryptedIncome",
          "type": "bytes32"
        },
        {
          "internalType": "euint32",
          "name": "encryptedDebt",
          "type": "bytes32"
        },
        {
          "internalType": "euint8",
          "name": "encryptedAge",
          "type": "bytes32"
        },
        {
          "internalType": "euint8",
          "name": "encryptedCreditHistory",
          "type": "bytes32"
        },
        {
          "internalType": "euint8",
          "name": "encryptedPaymentHistory",
          "type": "bytes32"
        },
        {
          "internalType": "bool",
          "name": "hasSubmitted",
          "type": "bool"
        },
        {
          "internalType": "uint256",
          "name": "submissionTime",
          "type": "uint256"
        }
      ],
      "stateMutability": "view",
      "type": "function"
    },
    {
      "inputs": [
        {
          "internalType": "address",
          "name": "user",
          "type": "address"
        }
      ],
      "name": "evaluateCreditScore",
      "outputs": [],
      "stateMutability": "nonpayable",
      "type": "function"
    },
    {
      "inputs": [
        {
          "internalType": "address",
          "name": "user",
          "type": "address"
        }
      ],
      "name": "getEncryptedCreditScore",
      "outputs": [
        {
          "internalType": "euint8",
          "name": "",
          "type": "bytes32"
        }
      ],
      "stateMutability": "view",
      "type": "function"
    },
    {
      "inputs": [
        {
          "internalType": "address",
          "name": "user",
          "type": "address"
        }
      ],
      "name": "getEncryptedLoanApproval",
      "outputs": [
        {
          "internalType": "ebool",
          "name": "",
          "type": "bytes32"
        }
      ],
      "stateMutability": "view",
      "type": "function"
    },
    {
      "inputs": [],
      "name": "getEvaluationStats",
      "outputs": [
        {
          "internalType": "uint256",
          "name": "",
          "type": "uint256"
        }
      ],
      "stateMutability": "view",
      "type": "function"
    },
    {
      "inputs": [
        {
          "internalType": "address",
          "name": "user",
          "type": "address"
        }
      ],
      "name": "hasSubmittedCreditData",
      "outputs": [
        {
          "internalType": "bool",
          "name": "",
          "type": "bool"
        }
      ],
      "stateMutability": "view",
      "type": "function"
    },
    {
      "inputs": [
        {
          "internalType": "address",
          "name": "user",
          "type": "address"
        }
      ],
      "name": "isCreditEvaluated",
      "outputs": [
        {
          "internalType": "bool",
          "name": "",
          "type": "bool"
        }
      ],
      "stateMutability": "view",
      "type": "function"
    },
    {
      "inputs": [],
      "name": "owner",
      "outputs": [
        {
          "internalType": "address",
          "name": "",
          "type": "address"
        }
      ],
      "stateMutability": "view",
      "type": "function"
    },
    {
      "inputs": [],
      "name": "requestLoanApproval",
      "outputs": [],
      "stateMutability": "nonpayable",
      "type": "function"
    },
    {
      "inputs": [
        {
          "internalType": "euint32",
          "name": "_encryptedIncome",
          "type": "bytes32"
        },
        {
          "internalType": "euint32",
          "name": "_encryptedDebt",
          "type": "bytes32"
        },
        {
          "internalType": "euint8",
          "name": "_encryptedAge",
          "type": "bytes32"
        },
        {
          "internalType": "euint8",
          "name": "_encryptedCreditHistory",
          "type": "bytes32"
        },
        {
          "internalType": "euint8",
          "name": "_encryptedPaymentHistory",
          "type": "bytes32"
        }
      ],
      "name": "submitCreditData",
      "outputs": [],
      "stateMutability": "nonpayable",
      "type": "function"
    },
    {
      "inputs": [],
      "name": "totalEvaluations",
      "outputs": [
        {
          "internalType": "uint256",
          "name": "",
          "type": "uint256"
        }
      ],
      "stateMutability": "view",
      "type": "function"
    }
  ],
  "bytecode": "0x6080604052346101a15760606100136101a6565b600091818380935282602082015282604082015201526100316101a6565b606073687820221192c5b662b25367f70076a37bc79b6c9182815273848b0066793bcc60346da1f49049357399b8d595806020830152731364cbbf2cdf5032c47d8226a6f6fbd2afcdacac9182604082015273bc91f3dad1a5f19f8390c400196e58073b6a0bc4938491015260018060a01b0319937fed8d60e34876f751cc8b014c560745351147d9de11b9347c854e881b128ea60090858254161790557fed8d60e34876f751cc8b014c560745351147d9de11b9347c854e881b128ea60190848254161790557fed8d60e34876f751cc8b014c560745351147d9de11b9347c854e881b128ea60290838254161790557fed8d60e34876f751cc8b014c560745351147d9de11b9347c854e881b128ea60390828254161790557f5ea69329017273582817d320489fbd94f775580e90c092699ca6f3d12fdf7d0073a02cda4ca3a71d7c46997716f4283aa851c28812828254161790553390825416178155600155604051611e3490816101dc8239f35b600080fd5b60405190608082016001600160401b038111838210176101c557604052565b634e487b7160e01b600052604160045260246000fdfe608080604052600436101561001357600080fd5b60003560e01c90816304345c931461184157508063072bc2b1146117c05780630a6677ef146117a25780630e3cdf1f1461173d57806352dfbeb7146116b95780637524e6b9146116735780638a70c6e7146103f55780638cfa7d26146102515780638da5cb5b14610228578063af05aa191461016d578063b7971ed8146101275763e0f3ada8146100a357600080fd5b34610122576020366003190112610122576004356001600160a01b0381811691829003610122576100df90823314908115610114575b5061185c565b8060005260036020526100fc60ff60016040600020015416611899565b60005260036020526020604060002054604051908152f35b9050600054163314386100d9565b600080fd5b34610122576020366003190112610122576004356001600160a01b03811690819003610122576000526002602052602060ff600560406000200154166040519015158152f35b346101225760003660031901126101225733600052600260205261019b60ff600560406000200154166118d5565b33600052600360205260ff60016040600020015416156101e3576040514281527fd34e7cc606eada854f3aaeebd02d4a7b797135d587a504474e8bacf58f7be39d60203392a2005b60405162461bcd60e51b815260206004820152601860248201527f437265646974206e6f74206576616c75617465642079657400000000000000006044820152606490fd5b34610122576000366003190112610122576000546040516001600160a01b039091168152602090f35b346101225760a036600319011261012257600435602435906044356064356084359233600052600260205260ff600560406000200154166103b7576040519260e084019380851067ffffffffffffffff8611176103a1576103739661036c61036c9461036c9361036c98604052818152600660208201858152610336604084018981528d606086018d81526080870191825260a08701926001845260c0880195428752336000526002602052604060002098518955516001890155516002880155516003870155516004860155511515600585019060ff801983541691151516179055565b519101556103443082611d0d565b61034e3084611d0d565b6103583086611d0d565b6103623088611d0d565b61036c308a611d0d565b3390611d0d565b6040514281527f6d7957ef3a7789b5fc50c59ddcf771418b7c157ef0c936eed1f5405dabdbfc0160203392a2005b634e487b7160e01b600052604160045260246000fd5b60405162461bcd60e51b815260206004820152601660248201527511185d1848185b1c9958591e481cdd589b5a5d1d195960521b6044820152606490fd5b34610122576020366003190112610122576004356001600160a01b03811690036101225733600052600260205261043660ff600560406000200154166118d5565b336004356001600160a01b031614801561165f575b1561161a576004356001600160a01b031660009081526003602052604090206001015460ff166115e1576004356001600160a01b03166000908152600260205260409020610497611ae6565b9060028101546000602060018060a01b03600080516020611ddf8339815191525416604460405180948193639cd07acb60e01b835260196004840152600260248401525af190811561100f576000916115ad575b506104f860209183611943565b606461050b610505611b6b565b8761197b565b91600060018060a01b03600080516020611ddf83398151915254166040519889958694637702dcff60e01b86526004860152602485015260448401525af192831561100f57600093611579575b50600080516020611ddf83398151915254604051639cd07acb60e01b8152602860048201526002602482015290602090829060449082906000906001600160a01b03165af190811561100f57600091611546575b506105b990602092611943565b60646105cc6105c6611b6b565b8661197b565b91600060018060a01b03600080516020611ddf83398151915254166040519788958694637702dcff60e01b86526004860152602485015260448401525af191821561100f57600092611512575b506003810154602061063261062c611bc1565b83611943565b606461063f610505611b6b565b91600060018060a01b03600080516020611ddf83398151915254166040519889958694637702dcff60e01b86526004860152602485015260448401525af192831561100f576000936114dc575b506106a160209161069b611c17565b90611943565b60646106ae6105c6611b6b565b91600060018060a01b03600080516020611ddf83398151915254166040519788958694637702dcff60e01b86526004860152602485015260448401525af191821561100f576000926114a8575b5060048101546000602060018060a01b03600080516020611ddf8339815191525416604460405180948193639cd07acb60e01b835260076004840152600260248401525af190811561100f57600091611474575b5061075c60209183611943565b6064610769610505611b6b565b91600060018060a01b03600080516020611ddf83398151915254166040519889958694637702dcff60e01b86526004860152602485015260448401525af192831561100f57600093611440575b506107bf611c17565b8115611430575b801561141e575b602090606460018060a01b03600080516020611ddf8339815191525416936000604051958694859363f77f3f1d60e01b8552600485015260248401528160448401525af1801561100f576000906113eb575b6020915060646108306105c6611b6b565b91600060018060a01b03600080516020611ddf83398151915254166040519788958694637702dcff60e01b86526004860152602485015260448401525af191821561100f576000926113b7575b50600181015481546000602060018060a01b03600080516020611ddf8339815191525416604460405180948193639cd07acb60e01b8352614e206004840152600460248401525af190811561100f57600091611383575b506108e160209184611a3c565b60646108f46108ee611b6b565b88611a65565b91600060018060a01b03600080516020611ddf8339815191525416604051998a958694637702dcff60e01b86526004860152602485015260448401525af193841561100f5760009461134f575b506000602060018060a01b03600080516020611ddf8339815191525416604460405180948193639cd07acb60e01b835261c3506004840152600460248401525af190811561100f5760009161131b575b5061099e60209184611a3c565b60646109ab6108ee611b6b565b91600060018060a01b03600080516020611ddf8339815191525416604051998a958694637702dcff60e01b86526004860152602485015260448401525af193841561100f576000946112e7575b506000610a058284611a3c565b600080516020611ddf83398151915254604051639cd07acb60e01b815260026004820181905260248201529260209184916044918391906001600160a01b03165af191821561100f576000926112b2575b506064610a6560209388611a65565b91600060018060a01b03600080516020611ddf8339815191525416604051998a958694637702dcff60e01b86526004860152602485015260448401525af193841561100f5760009461127e575b506000602060018060a01b03600080516020611ddf8339815191525416604460405180948193639cd07acb60e01b835260026004840152600460248401525af190811561100f5760009161124c575b5080821561123c575b1561122a575b602090606460018060a01b03600080516020611ddf83398151915254169360006040519586948593630afe14ad60e31b8552600485015260248401528160448401525af190811561100f576000916111f7575b50610b7090602092611a3c565b6064610b83610b7d611b6b565b86611a65565b91600060018060a01b03600080516020611ddf83398151915254166040519788958694637702dcff60e01b86526004860152602485015260448401525af191821561100f576000926111c3575b50546000602060018060a01b03600080516020611ddf8339815191525416604460405180948193639cd07acb60e01b83526113886004840152600460248401525af190811561100f5760009161118f575b50610c2e60209183611a3c565b6064610c3b6105c6611b6b565b91600060018060a01b03600080516020611ddf83398151915254166040519788958694637702dcff60e01b86526004860152602485015260448401525af191821561100f5760009261115b575b506000602060018060a01b03600080516020611ddf8339815191525416604460405180948193639cd07acb60e01b83526127106004840152600460248401525af190811561100f57600091611128575b50610ce590602092611a3c565b6064610cf8610cf2611b6b565b8561197b565b91600060018060a01b03600080516020611ddf83398151915254166040519687958694637702dcff60e01b86526004860152602485015260448401525af190811561100f576000916110f6575b50610d4e611b6b565b819082156110e6575b80156110d4575b602090606460018060a01b03600080516020611ddf83398151915254169360006040519586948593637210768160e01b8552600485015260248401528160448401525af1801561100f576000906110a1575b602091506064610dbe611b6b565b91600060018060a01b03600080516020611ddf83398151915254166040519687958694637702dcff60e01b86526004860152602485015260448401525af190811561100f5760009161106f575b506020610e1961062c611bc1565b6064610e23611bc1565b91600060018060a01b03600080516020611ddf83398151915254166040519687958694637702dcff60e01b86526004860152602485015260448401525af190811561100f5760009161103d575b50610e79611ae6565b8190821561102d575b801561101b575b602090606460018060a01b03600080516020611ddf83398151915254169360006040519586948593631391547f60e01b8552600485015260248401528160448401525af190811561100f57600091610fdd575b5060405191608083019083821067ffffffffffffffff8311176103a157610f7d93610f74926040528181526003602082016001815260408301428152610f56606085019288845260018060a01b036004351660005284602052604060002095518655511515600186019060ff801983541691151516179055565b51600284015551910155610f6a3082611d0d565b610f743084611d0d565b60043590611d0d565b6001546000198114610fc7576001016001556040514281527f01f87bf59b6e6850f47c3e62c2941dfb48414640e719e6285e13791c836518dd602060018060a01b036004351692a2005b634e487b7160e01b600052601160045260246000fd5b90506020813d602011611007575b81610ff860209383611921565b81010312610122575182610edc565b3d9150610feb565b6040513d6000823e3d90fd5b506020611026611c6d565b9050610e89565b9050611037611c6d565b90610e82565b90506020813d602011611067575b8161105860209383611921565b81010312610122575181610e70565b3d915061104b565b90506020813d602011611099575b8161108a60209383611921565b81010312610122575181610e0b565b3d915061107d565b506020813d6020116110cc575b816110bb60209383611921565b810103126101225760209051610db0565b3d91506110ae565b5060206110df611c6d565b9050610d5e565b90506110f0611c6d565b90610d57565b90506020813d602011611120575b8161111160209383611921565b81010312610122575181610d45565b3d9150611104565b90506020813d602011611153575b8161114360209383611921565b8101031261012257516020610cd8565b3d9150611136565b9091506020813d602011611187575b8161117760209383611921565b8101031261012257519082610c88565b3d915061116a565b90506020813d6020116111bb575b816111aa60209383611921565b810103126101225751610c2e610c21565b3d915061119d565b9091506020813d6020116111ef575b816111df60209383611921565b8101031261012257519082610bd0565b3d91506111d2565b90506020813d602011611222575b8161121260209383611921565b8101031261012257516020610b63565b3d9150611205565b506020611235611cbd565b9050610b10565b9150611246611cbd565b91610b0a565b90506020813d602011611276575b8161126760209383611921565b81010312610122575185610b01565b3d915061125a565b9093506020813d6020116112aa575b8161129a60209383611921565b8101031261012257519284610ab2565b3d915061128d565b91506020823d6020116112df575b816112cd60209383611921565b81010312610122579051906064610a56565b3d91506112c0565b9093506020813d602011611313575b8161130360209383611921565b81010312610122575192846109f8565b3d91506112f6565b90506020813d602011611347575b8161133660209383611921565b81010312610122575161099e610991565b3d9150611329565b9093506020813d60201161137b575b8161136b60209383611921565b8101031261012257519284610941565b3d915061135e565b90506020813d6020116113af575b8161139e60209383611921565b8101031261012257516108e16108d4565b3d9150611391565b9091506020813d6020116113e3575b816113d360209383611921565b810103126101225751908261087d565b3d91506113c6565b506020813d602011611416575b8161140560209383611921565b81010312610122576020905161081f565b3d91506113f8565b506020611429611c6d565b90506107cd565b905061143a611c6d565b906107c6565b9092506020813d60201161146c575b8161145c60209383611921565b81010312610122575191836107b6565b3d915061144f565b90506020813d6020116114a0575b8161148f60209383611921565b81010312610122575161075c61074f565b3d9150611482565b9091506020813d6020116114d4575b816114c460209383611921565b81010312610122575190826106fb565b3d91506114b7565b9092506020813d60201161150a575b816114f860209383611921565b810103126101225751916106a161068c565b3d91506114eb565b9091506020813d60201161153e575b8161152e60209383611921565b8101031261012257519082610619565b3d9150611521565b90506020813d602011611571575b8161156160209383611921565b81010312610122575160206105ac565b3d9150611554565b9092506020813d6020116115a5575b8161159560209383611921565b8101031261012257519183610558565b3d9150611588565b90506020813d6020116115d9575b816115c860209383611921565b8101031261012257516104f86104eb565b3d91506115bb565b60405162461bcd60e51b8152602060048201526011602482015270105b1c9958591e48195d985b1d585d1959607a1b6044820152606490fd5b60405162461bcd60e51b815260206004820152601a60248201527f4e6f7420617574686f72697a656420746f206576616c756174650000000000006044820152606490fd5b506000546001600160a01b0316331461044b565b34610122576020366003190112610122576004356001600160a01b03811690819003610122576000526003602052602060ff600160406000200154166040519015158152f35b34610122576020366003190112610122576004356001600160a01b0381169081900361012257600052600260205260e0604060002080549060018101549060028101546003820154600483015491600660ff600586015416940154946040519687526020870152604086015260608501526080840152151560a083015260c0820152f35b34610122576020366003190112610122576004356001600160a01b038116908190036101225760005260036020526080604060002080549060ff6001820154169060036002820154910154916040519384521515602084015260408301526060820152f35b34610122576000366003190112610122576020600154604051908152f35b34610122576020366003190112610122576004356001600160a01b0381811691829003610122576117fb90823314908115611833575061185c565b80600052600360205261181860ff60016040600020015416611899565b60005260036020526020600360406000200154604051908152f35b9050600054163314836100d9565b34610122576000366003190112610122576020906001548152f35b1561186357565b60405162461bcd60e51b815260206004820152600e60248201526d139bdd08185d5d1a1bdc9a5e995960921b6044820152606490fd5b156118a057565b60405162461bcd60e51b815260206004820152600d60248201526c139bdd08195d985b1d585d1959609a1b6044820152606490fd5b156118dc57565b60405162461bcd60e51b815260206004820152601860248201527f4e6f206372656469742064617461207375626d697474656400000000000000006044820152606490fd5b90601f8019910116810190811067ffffffffffffffff8211176103a157604052565b9061195a91801561196d575b811561195d57611d89565b90565b9050611967611c6d565b90611d89565b50611976611c6d565b61194f565b8015611a2e575b8115611a1e575b60018060a01b03600080516020611ddf8339815191525416916040519163022f65e760e31b835260048301526024820152602081606481600080968160448401525af1918215611a125780926119de57505090565b9091506020823d602011611a0a575b816119fa60209383611921565b81010312611a0757505190565b80fd5b3d91506119ed565b604051903d90823e3d90fd5b9050611a28611c6d565b90611989565b50611a37611c6d565b611982565b9061195a918015611a57575b81611d89579050611967611cbd565b50611a60611cbd565b611a48565b8015611ad8575b8115611ac8575b60018060a01b03600080516020611ddf833981519152541691604051916303056db360e31b835260048301526024820152602081606481600080968160448401525af1918215611a125780926119de57505090565b9050611ad2611c6d565b90611a73565b50611ae1611c6d565b611a6c565b600080516020611ddf83398151915254604051639cd07acb60e01b8152600360048201526002602482015290602090829060449082906000906001600160a01b03165af190811561100f57600091611b3c575090565b90506020813d602011611b63575b81611b5760209383611921565b81010312610122575190565b3d9150611b4a565b600080516020611ddf83398151915254604051639cd07acb60e01b8152600160048201526002602482015290602090829060449082906000906001600160a01b03165af190811561100f57600091611b3c575090565b600080516020611ddf83398151915254604051639cd07acb60e01b8152600560048201526002602482015290602090829060449082906000906001600160a01b03165af190811561100f57600091611b3c575090565b600080516020611ddf83398151915254604051639cd07acb60e01b8152600a60048201526002602482015290602090829060449082906000906001600160a01b03165af190811561100f57600091611b3c575090565b60018060a01b03600080516020611ddf8339815191525416604051639cd07acb60e01b815260208160448160008096816004840152600260248401525af1918215611a125780926119de57505090565b60018060a01b03600080516020611ddf8339815191525416604051639cd07acb60e01b815260208160448160008096816004840152600460248401525af1918215611a125780926119de57505090565b7fed8d60e34876f751cc8b014c560745351147d9de11b9347c854e881b128ea600546001600160a01b0392908316803b1561012257600092836044926040519687958694635ca4b5b160e11b865260048601521660248401525af1801561100f57611d755750565b67ffffffffffffffff81116103a157604052565b60018060a01b03600080516020611ddf833981519152541691604051916385362ee760e01b835260048301526024820152602081606481600080968160448401525af1918215611a125780926119de5750509056feed8d60e34876f751cc8b014c560745351147d9de11b9347c854e881b128ea601a26469706673582212205ef999fa3a007e37e9b76f57ce1956a7ba49de45c28309b55f4a190dd2a6ca3764736f6c63430008180033",
  "linkReferences": {},
  "deployedLinkReferences": {}
}