{
  "_format": "hh-sol-artifact-1",
  "contractName": "FHEAnonymousCrowdfunding",
  "sourceName": "contracts/FHEAnonymousCrowdfunding.sol",
  "abi": [
    {
      "anonymous": false,
      "inputs": [
        {
          "indexed": true,
          "internalType": "uint256",
          "name": "campaignId",
          "type": "uint256"
        },
        {
          "indexed": true,
          "internalType": "address",
          "name": "creator",
          "type": "address"
        },
        {
          "indexed": false,
          "internalType": "string",
          "name": "title",
          "type": "string"
        },
        {
          "indexed": false,
          "internalType": "uint256",
          "name": "goal",
          "type": "uint256"
        },
        {
          "indexed": false,
          "internalType": "uint256",
          "name": "deadline",
          "type": "uint256"
        },
        {
          "indexed": false,
          "internalType": "bool",
          "name": "isAnonymous",
          "type": "bool"
        }
      ],
      "name": "CampaignCreated",
      "type": "event"
    },
    {
      "anonymous": false,
      "inputs": [
        {
          "indexed": true,
          "internalType": "uint256",
          "name": "campaignId",
          "type": "uint256"
        },
        {
          "indexed": true,
          "internalType": "address",
          "name": "donor",
          "type": "address"
        },
        {
          "indexed": false,
          "internalType": "uint256",
          "name": "amount",
          "type": "uint256"
        },
        {
          "indexed": false,
          "internalType": "bool",
          "name": "isAnonymous",
          "type": "bool"
        }
      ],
      "name": "DonationMade",
      "type": "event"
    },
    {
      "anonymous": false,
      "inputs": [
        {
          "indexed": true,
          "internalType": "uint256",
          "name": "campaignId",
          "type": "uint256"
        },
        {
          "indexed": true,
          "internalType": "address",
          "name": "creator",
          "type": "address"
        },
        {
          "indexed": false,
          "internalType": "uint256",
          "name": "amount",
          "type": "uint256"
        }
      ],
      "name": "FundsWithdrawn",
      "type": "event"
    },
    {
      "anonymous": false,
      "inputs": [
        {
          "indexed": true,
          "internalType": "uint256",
          "name": "campaignId",
          "type": "uint256"
        },
        {
          "indexed": true,
          "internalType": "address",
          "name": "donor",
          "type": "address"
        },
        {
          "indexed": false,
          "internalType": "uint256",
          "name": "amount",
          "type": "uint256"
        }
      ],
      "name": "RefundIssued",
      "type": "event"
    },
    {
      "stateMutability": "payable",
      "type": "fallback"
    },
    {
      "inputs": [],
      "name": "PLATFORM_FEE",
      "outputs": [
        {
          "internalType": "uint256",
          "name": "",
          "type": "uint256"
        }
      ],
      "stateMutability": "view",
      "type": "function"
    },
    {
      "inputs": [],
      "name": "campaignCounter",
      "outputs": [
        {
          "internalType": "uint256",
          "name": "",
          "type": "uint256"
        }
      ],
      "stateMutability": "view",
      "type": "function"
    },
    {
      "inputs": [
        {
          "internalType": "uint256",
          "name": "",
          "type": "uint256"
        },
        {
          "internalType": "uint256",
          "name": "",
          "type": "uint256"
        }
      ],
      "name": "campaignDonations",
      "outputs": [
        {
          "internalType": "uint256",
          "name": "campaignId",
          "type": "uint256"
        },
        {
          "internalType": "address",
          "name": "donor",
          "type": "address"
        },
        {
          "internalType": "uint256",
          "name": "amount",
          "type": "uint256"
        },
        {
          "internalType": "uint256",
          "name": "timestamp",
          "type": "uint256"
        },
        {
          "internalType": "bool",
          "name": "isAnonymous",
          "type": "bool"
        }
      ],
      "stateMutability": "view",
      "type": "function"
    },
    {
      "inputs": [
        {
          "internalType": "uint256",
          "name": "",
          "type": "uint256"
        }
      ],
      "name": "campaigns",
      "outputs": [
        {
          "internalType": "uint256",
          "name": "id",
          "type": "uint256"
        },
        {
          "internalType": "address",
          "name": "creator",
          "type": "address"
        },
        {
          "internalType": "string",
          "name": "title",
          "type": "string"
        },
        {
          "internalType": "string",
          "name": "description",
          "type": "string"
        },
        {
          "internalType": "string",
          "name": "category",
          "type": "string"
        },
        {
          "internalType": "uint256",
          "name": "goal",
          "type": "uint256"
        },
        {
          "internalType": "uint256",
          "name": "raised",
          "type": "uint256"
        },
        {
          "internalType": "uint256",
          "name": "deadline",
          "type": "uint256"
        },
        {
          "internalType": "bool",
          "name": "isActive",
          "type": "bool"
        },
        {
          "internalType": "bool",
          "name": "goalReached",
          "type": "bool"
        },
        {
          "internalType": "bool",
          "name": "fundsWithdrawn",
          "type": "bool"
        },
        {
          "internalType": "bool",
          "name": "isAnonymous",
          "type": "bool"
        }
      ],
      "stateMutability": "view",
      "type": "function"
    },
    {
      "inputs": [
        {
          "internalType": "string",
          "name": "_title",
          "type": "string"
        },
        {
          "internalType": "string",
          "name": "_description",
          "type": "string"
        },
        {
          "internalType": "string",
          "name": "_category",
          "type": "string"
        },
        {
          "internalType": "uint256",
          "name": "_goal",
          "type": "uint256"
        },
        {
          "internalType": "uint256",
          "name": "_durationDays",
          "type": "uint256"
        },
        {
          "internalType": "bool",
          "name": "_isAnonymous",
          "type": "bool"
        }
      ],
      "name": "createCampaign",
      "outputs": [
        {
          "internalType": "uint256",
          "name": "",
          "type": "uint256"
        }
      ],
      "stateMutability": "nonpayable",
      "type": "function"
    },
    {
      "inputs": [
        {
          "internalType": "uint256",
          "name": "_campaignId",
          "type": "uint256"
        },
        {
          "internalType": "bool",
          "name": "_isAnonymous",
          "type": "bool"
        }
      ],
      "name": "donate",
      "outputs": [],
      "stateMutability": "payable",
      "type": "function"
    },
    {
      "inputs": [
        {
          "internalType": "uint256",
          "name": "_campaignId",
          "type": "uint256"
        }
      ],
      "name": "emergencyPause",
      "outputs": [],
      "stateMutability": "nonpayable",
      "type": "function"
    },
    {
      "inputs": [],
      "name": "getAllActiveCampaigns",
      "outputs": [
        {
          "components": [
            {
              "internalType": "uint256",
              "name": "id",
              "type": "uint256"
            },
            {
              "internalType": "address",
              "name": "creator",
              "type": "address"
            },
            {
              "internalType": "string",
              "name": "title",
              "type": "string"
            },
            {
              "internalType": "string",
              "name": "description",
              "type": "string"
            },
            {
              "internalType": "string",
              "name": "category",
              "type": "string"
            },
            {
              "internalType": "uint256",
              "name": "goal",
              "type": "uint256"
            },
            {
              "internalType": "uint256",
              "name": "raised",
              "type": "uint256"
            },
            {
              "internalType": "uint256",
              "name": "deadline",
              "type": "uint256"
            },
            {
              "internalType": "bool",
              "name": "isActive",
              "type": "bool"
            },
            {
              "internalType": "bool",
              "name": "goalReached",
              "type": "bool"
            },
            {
              "internalType": "bool",
              "name": "fundsWithdrawn",
              "type": "bool"
            },
            {
              "internalType": "bool",
              "name": "isAnonymous",
              "type": "bool"
            }
          ],
          "internalType": "struct FHEAnonymousCrowdfunding.Campaign[]",
          "name": "",
          "type": "tuple[]"
        }
      ],
      "stateMutability": "view",
      "type": "function"
    },
    {
      "inputs": [
        {
          "internalType": "uint256",
          "name": "_campaignId",
          "type": "uint256"
        }
      ],
      "name": "getAnonymousStats",
      "outputs": [
        {
          "internalType": "uint256",
          "name": "anonymousDonations",
          "type": "uint256"
        },
        {
          "internalType": "uint256",
          "name": "publicDonations",
          "type": "uint256"
        },
        {
          "internalType": "uint256",
          "name": "totalDonationCount",
          "type": "uint256"
        }
      ],
      "stateMutability": "view",
      "type": "function"
    },
    {
      "inputs": [
        {
          "internalType": "uint256",
          "name": "_campaignId",
          "type": "uint256"
        }
      ],
      "name": "getCampaign",
      "outputs": [
        {
          "components": [
            {
              "internalType": "uint256",
              "name": "id",
              "type": "uint256"
            },
            {
              "internalType": "address",
              "name": "creator",
              "type": "address"
            },
            {
              "internalType": "string",
              "name": "title",
              "type": "string"
            },
            {
              "internalType": "string",
              "name": "description",
              "type": "string"
            },
            {
              "internalType": "string",
              "name": "category",
              "type": "string"
            },
            {
              "internalType": "uint256",
              "name": "goal",
              "type": "uint256"
            },
            {
              "internalType": "uint256",
              "name": "raised",
              "type": "uint256"
            },
            {
              "internalType": "uint256",
              "name": "deadline",
              "type": "uint256"
            },
            {
              "internalType": "bool",
              "name": "isActive",
              "type": "bool"
            },
            {
              "internalType": "bool",
              "name": "goalReached",
              "type": "bool"
            },
            {
              "internalType": "bool",
              "name": "fundsWithdrawn",
              "type": "bool"
            },
            {
              "internalType": "bool",
              "name": "isAnonymous",
              "type": "bool"
            }
          ],
          "internalType": "struct FHEAnonymousCrowdfunding.Campaign",
          "name": "",
          "type": "tuple"
        }
      ],
      "stateMutability": "view",
      "type": "function"
    },
    {
      "inputs": [
        {
          "internalType": "uint256",
          "name": "_campaignId",
          "type": "uint256"
        }
      ],
      "name": "getCampaignDonations",
      "outputs": [
        {
          "components": [
            {
              "internalType": "uint256",
              "name": "campaignId",
              "type": "uint256"
            },
            {
              "internalType": "address",
              "name": "donor",
              "type": "address"
            },
            {
              "internalType": "uint256",
              "name": "amount",
              "type": "uint256"
            },
            {
              "internalType": "uint256",
              "name": "timestamp",
              "type": "uint256"
            },
            {
              "internalType": "bool",
              "name": "isAnonymous",
              "type": "bool"
            }
          ],
          "internalType": "struct FHEAnonymousCrowdfunding.Donation[]",
          "name": "",
          "type": "tuple[]"
        }
      ],
      "stateMutability": "view",
      "type": "function"
    },
    {
      "inputs": [
        {
          "internalType": "string",
          "name": "_category",
          "type": "string"
        }
      ],
      "name": "getCampaignsByCategory",
      "outputs": [
        {
          "components": [
            {
              "internalType": "uint256",
              "name": "id",
              "type": "uint256"
            },
            {
              "internalType": "address",
              "name": "creator",
              "type": "address"
            },
            {
              "internalType": "string",
              "name": "title",
              "type": "string"
            },
            {
              "internalType": "string",
              "name": "description",
              "type": "string"
            },
            {
              "internalType": "string",
              "name": "category",
              "type": "string"
            },
            {
              "internalType": "uint256",
              "name": "goal",
              "type": "uint256"
            },
            {
              "internalType": "uint256",
              "name": "raised",
              "type": "uint256"
            },
            {
              "internalType": "uint256",
              "name": "deadline",
              "type": "uint256"
            },
            {
              "internalType": "bool",
              "name": "isActive",
              "type": "bool"
            },
            {
              "internalType": "bool",
              "name": "goalReached",
              "type": "bool"
            },
            {
              "internalType": "bool",
              "name": "fundsWithdrawn",
              "type": "bool"
            },
            {
              "internalType": "bool",
              "name": "isAnonymous",
              "type": "bool"
            }
          ],
          "internalType": "struct FHEAnonymousCrowdfunding.Campaign[]",
          "name": "",
          "type": "tuple[]"
        }
      ],
      "stateMutability": "view",
      "type": "function"
    },
    {
      "inputs": [],
      "name": "getContractStats",
      "outputs": [
        {
          "internalType": "uint256",
          "name": "_totalCampaigns",
          "type": "uint256"
        },
        {
          "internalType": "uint256",
          "name": "_totalDonations",
          "type": "uint256"
        },
        {
          "internalType": "uint256",
          "name": "_platformFee",
          "type": "uint256"
        }
      ],
      "stateMutability": "view",
      "type": "function"
    },
    {
      "inputs": [
        {
          "internalType": "address",
          "name": "_user",
          "type": "address"
        }
      ],
      "name": "getUserCampaigns",
      "outputs": [
        {
          "internalType": "uint256[]",
          "name": "",
          "type": "uint256[]"
        }
      ],
      "stateMutability": "view",
      "type": "function"
    },
    {
      "inputs": [
        {
          "internalType": "address",
          "name": "_user",
          "type": "address"
        }
      ],
      "name": "getUserDonations",
      "outputs": [
        {
          "internalType": "uint256[]",
          "name": "",
          "type": "uint256[]"
        }
      ],
      "stateMutability": "view",
      "type": "function"
    },
    {
      "inputs": [
        {
          "internalType": "uint256",
          "name": "_campaignId",
          "type": "uint256"
        }
      ],
      "name": "refund",
      "outputs": [],
      "stateMutability": "nonpayable",
      "type": "function"
    },
    {
      "inputs": [],
      "name": "totalCampaigns",
      "outputs": [
        {
          "internalType": "uint256",
          "name": "",
          "type": "uint256"
        }
      ],
      "stateMutability": "view",
      "type": "function"
    },
    {
      "inputs": [],
      "name": "totalDonations",
      "outputs": [
        {
          "internalType": "uint256",
          "name": "",
          "type": "uint256"
        }
      ],
      "stateMutability": "view",
      "type": "function"
    },
    {
      "inputs": [
        {
          "internalType": "address",
          "name": "",
          "type": "address"
        },
        {
          "internalType": "uint256",
          "name": "",
          "type": "uint256"
        }
      ],
      "name": "userCampaigns",
      "outputs": [
        {
          "internalType": "uint256",
          "name": "",
          "type": "uint256"
        }
      ],
      "stateMutability": "view",
      "type": "function"
    },
    {
      "inputs": [
        {
          "internalType": "address",
          "name": "",
          "type": "address"
        },
        {
          "internalType": "uint256",
          "name": "",
          "type": "uint256"
        }
      ],
      "name": "userDonations",
      "outputs": [
        {
          "internalType": "uint256",
          "name": "",
          "type": "uint256"
        }
      ],
      "stateMutability": "view",
      "type": "function"
    },
    {
      "inputs": [
        {
          "internalType": "uint256",
          "name": "_campaignId",
          "type": "uint256"
        }
      ],
      "name": "withdrawFunds",
      "outputs": [],
      "stateMutability": "nonpayable",
      "type": "function"
    },
    {
      "stateMutability": "payable",
      "type": "receive"
    }
  ],
  "bytecode": "0x60808060405234610016576120be908161001b8239f35b5f80fdfe608080604052600436101561001a575b50361561001857005b005b5f3560e01c90816302932f5614611ae757508063141961bc146119ee578063155dd5ee1461187157806319ac74bd1461181d578063278ecde11461160257806334fbc9a1146115e757806345f5b7371461129c5780634933e631146112475780635167642f146111145780635598f8cc1461101b5780635cc3224e14610e7b57806370879ff714610e00578063732435b214610d8a578063a1e5084c14610d04578063ad3fbe3014610ca8578063bc7ba95c14610b82578063ca6a04a5146108ad578063de2ed89314610890578063dfe6b5d614610864578063f7cfb5c31461012e5763fca604d71461010d575f61000f565b3461012a575f36600319011261012a576020600454604051908152f35b5f80fd5b3461012a5760c036600319011261012a5760043567ffffffffffffffff811161012a5761015f903690600401611cb3565b60243567ffffffffffffffff811161012a5761017f903690600401611cb3565b60443567ffffffffffffffff811161012a5761019f903690600401611cb3565b6084359160a435801515810361012a57845115610820578151156107dc57606435156107985783159384158061078c575b1561074857600454946101e286611f6c565b60045562015180808302928304141715610734576102009042611f5f565b926040519261020e84611b39565b8584523360208501528660408501526060840152608083015260643560a08301525f60c08301528260e083015260016101008301525f6101208301525f610140830152801515610160830152835f525f60205260405f209180518355600183016001600160a01b0360208301511673ffffffffffffffffffffffffffffffffffffffff19825416179055604081015180519067ffffffffffffffff82116105945781906102be6002870154611b01565b601f81116106e4575b50602090601f8311600114610679575f9261066e575b50508160011b915f199060031b1c19161760028401555b606081015180519067ffffffffffffffff821161059457819061031a6003870154611b01565b601f811161061e575b50602090601f83116001146105b3575f926105a8575b50508160011b915f199060031b1c19161760038401555b608081015180519067ffffffffffffffff8211610594576103746004860154611b01565b601f8111610550575b5091869391602098938990601f83116001146104bc5791807feeef94c54408b581d52c1a16ce11f234adc47aacf1fcee70dae66951084948689798926008945f926104b1575b50508160011b915f199060031b1c19161760048201555b60a0830151600582015560c0830151600682015560e0830151600782015501906104176101008201511515839060ff801983541691151516179055565b610120810151151590825461ff0063ff00000061016062ff0000610140860151151560101b16940151151560181b169360081b169063ffffff0019161717179055335f526002875261046c8460405f2061204f565b610477600554611f6c565b60055561048f60405192608084526080840190611c36565b94606435888401526040830152151560608201528033940390a3604051908152f35b015190508c806103c3565b600488939298015f528a5f20905f5b601f19841681106105365750916001917feeef94c54408b581d52c1a16ce11f234adc47aacf1fcee70dae669510849486898996008959483601f1981161061051e575b505050811b0160048201556103da565b01515f1960f88460031b161c191690558c808061050e565b818a01518355988c01988b98506001909201918c016104cb565b600486015f5260205f20601f840160051c81016020851061058d575b601f830160051c8201811061058257505061037d565b5f815560010161056c565b508061056c565b634e487b7160e01b5f52604160045260245ffd5b015190508880610339565b600387015f908152602081209350601f198516905b81811061060657509084600195949392106105ee575b505050811b016003840155610350565b01515f1960f88460031b161c191690558880806105de565b929360206001819287860151815501950193016105c8565b909150600386015f5260205f20601f840160051c810160208510610667575b90849392915b601f830160051c82018110610659575050610323565b5f8155859450600101610643565b508061063d565b0151905088806102dd565b600287015f908152602081209350601f198516905b8181106106cc57509084600195949392106106b4575b505050811b0160028401556102f4565b01515f1960f88460031b161c191690558880806106a4565b9293602060018192878601518155019501930161068e565b909150600286015f5260205f20601f840160051c81016020851061072d575b90849392915b601f830160051c8201811061071f5750506102c7565b5f8155859450600101610709565b5080610703565b634e487b7160e01b5f52601160045260245ffd5b606460405162461bcd60e51b815260206004820152601060248201527f496e76616c6964206475726174696f6e000000000000000000000000000000006044820152fd5b5061016d8111156101d0565b606460405162461bcd60e51b815260206004820152601b60248201527f476f616c206d7573742062652067726561746572207468616e203000000000006044820152fd5b606460405162461bcd60e51b815260206004820152601b60248201527f4465736372697074696f6e2063616e6e6f7420626520656d70747900000000006044820152fd5b606460405162461bcd60e51b815260206004820152601560248201527f5469746c652063616e6e6f7420626520656d70747900000000000000000000006044820152fd5b3461012a575f36600319011261012a5760606005546006546040519182526020820152600a6040820152f35b3461012a575f36600319011261012a576020600654604051908152f35b604036600319011261012a5760246004358135801580159081830361012a576108d96004548510611e71565b835f526020925f845260ff600860405f2001541615610b3f57845f525f8452600760405f200154421015610afc573415610ab957845f525f845260405f2060068101610926348254611f5f565b8091556005820154111580610aa7575b610a91575b5015610a8a575f945b60405161095081611b56565b858152848101966001600160a01b03809116978881526040830190348252606084019242845260808501948886528a5f5260018a5260405f2080549068010000000000000000821015610a7757906109ad91600182018155611e1d565b979097610a6657509360409896936004937f665ae3d7b1878285ba5b24aad2297e9585ab3110185e2d75a78f33772084e9b59b999793610a2f975187556001870191511673ffffffffffffffffffffffffffffffffffffffff1982541617905551600285015551600384015551151591019060ff801983541691151516179055565b610a4e575b610a3f600654611f6c565b600655825191348352820152a3005b335f5260038252610a6185845f2061204f565b610a34565b634e487b7160e01b5f525f6004525ffd5b88634e487b7160e01b5f5260416004525ffd5b3394610944565b600801805461ff0019166101001790558661093b565b5060ff600882015460081c1615610936565b606484601f886040519262461bcd60e51b845260048401528201527f446f6e6174696f6e206d7573742062652067726561746572207468616e2030006044820152fd5b606484600e886040519262461bcd60e51b845260048401528201527f43616d706169676e20656e6465640000000000000000000000000000000000006044820152fd5b6064846013886040519262461bcd60e51b845260048401528201527f43616d706169676e206e6f7420616374697665000000000000000000000000006044820152fd5b3461012a5760208060031936011261012a57600435610ba46004548210611e71565b5f526001906001815260405f20908154610bbd81611f7a565b92610bcb6040519485611b72565b8184525f908152828120858486015b85858510610c51575f9150818881855b610c06575b506060945051916040519384528301526040820152f35b938151851015610c4b5785906080610c1e878561203b565b51015115610c3957610c308291611f6c565b955b0190610bea565b9492610c458291611f6c565b93610c32565b93610bef565b600591604051610c6081611b56565b855481526001600160a01b03858701541683820152600286015460408201526003860154606082015260ff600487015416151560808201528152019201920191908690610bda565b3461012a57602036600319011261012a57600435610cc96004548210611e71565b805f525f602052610ceb6001600160a01b03600160405f200154163314611ebc565b5f525f602052600860405f200160ff1981541690555f80f35b3461012a5760208060031936011261012a576001600160a01b03610d26611c74565b165f52600260205260405f20906040519081602084549182815201935f5260205f20915f905b828210610d7357610d6f85610d6381890382611b72565b60405191829182611e36565b0390f35b835486529485019460019384019390910190610d4c565b3461012a5760208060031936011261012a576001600160a01b03610dac611c74565b165f52600360205260405f20906040519081602084549182815201935f5260205f20915f905b828210610de957610d6f85610d6381890382611b72565b835486529485019460019384019390910190610dd2565b3461012a57604036600319011261012a576024356004355f52600160205260405f20805482101561012a5760a091610e3791611e1d565b508054906001600160a01b0360018201541690600281015460ff60046003840154930154169260405194855260208501526040840152606083015215156080820152f35b3461012a575f36600319011261012a576004545f805b828110610fd15750610ea290611fec565b905f805b828110610ebb5760405180610d6f8682611dba565b805f5260205f815260405f206008808201549060ff9283831690818092610fc4575b610ef0575b505050505050600101610ea6565b93838193610fb8979593600760019a9b9860405198610f0e8a611b39565b81548a526001600160a01b038d83015416908a0152610f2f60028201611b94565b60408a0152610f4060038201611b94565b60608a0152610f5160048201611b94565b60808a0152600581015460a08a0152600681015460c08a0152015460e088015215156101008701521c161515610120840152818160101c16151561014084015260181c161515610160820152610fa7828861203b565b52610fb2818761203b565b50611f6c565b91908580808080610ee2565b5060078101544210610edd565b805f525f60205260405f2060ff600882015416908161100d575b50610ff9575b600101610e91565b90611005600191611f6c565b919050610ff1565b600791500154421084610feb565b3461012a57602036600319011261012a57600435611037611f92565b506110456004548210611e71565b5f525f602052610d6f60405f2060ff60086040519261106384611b39565b805484526001600160a01b03600182015416602085015261108660028201611b94565b604085015261109760038201611b94565b60608501526110a860048201611b94565b6080850152600581015460a0850152600681015460c0850152600781015460e085015201548181161515610100840152818160081c161515610120840152818160101c16151561014084015260181c161515610160820152604051918291602083526020830190611d09565b3461012a5760208060031936011261012a576004356111366004548210611e71565b5f526001906001815260405f209182549161115083611f7a565b9261115e6040519485611b72565b80845281840180955f52825f205f915b8383106111e557505050506040519281840190828552518091526040840194915f5b82811061119d5785870386f35b835180518852828101516001600160a01b031683890152604080820151908901526060808201519089015260809081015115159088015260a090960195928101928401611190565b946005858299976040999799516111fb81611b56565b855481526001600160a01b03858701541683820152600286015460408201526003860154606082015260ff6004870154161515608082015281520192019201919096949695939561116e565b3461012a57604036600319011261012a57611260611c74565b6001600160a01b0360243591165f52600360205260405f20805482101561012a5760209161128d91611c8a565b90549060031b1c604051908152f35b3461012a5760208060031936011261012a5760043567ffffffffffffffff811161012a576112ce903690600401611cb3565b905f809160045491818501935b8381106114dd57506112ec90611fec565b925f915f5b8481106113065760405180610d6f8882611dba565b805f525f8252600460405f2001604051905f918154928161132685611b01565b91828252878201946001968988821691825f146114bf57505060011461147f575b5061135492500382611b72565b519020885185201480611468575b80611452575b611376575b506001016112f1565b819461144b916001935f525f855260405f206001600160a01b036040519261139d84611b39565b8254845282015416868301526113b560028201611b94565b60408301526113c660038201611b94565b60608301526113d760048201611b94565b6080830152600581015460a0830152600681015460c0830152600781015460e0830152600880910154809160ff92839182821615156101008701521c161515610120840152818160101c16151561014084015260181c161515610160820152611440828a61203b565b52610fb2818961203b565b939061136d565b50815f525f8352600760405f2001544210611368565b50815f525f835260ff600860405f20015416611362565b9150505f528186805f2092865f945b8286106114a557505050611354928201018d611347565b80919294505483868801015201920191839186899261148e565b60ff1916885261135495151560051b85010192508f91506113479050565b805f525f8352600460405f20016040515f818354916114fb83611b01565b808352888301956001948a86821691825f146115c857505060011461158b575b505061152992500382611b72565b519020865186201480611574575b8061155e575b61154a575b6001016112db565b90611556600191611f6c565b919050611542565b50805f525f8352600760405f200154421061153d565b50805f525f835260ff600860405f20015416611537565b8992505f52815f20935f945b8286106115af57505050611529928201018b8061151b565b8054868801850152929094019385935089928101611597565b9250935050611529945060ff19168652151560051b8201018b8061151b565b3461012a575f36600319011261012a576020604051600a8152f35b3461012a5760208060031936011261012a576004356116246004548210611e71565b805f525f825260405f2091600783015442106117d957600883015460ff8160081c166117955760ff61165a9160101c1615611f07565b5f92825f5260018083528060405f205f915b611713575b50505083156116cf57600601611688848254611f52565b90555f808080863382f1156116c4577f7a482fdeb6bc9a1376f597068a214a7a39472bb2eff1b8cad21ba04f49ddca1b906040519384523393a3005b6040513d5f823e3d90fd5b6064826040519062461bcd60e51b82526004820152601660248201527f4e6f20646f6e6174696f6e7320746f20726566756e64000000000000000000006044820152fd5b8054821015611790578282611729829484611e1d565b508201546001600160a01b0316331480611779575b61174a575b019161166c565b5f6117666117588386611e1d565b509a6002809c015490611f5f565b996117718386611e1d565b500155611743565b5060026117868285611e1d565b500154151561173e565b611671565b6064826040519062461bcd60e51b82526004820152601060248201527f476f616c207761732072656163686564000000000000000000000000000000006044820152fd5b6064906040519062461bcd60e51b82526004820152601560248201527f43616d706169676e207374696c6c2061637469766500000000000000000000006044820152fd5b3461012a57604036600319011261012a57611836611c74565b6001600160a01b0360243591165f52600260205260405f20805482101561012a5760209161186391611c8a565b90546040519160031b1c8152f35b3461012a5760208060031936011261012a576004356118936004548210611e71565b805f525f82526118b46001600160a01b03600160405f200154163314611ebc565b805f525f825260405f206008810180549160ff8360081c16156119aa576006906118e460ff8560101c1615611f07565b015491821561196657620100009062ff00ff1916179055600a810290808204600a03610734576103e8611918920490611f52565b91825f811561195d575b5f80809381933390f1156116c4577ff440aec6b52895984d061d622e6edeba6210f7c3e059be920663140c084560d7906040519384523393a3005b506108fc611922565b6064856040519062461bcd60e51b82526004820152601460248201527f4e6f2066756e647320746f2077697468647261770000000000000000000000006044820152fd5b6064856040519062461bcd60e51b82526004820152601060248201527f476f616c206e6f742072656163686564000000000000000000000000000000006044820152fd5b3461012a57602036600319011261012a576004355f525f60205260405f20604081549160ff6001600160a01b03600183015416611a2d60028401611b94565b92611a3a60038201611b94565b93611aa0611a4a60048401611b94565b611a92600585015497611a8460068701549560086007890154980154988c519d8e9d8e6101809384938252602082015201528c0190611c36565b908a820360608c0152611c36565b9088820360808a0152611c36565b9460a087015260c086015260e08501528181161515610100850152818160081c161515610120850152818160101c16151561014085015260181c1615156101608301520390f35b3461012a575f36600319011261012a576020906005548152f35b90600182811c92168015611b2f575b6020831014611b1b57565b634e487b7160e01b5f52602260045260245ffd5b91607f1691611b10565b610180810190811067ffffffffffffffff82111761059457604052565b60a0810190811067ffffffffffffffff82111761059457604052565b90601f8019910116810190811067ffffffffffffffff82111761059457604052565b9060405191825f8254611ba681611b01565b908184526020946001916001811690815f14611c145750600114611bd6575b505050611bd492500383611b72565b565b5f90815285812095935091905b818310611bfc575050611bd493508201015f8080611bc5565b85548884018501529485019487945091830191611be3565b92505050611bd494925060ff191682840152151560051b8201015f8080611bc5565b91908251928382525f5b848110611c60575050825f602080949584010152601f8019910116010190565b602081830181015184830182015201611c40565b600435906001600160a01b038216820361012a57565b8054821015611c9f575f5260205f2001905f90565b634e487b7160e01b5f52603260045260245ffd5b81601f8201121561012a5780359067ffffffffffffffff82116105945760405192611ce8601f8401601f191660200185611b72565b8284526020838301011161012a57815f926020809301838601378301015290565b90611d65611d53611d41610180855185526001600160a01b036020870151166020860152604086015190806040870152850190611c36565b60608501518482036060860152611c36565b60808401518382036080850152611c36565b9160a081015160a083015260c081015160c083015260e081015160e083015261010080820151151590830152610120808201511515908301526101408082015115159083015261016080910151151591015290565b6020808201906020835283518092526040830192602060408460051b8301019501935f915b848310611def5750505050505090565b9091929394958480611e0d600193603f198682030187528a51611d09565b9801930193019194939290611ddf565b8054821015611c9f575f52600560205f20910201905f90565b60209060206040818301928281528551809452019301915f5b828110611e5d575050505090565b835185529381019392810192600101611e4f565b15611e7857565b606460405162461bcd60e51b815260206004820152601760248201527f43616d706169676e20646f6573206e6f742065786973740000000000000000006044820152fd5b15611ec357565b606460405162461bcd60e51b815260206004820152601460248201527f4e6f742063616d706169676e2063726561746f720000000000000000000000006044820152fd5b15611f0e57565b606460405162461bcd60e51b815260206004820152601760248201527f46756e647320616c72656164792077697468647261776e0000000000000000006044820152fd5b9190820391821161073457565b9190820180921161073457565b5f1981146107345760010190565b67ffffffffffffffff81116105945760051b60200190565b60405190611f9f82611b39565b5f6101608382815282602082015260606040820152606080820152606060808201528260a08201528260c08201528260e08201528261010082015282610120820152826101408201520152565b90611ff682611f7a565b6120036040519182611b72565b8281528092612014601f1991611f7a565b01905f5b82811061202457505050565b60209061202f611f92565b82828501015201612018565b8051821015611c9f5760209160051b010190565b8054680100000000000000008110156105945761207191600182018155611c8a565b819291549060031b91821b915f19901b191617905556fea2646970667358221220be0a99808c356f1904c8a644e642df98ab02ebbb38efd18827267f76e1099d6964736f6c63430008180033",
  "linkReferences": {},
  "deployedLinkReferences": {}
}