{
  "_format": "hh-sol-artifact-1",
  "contractName": "BasicCrowdfunding",
  "sourceName": "contracts/BasicCrowdfunding.sol",
  "abi": [
    {
      "anonymous": false,
      "inputs": [
        {
          "indexed": true,
          "internalType": "uint256",
          "name": "id",
          "type": "uint256"
        },
        {
          "indexed": false,
          "internalType": "address",
          "name": "creator",
          "type": "address"
        },
        {
          "indexed": false,
          "internalType": "uint256",
          "name": "goal",
          "type": "uint256"
        }
      ],
      "name": "CampaignCreated",
      "type": "event"
    },
    {
      "anonymous": false,
      "inputs": [
        {
          "indexed": true,
          "internalType": "uint256",
          "name": "id",
          "type": "uint256"
        },
        {
          "indexed": false,
          "internalType": "address",
          "name": "donor",
          "type": "address"
        },
        {
          "indexed": false,
          "internalType": "uint256",
          "name": "amount",
          "type": "uint256"
        }
      ],
      "name": "DonationMade",
      "type": "event"
    },
    {
      "anonymous": false,
      "inputs": [
        {
          "indexed": true,
          "internalType": "uint256",
          "name": "id",
          "type": "uint256"
        },
        {
          "indexed": false,
          "internalType": "uint256",
          "name": "amount",
          "type": "uint256"
        }
      ],
      "name": "FundsWithdrawn",
      "type": "event"
    },
    {
      "inputs": [],
      "name": "PLATFORM_FEE",
      "outputs": [
        {
          "internalType": "uint256",
          "name": "",
          "type": "uint256"
        }
      ],
      "stateMutability": "view",
      "type": "function"
    },
    {
      "inputs": [],
      "name": "campaignCounter",
      "outputs": [
        {
          "internalType": "uint256",
          "name": "",
          "type": "uint256"
        }
      ],
      "stateMutability": "view",
      "type": "function"
    },
    {
      "inputs": [
        {
          "internalType": "uint256",
          "name": "",
          "type": "uint256"
        }
      ],
      "name": "campaigns",
      "outputs": [
        {
          "internalType": "address",
          "name": "creator",
          "type": "address"
        },
        {
          "internalType": "string",
          "name": "title",
          "type": "string"
        },
        {
          "internalType": "uint256",
          "name": "goal",
          "type": "uint256"
        },
        {
          "internalType": "uint256",
          "name": "raised",
          "type": "uint256"
        },
        {
          "internalType": "uint256",
          "name": "deadline",
          "type": "uint256"
        },
        {
          "internalType": "bool",
          "name": "isActive",
          "type": "bool"
        }
      ],
      "stateMutability": "view",
      "type": "function"
    },
    {
      "inputs": [
        {
          "internalType": "string",
          "name": "_title",
          "type": "string"
        },
        {
          "internalType": "uint256",
          "name": "_goal",
          "type": "uint256"
        },
        {
          "internalType": "uint256",
          "name": "_durationDays",
          "type": "uint256"
        }
      ],
      "name": "createCampaign",
      "outputs": [
        {
          "internalType": "uint256",
          "name": "",
          "type": "uint256"
        }
      ],
      "stateMutability": "nonpayable",
      "type": "function"
    },
    {
      "inputs": [
        {
          "internalType": "uint256",
          "name": "_id",
          "type": "uint256"
        }
      ],
      "name": "donate",
      "outputs": [],
      "stateMutability": "payable",
      "type": "function"
    },
    {
      "inputs": [
        {
          "internalType": "uint256",
          "name": "",
          "type": "uint256"
        },
        {
          "internalType": "address",
          "name": "",
          "type": "address"
        }
      ],
      "name": "donations",
      "outputs": [
        {
          "internalType": "uint256",
          "name": "",
          "type": "uint256"
        }
      ],
      "stateMutability": "view",
      "type": "function"
    },
    {
      "inputs": [],
      "name": "getActiveCampaigns",
      "outputs": [
        {
          "internalType": "uint256[]",
          "name": "",
          "type": "uint256[]"
        }
      ],
      "stateMutability": "view",
      "type": "function"
    },
    {
      "inputs": [
        {
          "internalType": "uint256",
          "name": "_id",
          "type": "uint256"
        }
      ],
      "name": "getCampaign",
      "outputs": [
        {
          "internalType": "address",
          "name": "creator",
          "type": "address"
        },
        {
          "internalType": "string",
          "name": "title",
          "type": "string"
        },
        {
          "internalType": "uint256",
          "name": "goal",
          "type": "uint256"
        },
        {
          "internalType": "uint256",
          "name": "raised",
          "type": "uint256"
        },
        {
          "internalType": "uint256",
          "name": "deadline",
          "type": "uint256"
        },
        {
          "internalType": "bool",
          "name": "isActive",
          "type": "bool"
        }
      ],
      "stateMutability": "view",
      "type": "function"
    },
    {
      "inputs": [
        {
          "internalType": "uint256",
          "name": "_id",
          "type": "uint256"
        }
      ],
      "name": "withdrawFunds",
      "outputs": [],
      "stateMutability": "nonpayable",
      "type": "function"
    }
  ],
  "bytecode": "0x6080806040523461001657610bec908161001b8239f35b5f80fdfe60806040526004361015610011575f80fd5b5f3560e01c8063141961bc146109a1578063155dd5ee146107f15780633020580b1461042457806334fbc9a1146104095780635598f8cc146103a7578063c362b1561461024f578063ee1554a314610207578063f14faf6f1461009d5763fca604d71461007c575f80fd5b34610099575f366003190112610099576020600254604051908152f35b5f80fd5b6020806003193601126100995760043590815f525f815260405f2060ff600582015416156101c357600481015442101561017f57341561013b576003016100e5348254610b91565b9055815f526001815260405f2090335f525260405f20610106348254610b91565b9055604080513381523460208201527fe555da28bdb778f65d22794d88927ebaeca03f7de9d1b7d39245bc8fb5ca078a9190a2005b6064826040519062461bcd60e51b82526004820152600e60248201527f496e76616c696420616d6f756e740000000000000000000000000000000000006044820152fd5b6064826040519062461bcd60e51b82526004820152600e60248201527f43616d706169676e20656e6465640000000000000000000000000000000000006044820152fd5b6064826040519062461bcd60e51b82526004820152601360248201527f43616d706169676e206e6f7420616374697665000000000000000000000000006044820152fd5b34610099576040366003190112610099576024356001600160a01b038116809103610099576004355f52600160205260405f20905f52602052602060405f2054604051908152f35b34610099575f366003190112610099576002545f805b82811061035d575061028f61027982610b9e565b916102876040519384610a37565b808352610b9e565b6020928383019291601f19013684375f905f5b8181106102ec575050509060405192839281840190828552518091526040840192915f5b8281106102d557505050500390f35b8351855286955093810193928101926001016102c6565b805f525f865260405f209060059160ff8382015416908161034f575b50610318575b60019150016102a2565b61032184610b83565b93855181101561033b578782916001941b8701015261030e565b634e487b7160e01b5f52603260045260245ffd5b600491500154421088610308565b805f525f60205260405f2060ff6005820154169081610399575b50610385575b600101610265565b90610391600191610b83565b91905061037d565b600491500154421084610377565b34610099576020366003190112610099576004355f525f60205260405f206001600160a01b0381541661040560028301549260038101546004820154906103f8600160ff6005860154169401610a6d565b9560405196879687610b0f565b0390f35b34610099575f366003190112610099576020604051600a8152f35b346100995760603660031901126100995760043567ffffffffffffffff808211610099573660238301121561009957816004013590808211610099576024923684848301011161009957604435928435156107ad578315938415806107a2575b1561075e576002549461049686610b83565b6002556201518080830292830414171561074b576104b49042610b91565b906040519360c0850185811082821117610738576040523385525f6020601f1993808a604051986104ec8589601f860116018b610a37565b828a520183890137860101526020850193845260408501908735825260608601925f845260808701948552600160a0880152875f525f60205260405f20956001600160a01b038851167fffffffffffffffffffffffff00000000000000000000000000000000000000008854161787555180519283116107255761057360018801546109ff565b601f81116106dd575b5091889795939160209a9795938b91601f8411600114610645575093600593837f63e3678c8493a16f8ba43ae9e547231762ca04526dac2c388bd2c26d894018519a989461062f9a989460a0985f9261063a575b50508160011b915f199060031b1c19161760018501555b51600284015551600383015551600482015501910151151560ff80198354169116179055604051918291353383602090939291936001600160a01b0360408201951681520152565b0390a2604051908152f35b015190508f806105d0565b839291921691600188015f528c5f20925f5b8181106106c357508461062f9a989460a09894600598947f63e3678c8493a16f8ba43ae9e547231762ca04526dac2c388bd2c26d894018519e9c98600195106106ab575b505050811b0160018501556105e7565b01515f1960f88460031b161c191690558f808061069b565b8284015185558d9c50600190940193928e01928e01610657565b600188015f5260205f20601f850160051c8101916020861061071b575b601f0160051c01905b818110610710575061057c565b5f8155600101610703565b90915081906106fa565b89634e487b7160e01b5f5260416004525ffd5b87634e487b7160e01b5f5260416004525ffd5b85634e487b7160e01b5f5260116004525ffd5b60648660106040519162461bcd60e51b8352602060048401528201527f496e76616c6964206475726174696f6e000000000000000000000000000000006044820152fd5b50605a811115610484565b606485600c6040519162461bcd60e51b8352602060048401528201527f496e76616c696420676f616c00000000000000000000000000000000000000006044820152fd5b34610099576020806003193601126100995760043590815f525f815260405f20906001600160a01b03825416330361095d576003820154916002810154831061091957600501805460ff8116156108d55760ff19169055600a8202828104600a14831517156108c1576103e89004808303928084116108c15783915f91146108b8575b5f80809381933390f1156108ad577fd66662c0ded9e58fd31d5e44944bcfd07ffc15e6927ecc1382e7941cb7bd24c491604051908152a2005b6040513d5f823e3d90fd5b506108fc610874565b634e487b7160e01b5f52601160045260245ffd5b6064836040519062461bcd60e51b82526004820152601160248201527f416c72656164792077697468647261776e0000000000000000000000000000006044820152fd5b6064826040519062461bcd60e51b82526004820152601060248201527f476f616c206e6f742072656163686564000000000000000000000000000000006044820152fd5b6064906040519062461bcd60e51b82526004820152600b60248201527f4e6f742063726561746f720000000000000000000000000000000000000000006044820152fd5b34610099576020366003190112610099576004355f525f60205260405f206001600160a01b038154166104056109d960018401610a6d565b92600281015490600381015460ff60056004840154930154169260405196879687610b0f565b90600182811c92168015610a2d575b6020831014610a1957565b634e487b7160e01b5f52602260045260245ffd5b91607f1691610a0e565b90601f8019910116810190811067ffffffffffffffff821117610a5957604052565b634e487b7160e01b5f52604160045260245ffd5b9060405191825f8254610a7f816109ff565b908184526020946001916001811690815f14610aed5750600114610aaf575b505050610aad92500383610a37565b565b5f90815285812095935091905b818310610ad5575050610aad93508201015f8080610a9e565b85548884018501529485019487945091830191610abc565b92505050610aad94925060ff191682840152151560051b8201015f8080610a9e565b949296959391906001600160a01b03168552602060c060208701528151918260c08801525f5b838110610b6f575050509060e0825f8260a097969589010152601f8019910116860101966040860152606085015260808401521515910152565b81810183015188820160e001528201610b35565b5f1981146108c15760010190565b919082018092116108c157565b67ffffffffffffffff8111610a595760051b6020019056fea264697066735822122008676f66c9c66f18b721f2f8614db98b77c283db773a93e58556f369136f615a64736f6c63430008180033",
  "linkReferences": {},
  "deployedLinkReferences": {}
}